:100000000C9464000C948C000C948C000C944309A8
:100010000C9443090C9443090C948C000C944508EF
:100020000C948C000C948C000C948C000C948C0020
:100030000C948C000C948C000C948C000C948C0010
:100040000C94F9080C948C000C94C7080C94A1082B
:100050000C948C000C948C000C948C000C948C00F0
:100060000C94BB090C948C000000000024002700B5
:100070002A0000000008000201000003040700003D
:1000800000000000000002000000002300260029FC
:100090000000000000250028002B000404040404D4
:1000A0000404040202020202020303030303030125
:1000B00002040810204080010204081020010204FC
:1000C00008102000DA0A130F11241FBECFEFD8E06A
:1000D000DEBFCDBF23E0ACE8B1E001C01D92AD3D75
:1000E000B207E1F711E0A0E0B1E0EAE4FFE102C00D
:1000F00005900D92AC38B107D9F710E0C3E6D0E017
:1001000004C02197FE010E94920FC236D107C9F7A1
:100110000E94340B0C94980F0C94000008950895DD
:10012000AF92BF92CF92DF92EF92FF920F931F9305
:10013000CF93DF936C017B018B01040F151FEB0143
:100140005E01AE18BF08C017D10759F06991D601FA
:10015000ED91FC910190F081E02DC6010995892B6C
:1001600079F7C501DF91CF911F910F91FF90EF902B
:10017000DF90CF90BF90AF900895FC01538D448DD8
:10018000252F30E0842F90E0821B930B541710F042
:10019000CF96089501970895FC01918D828D98174F
:1001A00061F0A28DAE0FBF2FB11D5D968C91928D27
:1001B0009F5F9F73928F90E008958FEF9FEF089558
:1001C000FC01918D828D981731F0828DE80FF11D21
:1001D000858D90E008958FEF9FEF0895FC01918D3C
:1001E000228D892F90E0805C9F4F821B91098F7335
:1001F0009927089580EE92E00E94EE0021E0892B7D
:1002000009F420E0822F089580E090E0892B29F006
:100210000E94FA0081110C9400000895FC01A48D45
:10022000A80FB92FB11DA35ABF4F2C91848D90E018
:1002300001968F739927848FA689B7892C93A089FB
:10024000B1898C91837080648C93938D848D981385
:1002500006C00288F389E02D80818F7D8083089518
:10026000EF92FF920F931F93CF93DF93EC0181E006
:10027000888F9B8D8C8D98131AC0E889F9898081AD
:1002800085FF15C09FB7F894EE89FF896083E889E0
:10029000F98980818370806480839FBF81E090E0D2
:1002A000DF91CF911F910F91FF90EF900895F62E5F
:1002B0000B8D10E00F5F1F4F0F731127E02E8C8DF9
:1002C0008E110CC00FB607FCFACFE889F98980813E
:1002D00085FFF5CFCE010E940E01F1CFEB8DEC0F23
:1002E000FD2FF11DE35AFF4FF0829FB7F8940B8F5B
:1002F000EA89FB8980818062CFCFCF93DF93EC01C5
:10030000888D8823B9F0AA89BB89E889F9898C91FD
:1003100085FD03C0808186FD0DC00FB607FCF7CFB9
:100320008C9185FFF2CF808185FFEDCFCE010E94B9
:100330000E01E9CFDF91CF910895833081F028F449
:10034000813099F08230A9F008958730A9F0883083
:10035000C9F08430B1F4809180008F7D03C080911A
:1003600080008F7780938000089584B58F7784BD57
:10037000089584B58F7DFBCF8091B0008F778093F7
:10038000B00008958091B0008F7DF9CFCF93DF93B7
:10039000282F30E0F901EE58FF4F8491F901E15523
:1003A000FF4FD491F901E556FF4FC491CC23A1F042
:1003B00081110E949D01EC2FF0E0EE0FFF1FE95725
:1003C000FF4FA591B491EC91ED2381E090E009F409
:1003D00080E0DF91CF91089580E090E0FACF1F9305
:1003E000CF93DF93282F30E0F901EE58FF4F84912F
:1003F000F901E155FF4FD491F901E556FF4FC49142
:10040000CC23A9F0162F81110E949D01EC2FF0E062
:10041000EE0FFF1FEF56FF4FA591B4918FB7F894E1
:10042000EC91111108C0D095DE23DC938FBFDF91D2
:10043000CF911F910895DE2BF8CF90910001891381
:100440000BC0E6E8F0E0E4919FEF90930001E1300B
:1004500049F028F0E23061F060E00C94EF01109276
:100460006E00FACF90916F009D7F90936F00F4CF54
:10047000909170009D7F9093700091E09093B000F8
:100480009091B100987F94609093B1001092B30066
:10049000E3CFCF93DF9390E0FC01E155FF4F249130
:1004A00085569F4FFC0184918823C9F090E0880F06
:1004B000991FFC01E859FF4FA591B491FC01EF563B
:1004C000FF4FC591D49161110DC09FB7F8948C91E5
:1004D000209582238C938881282328839FBFDF91D6
:1004E000CF910895623051F49FB7F8943C91822FD8
:1004F000809583238C93E8812E2BEFCF8FB7F894D0
:10050000EC912E2B2C938FBFEACF0F931F93CF9399
:10051000DF93EC01162F042F1B821A8288EE93E0E2
:10052000A0E0B0E08C839D83AE83BF838DE291E039
:10053000998388831F8A1E8A198E188E1B8E1A8EA5
:100540001D8E1C8E6E8D6E7F6D7F6E8F66956170B9
:1005500081E06827842F0E94EF0161E0802F0E94D4
:100560004902802F90E0FC01E155FF4FE491E88BB8
:10057000FC01E556FF4FE491F0E0EE0FFF1FEF5650
:10058000FF4F859194919A8B898B60E0812F0E9417
:1005900049028E8D81FD04C061E0812F0E94EF0130
:1005A0001C87812F90E0FC01E155FF4FE491ED871E
:1005B000FC01E556FF4FE491F0E0EE0FFF1FE95715
:1005C000FF4F859194919F878E87DF91CF911F91E7
:1005D0000F910895CF9380910001893021F08F3FD2
:1005E00059F1CF910895E6E8F0E0C491C7FDF9CF45
:1005F00061E089E00E944902CC2309F48BC0C2303B
:1006000009F09FC08091B100887F83608093B10022
:100610008CE58093B3008FEF9FEFDC018093D402D1
:100620009093D502A093D602B093D7028091700028
:10063000826080937000D5CF89E080930001E6E866
:10064000F0E0C491CF3F69F2C13021F150F0C230E7
:1006500009F43EC0C7FDC5CF61E089E00E944902B0
:10066000CECF14BC15BC84B5826084BD85B58160D5
:1006700085BDE4EAF0E0E491F0E0EE0FFF1FEF56F5
:10068000FF4F85919491E8EBF0E0E491E093D30281
:10069000C0E0AECF10928000109281008091810066
:1006A00088608093810080918100816080938100C7
:1006B000E4EAF0E0E491F0E0EE0FFF1FEF56FF4FA9
:1006C00085919491E8EBF0E0E491E093D20290CF31
:1006D0001092B0001092B1008091B00082608093BF
:1006E000B0008091B10081608093B100E4EAF0E055
:1006F000E491F0E0EE0FFF1FEF56FF4F85919491CC
:100700009093D1028093D002E8EBF0E0E491E09383
:10071000CF026ECF85B5887F836085BD8DE287BDB2
:100720008FEF9FEFDC018093DC029093DD02A093BA
:10073000DE02B093DF0280916E00826080936E00D3
:1007400050CFC130E9F480918100887F816080932F
:10075000810088EA9BE090938900809388008FEF66
:100760009FEFDC018093D8029093D902A093DA0224
:10077000B093DB0280916F00826080936F0031CF75
:10078000C23021F0C1112DCF88EAC9CF88EA41CF0C
:100790003FB7F8948091870290918802A0918902D6
:1007A000B0918A0226B5A89B05C02F3F19F001968B
:1007B000A11DB11D3FBFBA2FA92F982F8827BC01BB
:1007C000CD01620F711D811D911D42E0660F771FE3
:1007D000881F991F4A95D1F708958F929F92AF92E3
:1007E000BF92CF92DF92EF92FF924B015C010E9489
:1007F000C8036B017C010E94C8036C197D098E0936
:100800009F09683E734081059105A8F321E0821A93
:100810009108A108B10888EEC80E83E0D81EE11C3B
:10082000F11C81149104A104B10429F7FF90EF9009
:10083000DF90CF90BF90AF909F908F9008952FB78B
:10084000F894609183027091840280918502909166
:1008500086022FBF089520918002309181022817CF
:10086000390771F490917F0280917E02981741F0D0
:10087000E0917F02F0E0E25CFD4F808190E008951E
:100880008FEF9FEF08950895EF92FF920F931F93BC
:10089000CF93DF93DC015C96ED90FC905D97E114C3
:1008A000F10479F481E090E013969C938E93129773
:1008B00090E080E0DF91CF911F910F91FF90EF903A
:1008C00008955196ED91FC91529750968C915097C6
:1008D000982F90950FB75E962C915E97122F1270FD
:1008E00021FD6095F8942081112319F1282B208394
:1008F000E7012197F1F728E0462F50E0308160FFB3
:100900001AC0382B3083E7012197F1F7BA017595AA
:100910006795215089F7112381F080818923808395
:100920000FBF5C968D919C910197F1F781E090E06B
:10093000C1CF2923DCCF3923E5CF9081892BEFCF9D
:1009400020918002309181022817390771F480913B
:100950007E0220917F0290E0805C9F4F821B910974
:1009600060E470E00E94290F089590E080E008950F
:10097000209180023091810228173907B9F49091B3
:100980007F0280917E02981789F0E0917F02F0E06B
:10099000E25CFD4F808120917F0230E02F5F3F4F6E
:1009A0002F73332720937F0290E008958FEF9FEFFE
:1009B00008950F931F93CF93DF93EC010E941F04C0
:1009C000688779878A879B87CE010E94B80497FF42
:1009D00015C00E941F04088519852A853B85601B68
:1009E000710B820B930B0C811D812E813F8160174F
:1009F00071078207930740F38FEF9FEFDF91CF914D
:100A00001F910F910895E0918002F0918102E81703
:100A1000F90769F4A389B4899C9185898095892314
:100A20008C93109281021092800281E0089580E000
:100A30000895CF93DF93EC018A8D9B8D892B01F173
:100A400080918002909181028C179D07C9F00097D8
:100A500011F00E9403058E8D8E7F8E8F10927E0284
:100A600010927F02D0938102C0938002EB89FC89AF
:100A700080819D89892B808381E0DF91CF910895CA
:100A800080E0FBCFCF93DF93EC019A01AB011B8E8B
:100A90001A8E198E188E1F8A1E8A60E079E08DE307
:100AA00090E00E943D0FC90103979D8F8C8F6C854C
:100AB000663108F047C0C9019695879543979F8B8B
:100AC0008E8BC9010597998F888FC901880F991F4F
:100AD000280F391F36952795369527952C503109C3
:100AE0003B8F2A8F9091680084E0683048F021E0C5
:100AF0006E3008F420E081E001C0880F2A95EAF703
:100B0000892B809368009C852DE630E0983050F06A
:100B10002BE630E09E3030F02CE630E0963110F0DD
:100B200030E020E03C8B2B8B292F30E0983078F49C
:100B300081E001C0880F9A95EAF78D8B8C8D9D8D91
:100B40000197F1F7CE01DF91CF910C9419059E30FA
:100B500040F42850310981E001C0880F2A95EAF756
:100B6000ECCF2E503109F7CF08952091CD01260FFB
:100B70003327331F21323105ECF420911602FC019A
:100B800090E080E0243069F082E00895A091CD01EA
:100B90002191AC0143555E4FA40FB52FB11D2C938D
:100BA0000196861798F38091CD01680F6093CD016F
:100BB00080E0089581E008951092160281E080930C
:100BC00015021092F00161E082E10E94EF0161E004
:100BD00083E10E94EF01E9EBF0E080818E7F80836A
:100BE00080818D7F808388E48093B80085E4809342
:100BF000BC000895CF93DF9391E09093AC018823DC
:100C0000B9F0C091B800D091BA008091BC008A7B45
:100C10008093BC0060E082E10E94EF0160E083E12C
:100C20000E94EF010E94DC05D093BA00C093B80087
:100C3000DF91CF910895E091920280919102E8179F
:100C400030F4F0E0E457FE4F808190E008958FEF9C
:100C50009FEF089590919202809191022FEF3FEFC4
:100C6000981748F4E92FF0E0E457FE4F208130E078
:100C70009F5F90939202C901089580919102909193
:100C80009202891B990B0895CF92DF92EF92FF9207
:100C90000F931F93CF93DF937C01CB018A012091A7
:100CA0001C02222389F0EB016B01C40ED51ECC156A
:100CB000DD0569F06991D701ED91FC910190F0811A
:100CC000E02DC7010995F3CF642F0E94B505C80137
:100CD000DF91CF911F910F91FF90EF90DF90CF9018
:100CE0000895CF93DF931F92CDB7DEB7698320912C
:100CF0001C022223F9F020918F02203258F021E0CB
:100D000030E0FC013383228390E080E00F90DF919C
:100D1000CF91089580919002E82FF0E0E35EFD4FBF
:100D2000998190838F5F8093900280938F0281E0FE
:100D300090E0ECCF61E0CE0101960E94B505F7CFBF
:100D4000CF92DF92EF92FF920F931F93CF93DF9397
:100D5000FC01C48121E020931C02C0933D0210924B
:100D6000900210928F028385682B8DE793E00E949A
:100D70007106D0918F02D13208F092C00E94C80350
:100D80006B017C0180911602811165C082E0809325
:100D9000160281E0809315028FEF80931402109267
:100DA0001302D0931202ADE1B2E0E2EFF1E080E095
:100DB000D81385C01092F1018091F101CC0FC82B9E
:100DC000C093F1018091F001813009F07CC0109254
:100DD000F0010E94C8036B017C018091F1018093B6
:100DE000BB008091180290911902A0911A02B09153
:100DF0001B02892B8A2B8B2B99F00E94C803009130
:100E000018021091190220911A0230911B026C19DC
:100E10007D098E099F090617170728073907E0F192
:100E20008091BC0083FDD9CF85EC8093BC000E94EB
:100E3000C8036B017C0180911602823009F445C021
:100E4000809114028F3F61F180911402803241F150
:100E50008091140225C08091180290911902A091EE
:100E60001A02B0911B02892B8A2B8B2B09F48ACF93
:100E70000E94C803009118021091190220911A02D1
:100E800030911B026C197D098E099F0906171707FF
:100E90002807390708F076CF809117020E94FA05DB
:100EA0001092900210928F0210921C02DF91CF914B
:100EB0001F910F91FF90EF90DF90CF9008959D913B
:100EC00091938F5F75CF85EEB0CF8091180290918E
:100ED0001902A0911A02B0911B02892B8A2B8B2B2D
:100EE00009F4A9CF0E94C8030091180210911902B9
:100EF00020911A0230911B026C197D098E099F09FD
:100F0000061717072807390708F095CFC5CF90E0D7
:100F100080E008950F931F93CF938C01C62F0E94FA
:100F2000A0066C2F6460C8010E94A0066C2F6B7F26
:100F3000C8010E94A00683EC90E00197F1F7CF91E1
:100F40001F910F9108950F931F93CF93DF938C01FF
:100F5000D62FC42F607F642B0E948A0780E1D89F20
:100F6000B00111246C2BC801DF91CF911F910F911B
:100F70000C948A0740E061E087EC93E00E94A307AD
:100F80008BE39FE10197F1F70895CF93DF93CDB7FE
:100F9000DEB728970FB6F894DEBF0FBECDBF98E03E
:100FA000E1E0F1E0DE01119601900D929A95E1F7F2
:100FB0009091CF03961708F46FEF262F30E0220FA1
:100FC000331F41E050E04C0F5D1F240F351FF90126
:100FD0006081680F606840E087EC93E028960FB668
:100FE000F894DEBF0FBECDBFDF91CF910C94A30765
:100FF00041E00E94A30781E090E00895FB01019089
:101000000020E9F73197AF01461B570BDC01ED914A
:10101000FC910280F381E02D099485ED8093BC0062
:101020008091180290911902A0911A02B0911B02AE
:101030000796A11DB11D23E0B695A79597958795B5
:101040002A95D1F72091BC0024FD03C0109216020E
:101050000895409118025091190260911A027091FE
:101060001B02452B462B472B69F30097A105B105C1
:1010700041F025E32A95F1F700000197A109B10994
:10108000E1CF809117020C94FA051F920F920FB6D0
:101090000F9211242F933F934F935F936F937F93FE
:1010A0008F939F93AF93BF93EF93FF938091D4025D
:1010B0009091D502A091D602B091D702892B8A2BAC
:1010C0008B2BD1F19091CF02E091D002F091D1021F
:1010D0008081892780838091D4029091D502A0914C
:1010E000D602B091D702181619061A061B069CF4F0
:1010F0008091D4029091D502A091D602B091D702EE
:101100000197A109B1098093D4029093D502A093CD
:10111000D602B093D702FF91EF91BF91AF919F910B
:101120008F917F916F915F914F913F912F910F9090
:101130000FBE0F901F901895809100010E941D0214
:10114000EACF1F920F920FB60F9211242F933F9365
:101150004F935F936F937F938F939F93AF93BF93BF
:10116000EF93FF9380EE92E00E940E01FF91EF91CA
:10117000BF91AF919F918F917F916F915F914F91AF
:101180003F912F910F900FBE0F901F9018951F92B7
:101190000F920FB60F9211242F938F939F93EF937B
:1011A000FF93E091F002F091F1028081E091F6026C
:1011B000F091F70282FD1BC090818091F9028F5F50
:1011C0008F732091FA02821741F0E091F902F0E06A
:1011D000E052FD4F958F8093F902FF91EF919F911F
:1011E0008F912F910F900FBE0F901F9018958081B7
:1011F000F4CF1F920F920FB60F9211242F933F93AB
:101200008F939F93AF93BF938091830290918402B9
:10121000A0918502B09186023091820223E0230FD3
:101220002D3758F50196A11DB11D209382028093A0
:10123000830290938402A0938502B09386028091EA
:10124000870290918802A0918902B0918A0201964A
:10125000A11DB11D8093870290938802A0938902FB
:10126000B0938A02BF91AF919F918F913F912F913F
:101270000F900FBE0F901F90189526E8230F02962F
:10128000A11DB11DD2CF1F920F920FB60F92112444
:101290002F933F934F935F936F937F938F939F937E
:1012A000AF93BF93EF93FF93E0918002F09181029F
:1012B000309749F0A685B7858585968D91FF14C036
:1012C0009C918923A1F4FF91EF91BF91AF919F91E0
:1012D0008F917F916F915F914F913F912F910F90DF
:1012E0000FBE0F901F9018959C91892361F7A389D9
:1012F000B4899C918589809589238C938689978967
:101300000197F1F7608D718DA685B785558538E019
:1013100020E0CB010197F1F7822F90E0959587951A
:10132000282F4C91452309F02068315091F7868D84
:1013300081FD209580917E0290E001968F73992720
:1013400030917F02381799F0A0917E02B0E0A25C44
:10135000BD4F2C9380937E02828D938D0197F1F780
:10136000A389B4898C919589892B8C93ACCF868D78
:101370008160868FF1CF1F920F920FB60F921124CA
:101380002F933F934F935F936F937F938F939F938D
:10139000AF93BF93EF93FF938091B900887F80361E
:1013A00009F44AC0F0F5883209F4A7C018F5803175
:1013B00009F49BC0B8F4882309F4F9C0883009F413
:1013C00094C0FF91EF91BF91AF919F918F917F91C9
:1013D0006F915F914F913F912F910F900FBE0F90A2
:1013E0001F901895883109F488C0803251F7809396
:1013F000140214C0803409F49DC040F48033B9F362
:101400008833F9F68093140285ECB0C0803509F476
:1014100085C0883509F496C0883499F60E940D0875
:10142000D0CF883909F48CC038F5883729F050F4CA
:10143000883611F0803729F683E0809316021092E7
:10144000EF0157C0883809F47BC0803919F0803823
:1014500009F0B7CF8091EF01803208F071C0E091C0
:10146000EF0181E08E0F8093EF018091BB00F0E0EF
:10147000E153FE4F80833DC0803B39F0E0F4803A79
:1014800009F479C0883A09F09CCF84E08093160271
:101490001092CE011092CD01E0918D02F0918E025A
:1014A00009958091CD0181110FC081E08093CD011C
:1014B0001092AD0109C0803C09F4A6CF883C09F424
:1014C000A3CF883B09F07DCFE091CE0181E08E0F64
:1014D0008093CE01F0E0E355FE4F80818093BB0006
:1014E0009091CE018091CD0129C08091F10180932E
:1014F000BB0085EC8093BC0064CF90911302809177
:101500001202981758F5E091130281E08E0F809334
:101510001302F0E0EE50FE4F8081E9CFE09113021C
:1015200081E08E0F809313028091BB00F0E0EE50BB
:10153000FE4F808390911302809112029817C8F297
:1015400085E8D8CFE091130281E08E0F80931302DB
:101550008091BB00F0E0EE50FE4F80838091150239
:1015600081115CCF81E08093F00184EA8093BC001C
:101570001092160226CF85EC8093BC0010921602C2
:101580008091EF01803230F4E091EF01F0E0E1531F
:10159000FE4F10826091EF0170E0E0918B02F091BC
:1015A0008C028FEC91E009951092EF010ACF109216
:1015B000140234CFE0EEF2E01382128288EE93E060
:1015C000A0E0B0E084839583A683B7832FE331E066
:1015D0003183208325EC30E03587248724EC30E00C
:1015E0003787268720EC30E0318B208B21EC30E0F0
:1015F000338B228B22EC30E0358B248B26EC30E0D1
:10160000378B268B118E128E138E148EEDE7F3E03E
:101610001382128284839583A683B78381E591E048
:1016200091838083E3EDF3E01182108213821282B2
:1016300080E18483E7ECF3E01382128223E631E059
:101640003183208397E29483818782E082871386A7
:1016500043E062E088EA93E00E94850245E066E0AC
:1016600089E893E00C948502CF93DF93CDB7DEB782
:1016700062970FB6F894DEBF0FBECDBF789484B5E5
:10168000826084BD84B5816084BD85B5826085BD7E
:1016900085B5816085BD80916E00816080936E000C
:1016A00010928100809181008260809381008091FE
:1016B00081008160809381008091800081608093AF
:1016C00080008091B10084608093B1008091B0006F
:1016D00081608093B00080917A00846080937A006A
:1016E00080917A00826080937A0080917A00816094
:1016F00080937A0080917A00806880937A001092BB
:10170000C1001092920210929102109290021092D7
:101710008F020E94DC058EE890E090938E02809309
:101720008D028FE890E090938C0280938B02109250
:10173000CC038091D103823018F098E09093CC03D1
:101740008093CF0362E370E080E090E00E94ED03BD
:101750006091D20387EC93E00E94A00668EE73E0EC
:1017600080E090E00E94ED0360E387EC93E00E944C
:101770008A070BE416E4C8010197F1F760E387ECF0
:1017800093E00E948A07C8010197F1F760E387ECB4
:1017900093E00E948A0783E592E00197F1F760E207
:1017A00087EC93E00E948A076091CC03606240E07E
:1017B00087EC93E00E94A30784E08093CD0340E090
:1017C0006CE087EC93E00E94A3070E94BA0712E046
:1017D0001093CE0340E066E087EC93E00E94A307FD
:1017E00040E062E087EC93E00E94A3078BE39FE177
:1017F0000197F1F788E08093D20360E087EC93E0F3
:101800000E94A00660E080E00E94C5076BE671E0E0
:1018100087EC93E00E94FE0740E855E260E070E04C
:1018200088EA93E00E94420584E190E0A0E0B0E005
:101830008093AC039093AD03A093AE03B093AF033A
:1018400040EC52E160E070E089E893E00E944205DC
:10185000E091F002F091F1021083E091EC02F0913E
:10186000ED021082E091EE02F091EF028FEC8083A6
:101870001092F802E091F402F091F50286E0808384
:10188000E091F202F091F302808180618083E09127
:10189000F202F091F302808188608083E091F2028D
:1018A000F091F302808180688083E091F202F091F0
:1018B000F30280818F7D80836BE671E080EE92E0A1
:1018C0000E94FE0763E771E080EE92E00E94FE074F
:1018D00061E08DE00E94490262E08AE00E944902D4
:1018E00062E08BE00E94490262E08CE00E944902C3
:1018F00061E084E00E94490261E087E00E944902C1
:1019000061E088E00E94490261E084E00E94EF010A
:1019100061E087E00E94EF0161E088E00E94EF0152
:1019200066E771E080EE92E00E94FE0763E771E0F7
:1019300080EE92E00E94FE070E94BA0789E893E0D9
:101940000E94190510929D0281E08093CE02809141
:10195000090190910A01A0910B01B0910C018F87B0
:10196000988BA98BBA8B40900D0150900E0160901E
:101970000F01709010019EEC292E92E0392E80907C
:10198000110190901201A0901301B090140120E079
:10199000C22E20E0D22E8091CE028111CAC08AE0F0
:1019A0000E94C601892B01F50E941F040091930239
:1019B000109194022091950230919602601B710B58
:1019C000820B930B633371058105910568F080915B
:1019D00097028F5F8093970280919C02811146C08D
:1019E00081E080939C0244C08BE00E94C601892B59
:1019F00009F451C08CE00E94C601892B09F08CC00B
:101A00000E941F040091930210919402209195026C
:101A100030919602601B710B820B930B633371053F
:101A20008105910508F478C0809197028A30B0F062
:101A300081E08093CE021092970289E893E00E94A1
:101A4000190549825A826B827C8244E050E0BE01D3
:101A50006F5F7F4F89E893E00E94900080919B0226
:101A6000882309F4A5C110929B0202C010929C0227
:101A70000E941F04609393027093940280939502D6
:101A8000909396020E94EA0268EC70E080E090E099
:101A90000E94ED0341C00E941F0400919302109127
:101AA00094022091950230919602601B710B820B7B
:101AB000930B633371058105910508F49BCF0E9458
:101AC000EA0261E087E00E94EF0189E893E00E946A
:101AD00019058F859889A989BA8989839A83AB83E7
:101AE000BC8344E050E0BE016F5F7F4F89E893E024
:101AF0000E94900080919D02882321F088EA93E063
:101B00000E94190568EC70E080E090E00E94ED030F
:101B100060E087E00E94EF0189E00E941D02609171
:101B20009C0284E00E94EF0160919B0288E00E9489
:101B3000EF0189E893E00E94A004892BC1F061E0E5
:101B40008DE00E94EF010BEA12E089E893E00E9429
:101B5000D90497FD09C08731910531F0D8018D93E3
:101B60008D012A163B0689F781E08093AA0288EA54
:101B700093E00E94A004892B91F00FE912E088EA1B
:101B800093E00E94D90497FD07C0F80181938F016B
:101B9000F2E0093A1F0799F781E080939E02809155
:101BA0009E02882309F44BC00E94EA0264E670E0BA
:101BB00080E090E00E94ED0389E00E941D0289E828
:101BC00093E00E94190510929D028EE0E5E1F1E09C
:101BD000DE01119601900D928A95E1F78FE9E82ECA
:101BE00082E0F82EFE0133968701D8018D918D0198
:101BF000819389EA92E08A179B07B9F70E94BA0796
:101C0000D7016D917D0187EC93E00E94F807E01603
:101C1000F106B1F761E080E00E94C5076CE771E072
:101C200087EC93E00E94FE074EE050E0BE016F5F3C
:101C30007F4F89E893E00E94900010929E0280916D
:101C4000AA02882309F4E0C08091AC02853009F033
:101C500051C060E084E00E94EF0160E087E00E94F4
:101C6000EF0160E088E00E94EF010E94EA0264E672
:101C700070E080E090E00E94ED0389E00E941D0288
:101C800010929C0210929B0210929A02109299025A
:101C900010929802109297021092CE020E94BA07F8
:101CA0001092AA021092CE0289E893E00E941905D0
:101CB00010929D0289829A82AB82BC8244E050E0FD
:101CC000BE016F5F7F4F89E893E00E94900060E063
:101CD00080E00E94C50763E871E087EC93E00E9412
:101CE000FE071092AA0288EA93E00E94190581E09B
:101CF00080939D028091AC02823161F589E893E086
:101D00000E94190510929D0286E0E3E2F1E0DE01F7
:101D1000119601900D928A95E1F780919C0288239B
:101D200011F0BFEFBB8380919B02882309F44AC066
:101D3000E1E3EC8346E050E0BE016F5F7F4F89E84E
:101D400093E00E9490001092CE021092AA0281E0CD
:101D50008093CE028091AC02893109F04DC00E947F
:101D6000BA0760E080E00E94C507F12C0F2D10E05B
:101D700003551D4FF80180818330E1F1FFE0FF152D
:101D800058F461E080EF8F0D0E94C507D8016C9177
:101D900087EC93E00E94F80760E08F2D0E94C50752
:101DA000F801608187EC93E00E94F807F394DECF9E
:101DB00081E080939B0210929A02109299021092F5
:101DC000980256CE80919A02882319F0F2E3FC83A0
:101DD000B1CF80919902882319F083E38C83AACF35
:101DE00080919802882319F094E39C83A3CFA0E309
:101DF000AC83A0CF1092CE028091AC02863081F4E9
:101E00001092CE021092AA02C114D10409F4C3CDDB
:101E10000E94FA00882309F4BECD0E940000BBCDC9
:101E2000853171F3EFCFCF93DF93CDE2D1E0D09343
:101E30008A03C093890389E893E00E940305D09345
:101E4000A903C093A80388EA93E0DF91CF910C9493
:101E5000030597FB072E16F4009407D077FD09D0F1
:101E60000E945C0F07FC05D03EF4909581959F4F32
:101E70000895709561957F4F0895052E97FB1EF488
:101E800000940E94540F57FD07D00E94700F07FC6A
:101E900003D04EF40C94540F5095409530952195F5
:101EA0003F4F4F4F5F4F0895909580957095619586
:101EB0007F4F8F4F9F4F0895AA1BBB1B51E107C057
:101EC000AA1FBB1FA617B70710F0A61BB70B881FCA
:101ED000991F5A95A9F780959095BC01CD01089559
:101EE000A1E21A2EAA1BBB1BFD010DC0AA1FBB1F1E
:101EF000EE1FFF1FA217B307E407F50720F0A21B90
:101F0000B30BE40BF50B661F771F881F991F1A94FC
:101F100069F760957095809590959B01AC01BD0126
:101F2000CF010895EE0FFF1F0590F491E02D099465
:101F300010E0C3E6D0E004C0FE010E94920F21969B
:0A1F4000C436D107C9F7F894FFCFAB
:101F4A00FF00004000140054000216031702140395
:101F5A00170206031702110000000000000000002B
:101F6A000003170213000003170000000044049046
:101F7A000087074304A004B8042B040000000030C3
:101F8A00019000BD007D01EE00CC00E000000000E1
:101F9A000071064406870743043D062A061B06000D
:101FAA00000000F80790008707B405494E49542EEF
:101FBA002E2E000D0A00524541445900544147470C
:0C1FCA00454400524541445921212100AA
:00000001FF
