:100000000C94E0000C9408010C9408010C943A083C
:100010000C943A080C943A080C9408010C940801CA
:100020000C9408010C9408010C9408010C9408012C
:100030000C9408010C9408010C9408010C9408011C
:100040000C94F0070C9408010C94BE070C949807CC
:100050000C9408010C9408010C9408010C940801FC
:100060000C9408010C94080100407A10F35A00A087
:10007000724E18090010A5D4E80000E87648170071
:1000800000E40B54020000CA9A3B000000E1F505B1
:10009000000080969800000040420F000000A086FB
:1000A00001000000102700000000E803000000002D
:1000B0006400000000000A000000000001000000D1
:1000C00000002C76D888DC674F0823DFC1DFAE59EB
:1000D000E1B1B796E5E3E453C63AE651997696E87E
:1000E000E6C28426EB898C9B62ED407C6FFCEFBC02
:1000F0009C9F40F2BAA56FA5F490055A2AF75C932D
:100100006B6CF9676DC11BFCE0E40D47FEF520E662
:10011000B500D0ED902E0300943577050080841E45
:10012000080000204E0A000000C80C333333330FA0
:10013000986E12831141EF8D2114893BE65516CF3D
:10014000FEE6DB18D1844B381BF77C1D901DA4BB49
:10015000E424203284725E228100C9F124ECA1E5FE
:100160003D2700000000240027002A0000000008AE
:10017000000201000003040700000000000000006E
:1001800000000000230026002900000000002500D8
:1001900028002B00040404040404040402020202E4
:1001A000020203030303030301020408102040803A
:1001B000010204081020010204081020B208630E96
:1001C00011241FBECFEFD8E0DEBFCDBF23E0ACECE3
:1001D000B1E001C01D92A632B207E1F711E0A0E044
:1001E000B1E0EEEFF9E202C005900D92AC3CB10730
:1001F000D9F710E0CFEDD0E004C02197FE010E94B6
:10020000C713CE3DD107C9F70E94FC080C94F21425
:100210000C940000AF92BF92CF92DF92EF92FF92C8
:100220000F931F93CF93DF936C017B018B01040F1E
:10023000151FEB015E01AE18BF08C017D10759F0BA
:100240006991D601ED91FC910190F081E02DC601FC
:100250000995892B79F7C501DF91CF911F910F91F6
:10026000FF90EF90DF90CF90BF90AF900895FC018A
:10027000538D448D252F30E0842F90E0821B930B0B
:10028000541710F0CF96089501970895FC01918DB1
:10029000828D981761F0A28DAE0FBF2FB11D5D96B4
:1002A0008C91928D9F5F9F73928F90E008958FEF56
:1002B0009FEF0895FC01918D828D981731F0828D0A
:1002C000E80FF11D858D90E008958FEF9FEF089561
:1002D000FC01918D228D892F90E0805C9F4F821BC5
:1002E00091098F73992708958AE392E00E9468012B
:1002F00021E0892B09F420E0822F089580E090E02E
:10030000892B29F00E94740181110C94000008953A
:10031000FC01A48DA80FB92FB11DA35ABF4F2C917A
:10032000848D90E001968F739927848FA689B78971
:100330002C93A089B1898C91837080648C93938D68
:10034000848D981306C00288F389E02D80818F7D0B
:1003500080830895EF92FF920F931F93CF93DF93C3
:10036000EC0181E0888F9B8D8C8D98131AC0E889F1
:10037000F989808185FF15C09FB7F894EE89FF89C0
:100380006083E889F98980818370806480839FBF5E
:1003900081E090E0DF91CF911F910F91FF90EF905E
:1003A0000895F62E0B8D10E00F5F1F4F0F7311276E
:1003B000E02E8C8D8E110CC00FB607FCFACFE889A9
:1003C000F989808185FFF5CFCE010E948801F1CFA8
:1003D000EB8DEC0FFD2FF11DE35AFF4FF0829FB71D
:1003E000F8940B8FEA89FB8980818062CFCFCF930D
:1003F000DF93EC01888D8823B9F0AA89BB89E8894D
:10040000F9898C9185FD03C0808186FD0DC00FB6F2
:1004100007FCF7CF8C9185FFF2CF808185FFEDCF70
:10042000CE010E948801E9CFDF91CF9108958330FA
:1004300081F028F4813099F08230A9F00895873056
:10044000A9F08830C9F08430B1F4809180008F7DAC
:1004500003C0809180008F7780938000089584B5D9
:100460008F7784BD089584B58F7DFBCF8091B000D8
:100470008F778093B00008958091B0008F7DF9CF81
:10048000CF93DF93282F30E0F901E459FE4F849198
:10049000F901E855FE4FD491F901EC56FE4FC49195
:1004A000CC23A1F081110E941702EC2FF0E0EE0F97
:1004B000FF1FE058FE4FA591B491EC91ED2381E030
:1004C00090E009F480E0DF91CF91089580E090E022
:1004D000FACF1F93CF93DF93282F30E0F901E4592F
:1004E000FE4F8491F901E855FE4FD491F901EC5685
:1004F000FE4FC491CC23A9F0162F81110E94170240
:10050000EC2FF0E0EE0FFF1FE657FE4FA591B491E0
:100510008FB7F894EC91111108C0D095DE23DC93CD
:100520008FBFDF91CF911F910895DE2BF8CFCF932E
:10053000DF9390E0FC01E855FE4F24918C569E4FCE
:10054000FC0184918823C9F090E0880F991FFC0179
:10055000EE59FE4FA591B491FC01E657FE4FC591AF
:10056000D49161110DC09FB7F8948C91209582238E
:100570008C938881282328839FBFDF91CF91089592
:10058000623051F49FB7F8943C91822F8095832379
:100590008C93E8812E2BEFCF8FB7F894EC912E2B14
:1005A0002C938FBFEACF0F931F93CF93DF93EC0170
:1005B000162F042F1B821A8288EE93E0A0E0B0E091
:1005C0008C839D83AE83BF8389E591E09983888383
:1005D0001F8A1E8A198E188E1B8E1A8E1D8E1C8ED7
:1005E0006E8D6E7F6D7F6E8F6695617081E068277E
:1005F000842F0E94690261E0802F0E949702802F61
:1006000090E0FC01E855FE4FE491E88BFC01EC56CC
:10061000FE4FE491F0E0EE0FFF1FE657FE4F85918D
:1006200094919A8B898B60E0812F0E9497028E8D26
:1006300081FD04C061E0812F0E9469021C87812F27
:1006400090E0FC01E855FE4FE491ED87FC01EC568B
:10065000FE4FE491F0E0EE0FFF1FE058FE4F859152
:1006600094919F878E87DF91CF911F910F9108956D
:100670003FB7F8948091150290911602A09117024D
:10068000B091180226B5A89B05C02F3F19F001961E
:10069000A11DB11D3FBFBA2FA92F982F8827BC01DC
:1006A000CD01620F711D811D911D42E0660F771F04
:1006B000881F991F4A95D1F708958F929F92AF9204
:1006C000BF92CF92DF92EF92FF926B017C010E946A
:1006D00038034B015C01C114D104E104F104B9F009
:1006E0000E943803681979098A099B09683E73409A
:1006F0008105910580F321E0C21AD108E108F108D3
:1007000088EE880E83E0981EA11CB11CE4CFFF90F8
:10071000EF90DF90CF90BF90AF909F908F90089513
:100720002FB7F89460911102709112028091130218
:10073000909114022FBF0895089520910E023091D8
:100740000F022817390771F490910D0280910C0265
:10075000981741F0E0910D02F0E0E453FE4F8081E4
:1007600090E008958FEF9FEF08950895EF92FF9224
:100770000F931F93CF93DF93DC015C96ED90FC9079
:100780005D97E114F10479F481E090E013969C9375
:100790008E93129790E080E0DF91CF911F910F919F
:1007A000FF90EF9008955196ED91FC9152975096DD
:1007B0008C915097982F90950FB75E962C915E97DD
:1007C000122F127021FD6095F8942081112319F1E8
:1007D000282B2083E7012197F1F728E0462F50E0EE
:1007E000308160FF1AC0382B3083E7012197F1F781
:1007F000BA0175956795215089F7112381F08081A1
:10080000892380830FBF5C968D919C910197F1F7AE
:1008100081E090E0C1CF2923DCCF3923E5CF90815F
:10082000892BEFCF20910E0230910F022817390744
:1008300071F480910C0220910D0290E0805C9F4F3A
:10084000821B910960E470E00E945E13089590E0BD
:1008500080E0089520910E0230910F022817390789
:10086000B9F490910D0280910C02981789F0E091F3
:100870000D02F0E0E453FE4F808120910D0230E044
:100880002F5F3F4F2F73332720930D0290E0089581
:100890008FEF9FEF0895E0910E02F0910F02E8179D
:1008A000F90769F4A389B4899C9185898095892386
:1008B0008C9310920F0210920E0281E0089580E056
:1008C0000895CF93DF93EC018A8D9B8D892B01F1E5
:1008D00080910E0290910F028C179D07C9F000972E
:1008E00011F00E944B048E8D8E7F8E8F10920C0221
:1008F00010920D02D0930F02C0930E02EB89FC8977
:1009000080819D89892B808381E0DF91CF9108953B
:1009100080E0FBCFCF93DF93EC019A01AB011B8EFC
:100920001A8E198E188E1F8A1E8A60E079E08DE378
:1009300090E00E949413C90103979D8F8C8F6C8562
:10094000663108F047C0C9019695879543979F8BFC
:100950008E8BC9010597998F888FC901880F991FC0
:10096000280F391F36952795369527952C50310934
:100970003B8F2A8F9091680084E0683048F021E036
:100980006E3008F420E081E001C0880F2A95EAF774
:10099000892B809368009C852DE630E0983050F0DC
:1009A0002BE630E09E3030F02CE630E0963110F04F
:1009B00030E020E03C8B2B8B292F30E0983078F40E
:1009C00081E001C0880F9A95EAF78D8B8C8D9D8D03
:1009D0000197F1F7CE01DF91CF910C9461049E3025
:1009E00040F42850310981E001C0880F2A95EAF7C8
:1009F000ECCF2E503109F7CF90E080E00895FF92C0
:100A00000F931F93CF93DF93F82E062FC7E0D0E00C
:100A100010E061E0802F0E9469028F2D0E94400249
:100A20000C2E01C0880F0A94EAF7182B60E0802F83
:100A30000E946902219768F7812FDF91CF911F9162
:100A40000F91FF9008958F929F92AF92BF92CF9295
:100A5000DF92EF92FF920F931F93CF93DF93C82FF4
:100A6000C12CD12C7601D0E0809118030E94400265
:100A7000892B31F060E070E0CB010E945D03F4CF80
:100A80008FB6F89460911703809118030E94FF04B9
:100A9000182F60911703809118030E94FF04982E6D
:100AA00060911703809118030E94FF04082FB12C56
:100AB000A12C809119038A151B0479F070F061E074
:100AC000809117030E94690260E0809117030E94E1
:100AD00069028FEFA81AB80AECCF8FBE892D90E07B
:100AE000B0E0A0E0BA2FA92F982F8827A12B802B48
:100AF000110F110B412F50E070E060E0742F66275A
:100B000055274427842B952BA62BB72BC80ED91E0F
:100B1000EA1EFB1E60E070E0CB010E945D03DF5F18
:100B2000CD13A2CF2C2F30E050E040E0C701B6013A
:100B30000E949413CA01B901DF91CF911F910F91C7
:100B4000FF90EF90DF90CF90BF90AF909F908F90ED
:100B500008950F931F93CF93DF930E942305C5E160
:100B6000D3E00D811E812F813885601B710B820BB4
:100B7000930B0E94D51029853A854B855C850E9490
:100B8000AC12DF91CF911F910F9108958AE00E94DE
:100B900023050E94D5100E941E1360931A037093C0
:100BA0001B0380931C0390931D030895FC01019087
:100BB0000020E9F73197AF01481B590BBC0186EFC4
:100BC00092E00C940A018F929F92AF92BF920F9382
:100BD0001F93CF93DF93CDB7DEB7A1970FB6F894ED
:100BE000DEBF0FBECDBF19A2423008F44AE08E012D
:100BF0000F5D1F4F842E912CB12CA12CA5019401C7
:100C00000E947213E62FB901CA01EA30F4F4E05DE4
:100C1000D801EE938D01232B242B252B79F790E01F
:100C200080E0109719F0CD010E94D605A1960FB66D
:100C3000F894DEBF0FBECDBFDF91CF911F910F9112
:100C4000BF90AF909F908F900895E95CE1CF4F9255
:100C50005F926F927F928F929F92AF92BF92CF924C
:100C6000DF92EF92FF920F931F93CF936B017C0162
:100C7000742EAC019B010E945913882399F081E8DE
:100C800091E0CF911F910F91FF90EF90DF90CF9067
:100C9000BF90AF909F908F907F906F905F904F909C
:100CA0000C94D60546015701E894B7F82FEF3FEFB3
:100CB0004FE75FE7C501B4010E94591381110DC0D0
:100CC0002FEF3FEF4FE75FE7C501B4010E94CE1061
:100CD00018161CF485E891E0D4CF2FEF3FEF4FE7D3
:100CE0005FE4C701B6010E94541318161CF489E88A
:100CF00091E0C7CF2FEF3FEF4FE75FECC701B601A1
:100D00000E94CE1087FDF3CF20E030E0A901C7019B
:100D1000B6010E94CE1010E000E087FF0AC06DE22D
:100D200086EF92E00E94B6038C01F7FAF094F7F890
:100D3000F094C0E060E070E080E09FE37C1641F05A
:100D400020E030E040E251E40E94AC12CF5FF6CFE9
:100D5000A70196010E9440122B013C010E9425131D
:100D60004B015C014AE00E94E3057C01E00EF11EAC
:100D7000CC23C1F1C501B4010E94D3109B01AC0189
:100D8000C301B2010E943F124B015C016EE286EF8B
:100D900092E00E94B603E80EF91EC15018F120E05F
:100DA00030E040E251E4C501B4010E9434112B014E
:100DB0003C010E9425134B01B12CA12C4AE0C50136
:100DC000B4010E94E305E80EF91EC501B4010E94BA
:100DD000D3109B01AC01C301B2010E943F124B0131
:100DE0005C01DBCFC701CF911F910F91FF90EF9076
:100DF000DF90CF90BF90AF909F908F907F906F903B
:100E00005F904F9008958F929F92AF92BF92EF9212
:100E1000FF920F931F93CF93DF93CDB7DEB7CC58DC
:100E2000D1090FB6F894DEBF0FBECDBF10E000E0D1
:100E3000809118030E944002892B09F074C082E05F
:100E40000E94A9054B015C012CEE31E548EB5DE306
:100E50000E9454137801EE0CFF1CEE0CFF1C1816B8
:100E60000CF046C020E030E040E251E4C501B4019E
:100E70000E94CE1087FF3CC0E1E0F0E0EC0FFD1FC8
:100E8000EE0DFF1D80829182A282B3820F5F1F4F01
:100E90000332110569F68E010F5F1F4F7E019DE839
:100EA000E90EF11C60E070E0CB01F8012191319175
:100EB000419151918F010E944012E016F106A9F76D
:100EC00020E030E04CE052E40E94AC12C457DF4F07
:100ED0000FB6F894DEBF0FBECDBFDF91CF911F914B
:100EE0000F91FF90EF90BF90AF909F908F900895DB
:100EF000F8013197EE0FFF1FEE0FFF1F81E090E02A
:100F00008C0F9D1FE80FF91F80819181A281B38111
:100F1000E1E0F0E0EC0FFD1FEE0DFF1D80839183FB
:100F2000A283B383B3CF01501109B0CF0C946914DD
:100F30001F920F920FB60F9211242F933F934F934E
:100F40005F936F937F938F939F93AF93BF93EF9331
:100F5000FF938AE392E00E948801FF91EF91BF9195
:100F6000AF919F918F917F916F915F914F913F9141
:100F70002F910F900FBE0F901F9018951F920F92F8
:100F80000FB60F9211242F938F939F93EF93FF939C
:100F9000E0914A02F0914B028081E0915002F09181
:100FA000510282FD1BC09081809153028F5F8F732D
:100FB00020915402821741F0E0915302F0E0E65C88
:100FC000FD4F958F80935302FF91EF919F918F91E9
:100FD0002F910F900FBE0F901F9018958081F4CF26
:100FE0001F920F920FB60F9211242F933F938F935E
:100FF0009F93AF93BF938091110290911202A091A1
:101000001302B09114023091100223E0230F2D3708
:1010100058F50196A11DB11D209310028093110275
:1010200090931202A0931302B093140280911502C0
:1010300090911602A0911702B09118020196A11D7D
:10104000B11D8093150290931602A0931702B093DE
:101050001802BF91AF919F918F913F912F910F9067
:101060000FBE0F901F90189526E8230F0296A11D22
:10107000B11DD2CF1F920F920FB60F9211242F9352
:101080003F934F935F936F937F938F939F93AF9310
:10109000BF93EF93FF93E0910E02F0910F02309710
:1010A00049F0A685B7858585968D91FF14C09C91E2
:1010B0008923A1F4FF91EF91BF91AF919F918F91FF
:1010C0007F916F915F914F913F912F910F900FBE44
:1010D0000F901F9018959C91892361F7A389B4897B
:1010E0009C918589809589238C938689978901971E
:1010F000F1F7608D718DA685B785558538E020E0C4
:10110000CB010197F1F7822F90E095958795282FD5
:101110004C91452309F02068315091F7868D81FD6F
:10112000209580910C0290E001968F739927309161
:101130000D02381799F0A0910C02B0E0A453BE4FF5
:101140002C9380930C02828D938D0197F1F7A389E4
:10115000B4898C919589892B8C93ACCF868D8160D5
:10116000868FF1CFEAE3F2E01382128288EE93E0F9
:10117000A0E0B0E084839583A683B7838BE691E0FB
:101180009183808385EC90E09587848784EC90E060
:101190009787868780EC90E0918B808B81EC90E044
:1011A000938B828B82EC90E0958B848B86EC90E025
:1011B000978B868B118E128E138E148EE5E1F3E0E1
:1011C0008DE791E0918380831582168217821086C5
:1011D00080E090E0A0E8BFE381879287A387B4878F
:1011E00042E063E086EF92E00E94D30244E065E0D3
:1011F00087ED92E00C94D302CF93DF93CDB7DEB7A7
:10120000A4970FB6F894DEBF0FBECDBF789484B517
:10121000826084BD84B5816084BD85B5826085BDF2
:1012200085B5816085BD80916E00816080936E0080
:101230001092810080918100826080938100809172
:101240008100816080938100809180008160809323
:1012500080008091B10084608093B1008091B000E3
:1012600081608093B00080917A00846080937A00DE
:1012700080917A00826080937A0080917A00816008
:1012800080937A0080917A00806880937A0010922F
:10129000C10061E088E00E94970261E089E00E945D
:1012A000970261E08AE00E94970262E08CE00E946F
:1012B000970262E08FE00E949702E0914A02F0916B
:1012C0004B0282E08083E0914602F0914702108257
:1012D000E0914802F09149028FEC80831092520213
:1012E000E0914E02F0914F0216E01083E0914C0223
:1012F000F0914D02808180618083E0914C02F091F9
:101300004D02808188608083E0914C02F0914D0213
:10131000808180688083E0914C02F0914D02808151
:101320008F7D808340E855E260E070E086EF92E0D8
:101330000E948A044CE251E060E070E087ED92E0A8
:101340000E948A0490E080E00E94F21180930001E4
:1013500081E090E00E94F2118093010182E090E030
:101360000E94F2118093020183E090E00E94F2114A
:101370008093030187E0809317031093180361E0C3
:101380000E94970262E0809118030E94970281E018
:10139000809319038093390223E2C22E22E0D22ED9
:1013A0008FE00E944002892B81F40E94C60560E014
:1013B0008AE00E94690268EC70E080E090E00E94A0
:1013C0005D0361E08AE00E9469028091390288230E
:1013D00009F444C010923902109238021092370278
:1013E000109236021092320210923302109234029E
:1013F0001092350210923202109223028091000165
:1014000090910101A0910201B091030180931E030C
:1014100090931F03A0932003B09321030E94C6055D
:1014200061E08AE00E9469028DE0EAE0F1E0DE011D
:10143000119601900D928A95E1F787ED92E00E9456
:1014400061044DE050E0BE016F5F7F4F87ED92E099
:101450000E940A0186EF92E00E94610486EF92E00A
:101460000E941204892B09F41CC103E212E00E94BD
:1014700090036093FE027093FF02809300039093A9
:10148000010386EF92E00E942A0497FF0FC40E9496
:1014900090038090FE029090FF02A0900003B09015
:1014A0000103681979098A099B098090FA029090D2
:1014B000FB02A090FC02B090FD02681579058A0538
:1014C0009B05F8F280912302823009F0C1C180911E
:1014D0002402823009F0BCC180912502813109F0DB
:1014E000CDC060E08AE00E946902809126028053AC
:1014F000990BE8EEF3E08E9FB0018F9F700D9E9FD9
:10150000700D1124809127028053990BF4E6F89F07
:101510009001F99F300D1124620F731F80912802F2
:101520002AE0829F600D711D1124605E71408091E0
:1015300029028053990B680F791F072E000C880B26
:10154000990B0E94D51020E030E04AE754E40E9455
:10155000AC124B015C0186EF92E00E9461048DE8C1
:1015600091E00E94D6058BEA91E00E94D60564ECDA
:1015700079E080E090E00E945D0380E090E0A0E8E8
:10158000BFE380931E0390931F03A0932003B093A7
:1015900021030E94C6058EEA91E00E94D60542E032
:1015A000C501B4010E94270680EC91E00E94D60597
:1015B0008BEA91E00E94D60560ED77E080E090E054
:1015C0000E945D0395E0492E512C612C712C4AE05C
:1015D000C301B2010E94E3058BEA91E00E94D605A7
:1015E00068EE73E080E090E00E945D0391E0491AAC
:1015F00051086108710859F78AE00E94A905A50100
:1016000094010E94AC1260930001709301018093D9
:1016100002019093030100E011E0F12CE12CD801CC
:10162000BD908D01C7010E94F211B81621F06B2DFB
:10163000C7010E94FA11BFEFEB1AFB0AE4E0EE16B5
:10164000F10469F783EC91E00E94D60560910001F6
:1016500070910101809102019091030142E00E948A
:1016600027068BEA91E00E94D6056CED75E080E0DC
:1016700090E00E945D0381E0809339028091250211
:10168000823179F460910001709101018091020131
:101690009091030142E00E9427068BEA91E00E94AC
:1016A000D605809138028823E1F10E9490034B0116
:1016B0005C01E0EB8E0EE6E39E1EA11CB11C0E94B5
:1016C0009003681579058A059B0508F4FAC086E140
:1016D000E7E1F1E0DE01119601900D928A95E1F7C4
:1016E000E9E1F2E0DE01119681918D93CE16DF06DD
:1016F000D9F787ED92E00E94610446E150E0BE0117
:101700006F5F7F4F87ED92E00E940A0110923802CE
:1017100081E08093390268E873E180E090E00E9404
:101720005D0380913802882321F18091370288235C
:1017300001F18CE00E944002019709F0FBC00E9479
:1017400003076093320270933302809334029093C4
:10175000350220E030E040E85FEB0E94CE108823A5
:1017600009F4BFC081E080933602109238021092D3
:10177000370280913602882309F45DC01092360248
:101780008EE00E944002892BB1F42AE939E949E947
:101790005EE3609132027091330280913402909145
:1017A00035020E943F12609332027093330280939D
:1017B0003402909335028090320290903302A090D0
:1017C0003402B09035022DEC3CEC4CE45DE3C501F5
:1017D000B4010E94CE1087FD0BC020E030E040E253
:1017E00051E4C501B4010E94541318160CF007C24D
:1017F00086E1E7E1F1E0DE01119601900D928A9514
:10180000E1F7E9E1F2E0DE01119681918D9332E09A
:10181000E332F307D1F787ED92E00E94610446E1DD
:1018200050E0BE016F5F7F4F87ED92E00E940A019A
:1018300081E08093390240E050E0452B09F4B0CDBF
:101840000E947401882309F4ABCD0E940000A8CD4A
:10185000A4E2B2E089E192E0FC012D91219322E023
:10186000E332F207D1F722E1EDE2F1E0DE01119679
:1018700001900D922A95E1F7FE013196DC012D9140
:10188000CD012193B2E083329B07C1F787ED92E04F
:101890000E94610442E150E0BE016F5F7F4F87ED1F
:1018A00092E00E940A0160E08AE00E94690268EE0C
:1018B00073E080E090E00E945D0381E08093380255
:1018C000F0CE8FE00E94A9052DEC3CEC4CEC5DE3E2
:1018D0000E94541318160CF0F2CE81E08093370268
:1018E00020CF86E1E7E1F1E0DE01119601900D9253
:1018F0008A95E1F7E9E1F2E0DE01119681918D939D
:10190000CE16DF06D9F787ED92E00E94610446E12A
:1019100050E0BE016F5F7F4F87ED92E00E940A01A9
:1019200068EB7BE080E090E00E945D0381E08093C3
:1019300039021BCF8CE00E944002892B09F015CFA1
:101940000E9490039B01AC01205D3A484F4F5F4FCE
:1019500029A33AA34BA35CA30E94900329A13AA117
:101960004BA15CA1621773078407950708F007C1B4
:101970004DB75EB758A34F8F8DB79EB7CC970FB6B4
:10198000F8949EBF0FBE8DBF0DB71EB70F5F1F4FE0
:10199000ADB7BEB711961D921D921D921C92149761
:1019A000EDB7FEB73596CD96119211921192119224
:1019B0008E179F07C9F7EDB7FEB7F8970FB6F894E3
:1019C000FEBF0FBEEDBF2DB73EB72F5F3F4F3E8F1F
:1019D0002D8FADB7BEB711961D921D921D921C9210
:1019E000149735968DB79EB7C996119211921192A0
:1019F00011928E179F07C9F77801B4E0EB1AF1082E
:101A000018013801E8E36E0E711C82E00E94230584
:101A100080901A0390901B03A0901C03B0901D03AC
:101A2000681979098A099B090E94D51020911E0323
:101A300030911F0340912003509121030E94AC126A
:101A40004B015C0120E030E040E251E40E94CE1006
:101A500087FFBAC02CEE31E548EB5DE3C501B40168
:101A60000E94541318160CF0AFC0D70114968D9233
:101A70009D92AD92BC921797F4E0EF0EF11CE61424
:101A8000F70419F6AD8CBE8C4501D8016D917D919E
:101A90008D919D918D012D913D914D915C910E9473
:101AA0003F122B013C0120E030E0A9010E945413B9
:101AB000181624F077FA709477F87094F401419234
:101AC0005192619271924F01E016F106F1F6ED8CA0
:101AD000FE8CF8E3EF0EF11C10E000E0412C512CDD
:101AE0003201D5016D917D918D919D915D0120E037
:101AF00030E040E05FE30E94CE1087FF16C0F101A6
:101B00002081318142815381C301B2010E94401280
:101B1000D10114962D913D914D915C9117970E94A2
:101B200040122B013C010F5F1F4FB4E02B0E311C04
:101B3000AE14BF04B1F6003511050CF44FC0B80166
:101B4000660F771F072E000C880B990B0E94D5108B
:101B50009B01AC01C301B2010E94AC124B015C01BC
:101B6000EF8DF8A10FB6F894FEBF0FBEEDBF20E0D9
:101B700030E040E85FEB0E94CE10811137C00E9438
:101B80000307609332027093330280933402909380
:101B9000350220E030E040E85FEB0E94CE1081117A
:101BA000E1CD86E1E7E1F1E0DE01119601900D92D1
:101BB0008A95E1F7E9E1F2E0DE01119681918D93DA
:101BC000CE16DF06D9F79FCEF70180819181A281E1
:101BD000B38184839583A683B7834ECF2F8D38A19D
:101BE0000FB6F8943EBF0FBE2DBFB6CE8092320224
:101BF00090923302A0923402B0923502B3CD8E019E
:101C0000095E1F4F23E045E0C501B4010E94790E33
:101C100086E1EFE3F1E0DE01119601900D928A95E5
:101C2000E1F7E9E1F2E0DE01119681918D93CE16A4
:101C3000DF06D9F78F898C87888D8D87898D8E8770
:101C40008A8D8F878B8D888B87ED92E00E9461044F
:101C500046E150E0BE016F5F7F4F87ED92E00E944A
:101C60000A0161E088E00E94690260E089E00E9468
:101C700069026CE17CE080E090E00E945D0360E03E
:101C800088E00E94690261E089E00E9469026CE1DB
:101C90007CE080E090E00E945D0360E088E00E94CC
:101CA000690260E089E00E946902C2CD833091053B
:101CB00009F408CCD8018D938D01B2E001331B07E4
:101CC00009F0D5CBFFCBCF93DF93C9E5D1E0D0931B
:101CD000D802C093D70287ED92E00E944B04D093C4
:101CE000F702C093F60286EF92E0DF91CF910C9459
:101CF0004B04EF920F931F93CF93DF93E80134E0EF
:101D000047FD34E1042E000C550B57FF03C05195DD
:101D100041955109E32E022F242FAE010E94970E08
:101D2000CE01DF91CF911F910F91EF900895A9E01F
:101D3000B0E0EDE9FEE00C940E126A01F22EB02E36
:101D4000102FFBE3AF2EA01608F41BE31F5F012F3B
:101D500027E0AE014F5F5F4F0E94F60FBC01898103
:101D6000982F9970913009F43FC09BE2E1FC04C0C8
:101D70009E2D9170E0FC3AC05E2D5071E82FE87006
:101D800083FF46C084E0911101C083E0EF2DE81B82
:101D90008F1508F0E0E0D6018E2F20E2552351F197
:101DA000992329F0D6019C93C60101966C019601F6
:101DB0002D5F3F4FE2FE24C08EE4D6018C9391E468
:101DC00011969C93119712968C93D9018E2F90E2C5
:101DD00081111BC0E20FF32FF11D10828EEF9FEFD8
:101DE0002996ECE00C942A129DE2C6CF90E2C4CF73
:101DF0002D9381508111FCCFCE0ED11CE0E0D0CFCD
:101E00008EE6D6018C9391E6DBCF9D938150E0CF97
:101E1000482F447082FF3DC084E0911101C083E0EF
:101E20008F1510F4EF2DE81BD6018E2F20E25523DD
:101E300009F1992329F0D6019C93C60101966C0102
:101E400096012D5F3F4FE2FE1BC089E4D6018C93C3
:101E50008EE411968C93119786E412968C93D90197
:101E60008E2F90E2882309F4B5CF9D938150FACF4D
:101E70002D9381508111FCCFCE0ED11CE0E0D9CF43
:101E800089E6D6018C938EE611968C93119786E69F
:101E9000E4CF9B0177FF02C030E020E0A1E0B0E09A
:101EA000911102C0B0E0A0E0F9013196AE0FBF1F62
:101EB0008B2C912CBB2009F461C05401EFEFAE1ABA
:101EC000BE0AAA0DBB1DFA161B0619F014F04F2D01
:101ED0004A1B511188C0E3FC59C07601A42FB0E21F
:101EE000A1114FC0C40ED11C992309F45BC040E07E
:101EF000D6011196F60190836D01552309F448C06F
:101F0000012F060F9A81582F507184FF03C091331F
:101F100009F4015010160CF047C0093008F008E031
:101F2000EEE2FE2E5B01A01AB10885019194819426
:101F300091082F3F320729F4D601FC92F601319621
:101F40006F016217730794F1021713077CF5DB0129
:101F5000A21BB30BAA24A394B12CAC0EBD1EAA0DD8
:101F6000BB1D11968C9121503109D601119628156F
:101F70003905F4F0F60180836D01DBCFB12CA12C83
:101F8000A0CFF701B1937F01A150AACF9111B0CF9B
:101F9000D601942F50E302C05D9391509111FCCF74
:101FA000C40ED11C40E0ACCF01E0BACF80E3DBCF60
:101FB0006217730731F4963388F4953311F455237F
:101FC00069F0F6018083FD01842F90E2811108C041
:101FD000A40FB11D1C9290E080E002CF81E3F1CF0D
:101FE00091938150F3CF911183CF8ACF283008F09D
:101FF00027E03327DA01990F311D87FD91600096A4
:102000006105710539F432602E5F3D9330E32A9506
:10201000E1F708959F3F30F080387105610509F0C0
:102020003C5F3C5F3D93913008F08068911DDF93E9
:10203000CF931F930F93FF92EF92192F987F96954E
:10204000E92F96959695E90FFF27EE53FF4F9927B5
:102050003327EE24FF24A701E70105900894079495
:1020600028F4360FE71EF81E491F511D660F771F13
:10207000881F991F0694A1F70590079428F4E70E8E
:10208000F81E491F561FC11D770F881F991F661F15
:102090000694A1F70590079428F4F80E491F561FDF
:1020A000C71FD11D880F991F661F771F0694A1F7C0
:1020B0000590079420F4490F561FC71FD81F990F8A
:1020C000661F771F881F0694A9F7849110951770D3
:1020D00041F0D695C79557954795F794E7941A958B
:1020E000C1F7E8E6F0E06894159015913591659197
:1020F000959105907FE27395E118F10A430B560B19
:10210000C90BD009C0F7E10CF11E431F561FC91FB0
:10211000D01D7EF4703311F48A95E6CFE894015017
:1021200030F0080F0AF40027021708F4202F239537
:10213000022F7A3328F079E37D932A95E9F710C0CE
:102140007D932A9589F60694979567953795179507
:102150001794E118F10A430B560BC90BD00998F0FC
:1021600023957E9173957A3308F070E37C93201366
:10217000B8F77E9170617D9330F0839571E37D9324
:1021800070E32A95E1F71124EF90FF900F911F91D2
:10219000CF91DF91992787FD909508950E941011A6
:1021A00008F481E00895E89409C097FB3EF4909507
:1021B0008095709561957F4F8F4F9F4F9923A9F020
:1021C000F92F96E9BB279395F695879577956795AF
:1021D000B795F111F8CFFAF4BB0F11F460FF1BC0F3
:1021E0006F5F7F4F8F4F9F4F16C0882311F096E986
:1021F00011C0772321F09EE8872F762F05C0662334
:1022000071F096E8862F70E060E02AF09A95660FEC
:10221000771F881FDAF7880F9695879597F90895A5
:10222000990F0008550FAA0BE0E8FEEF16161706E7
:10223000E807F907C0F012161306E407F50798F04F
:10224000621B730B840B950B39F40A2661F0232B68
:10225000242B252B21F408950A2609F4A140A695E4
:102260008FEF811D811D08950E9447110C94B811B4
:102270000E94AA1138F00E94B11120F0952311F0AC
:102280000C94A1110C94A71111240C94EC110E9430
:10229000C91170F3959FC1F3950F50E0551F629FD0
:1022A000F001729FBB27F00DB11D639FAA27F00DAF
:1022B000B11DAA1F649F6627B00DA11D661F829FD6
:1022C0002227B00DA11D621F739FB00DA11D621FBB
:1022D000839FA00D611D221F749F3327A00D611DD8
:1022E000231F849F600D211D822F762F6A2F1124BA
:1022F0009F5750409AF0F1F088234AF0EE0FFF1FED
:10230000BB1F661F771F881F91505040A9F79E3F43
:10231000510580F00C94A1110C94EC115F3FE4F393
:10232000983ED4F3869577956795B795F795E79599
:102330009F5FC1F7FE2B880F911D9695879597F9A2
:10234000089597F99F6780E870E060E008959FEF37
:1023500080EC089500240A9416161706180609063C
:10236000089500240A94121613061406050608950B
:10237000092E0394000C11F4882352F0BB0F40F493
:10238000BF2B11F460FF04C06F5F7F4F8F4F9F4FD3
:10239000089557FD9058440F551F59F05F3F71F055
:1023A0004795880F97FB991F61F09F3F79F08795BC
:1023B0000895121613061406551FF2CF4695F1DF45
:1023C00008C0161617061806991FF1CF86957105D5
:1023D000610508940895E894BB2766277727CB0109
:1023E00097F90895F999FECF92BD81BDF89A992782
:1023F00080B50895262FF999FECF1FBA92BD81BDF1
:1024000020BD0FB6F894FA9AF99A0FBE0196089576
:102410002F923F924F925F926F927F928F929F92F4
:10242000AF92BF92CF92DF92EF92FF920F931F93E2
:10243000CF93DF93CDB7DEB7CA1BDB0B0FB6F89493
:10244000DEBF0FBECDBF09942A88398848885F84D3
:102450006E847D848C849B84AA84B984C884DF8044
:10246000EE80FD800C811B81AA81B981CE0FD11D28
:102470000FB6F894DEBF0FBECDBFED0108955058E2
:10248000BB27AA270E9457120C94B8110E94AA11C8
:1024900038F00E94B11120F039F49F3F19F426F46E
:1024A0000C94A7110EF4E095E7FB0C94A111E92F11
:1024B0000E94C91158F3BA1762077307840795077A
:1024C00020F079F4A6F50C94EB110EF4E0950B2EA8
:1024D000BA2FA02D0B01B90190010C01CA01A00176
:1024E0001124FF27591B99F0593F50F4503E68F1D1
:1024F0001A16F040A22F232F342F4427585FF3CF12
:10250000469537952795A795F0405395C9F77EF4E2
:102510001F16BA0B620B730B840BBAF09150A1F02B
:10252000FF0FBB1F661F771F881FC2F70EC0BA0FB1
:10253000621F731F841F48F4879577956795B79539
:10254000F7959E3F08F0B0CF9395880F08F0992734
:10255000EE0F9795879508950E94C0120C94B811BC
:102560000E94B11158F00E94AA1140F029F45F3F77
:1025700029F00C94A11151110C94EC110C94A71199
:102580000E94C91168F39923B1F3552391F3951B68
:10259000550BBB27AA2762177307840738F09F5F84
:1025A0005F4F220F331F441FAA1FA9F335D00E2EF1
:1025B0003AF0E0E832D091505040E695001CCAF75E
:1025C0002BD0FE2F29D0660F771F881FBB1F261721
:1025D00037074807AB07B0E809F0BB0B802DBF01F8
:1025E000FF2793585F4F3AF09E3F510578F00C94C7
:1025F000A1110C94EC115F3FE4F3983ED4F386955F
:1026000077956795B795F7959F5FC9F7880F911DE7
:102610009695879597F90895E1E0660F771F881FD3
:10262000BB1F621773078407BA0720F0621B730B86
:10263000840BBA0BEE1F88F7E09508950E942513CE
:102640006894B1110C94EC1108950E94D11188F096
:102650009F5798F0B92F9927B751B0F0E1F0660F66
:10266000771F881F991F1AF0BA95C9F714C0B130A7
:1026700091F00E94EB11B1E008950C94EB11672FDB
:10268000782F8827B85F39F0B93FCCF386957795D6
:102690006795B395D9F73EF49095809570956195BF
:1026A0007F4F8F4F9F4F08950E94101108F48FEFB6
:1026B00008950E941011880B990B089597FB072E1F
:1026C00016F4009407D077FD09D00E94B31307FCDD
:1026D00005D03EF4909581959F4F08957095619532
:1026E0007F4F0895A1E21A2EAA1BBB1BFD010DC04E
:1026F000AA1FBB1FEE1FFF1FA217B307E407F507B2
:1027000020F0A21BB30BE40BF50B661F771F881F8D
:10271000991F1A9469F760957095809590959B0123
:10272000AC01BD01CF010895052E97FB1EF4009466
:102730000E94AB1357FD07D00E94721307FC03D011
:102740004EF40C94AB1350954095309521953F4F26
:102750004F4F5F4F089590958095709561957F4F8D
:102760008F4F9F4F0895AA1BBB1B51E107C0AA1FA3
:10277000BB1FA617B70710F0A61BB70B881F991F22
:102780005A95A9F780959095BC01CD010895EE0F5B
:10279000FF1F0590F491E02D09940F931F93CF93A1
:1027A000DF938230910510F482E090E0E091240301
:1027B000F091250330E020E0B0E0A0E0309799F4FC
:1027C0002115310509F44AC0281B390B2430310585
:1027D000D8F58A819B816115710589F1FB0193838D
:1027E0008283FE0111C0408151810281138148170B
:1027F0005907E0F04817590799F4109761F01296BD
:102800000C93129713961C933296CF01DF91CF91C0
:102810001F910F9108950093240310932503F4CF83
:102820002115310551F04217530738F0A901DB019A
:102830009A01BD01DF01F801C1CFEF01F9CF9093FB
:10284000250380932403CDCFFE01E20FF31F819374
:1028500091932250310939832883D7CF20912203C5
:1028600030912303232B41F420910601309107017D
:10287000309323032093220320910401309105011A
:102880002115310541F42DB73EB740910801509113
:102890000901241B350BE0912203F0912303E21779
:1028A000F307A0F42E1B3F0B2817390778F0AC0173
:1028B0004E5F5F4F2417350748F04E0F5F1F509350
:1028C000230340932203819391939FCFF0E0E0E0B4
:1028D0009CCFCF93DF930097E9F0FC0132971382EE
:1028E0001282A0912403B0912503ED0130E020E095
:1028F0001097A1F420813181820F931F2091220330
:10290000309123032817390709F061C0F09323039E
:10291000E0932203DF91CF910895EA01CE17DF07FC
:10292000E8F54A815B819E0141155105B1F7E90146
:10293000FB83EA8349915991C40FD51FEC17FD071A
:1029400061F4808191810296840F951FE90199833A
:102950008883828193819B838A83F0E0E0E01296F2
:102960008D919C9113970097B9F52D913C911197FA
:10297000CD010296820F931F2091220330912303F1
:102980002817390739F6309751F510922503109220
:102990002403B0932303A0932203BCCFD383C28329
:1029A00040815181840F951FC817D90761F44E5F8C
:1029B0005F4F88819981480F591F518340838A81D5
:1029C0009B81938382832115310509F0B0CFF09369
:1029D0002503E09324039ECFFD01DC01C0CF1382C9
:1029E0001282D7CF10E0CFEDD0E004C0FE010E94EC
:0E29F000C7132196C03ED107C9F7F894FFCF58
:1029FE0000F497C700002603800052454144597CDD
:102A0E00307C307C300D0A30303030303030303069
:102A1E00307C302E3030307C317C300D0A3030300E
:102A2E00303030303030307C307C307C300D0A30FD
:102A3E003030303030303030307C302E3030307CF2
:102A4E00307C300D0A00000000B6030A01FC04B50C
:102A5E000312042A049D0300000000AA010A013794
:102A6E0001F701680146015A01000000009C03961F
:102A7E00076E616E00696E66006F76660043414CAC
:102A8E004C494252415445204D4F444520444F201D
:102A9E004E4F5420544F55434821000D0A00504CC0
:102AAE00414345204120574549474854203D200089
:0C2ABE004B470046494E49534820000099
:00000001FF
