:100000000C9464000C948C000C948C000C94BA0E2C
:100010000C94BA0E0C94BA0E0C948C000C94BC0D7B
:100020000C948C000C948C000C948C000C948C0020
:100030000C948C000C948C000C948C000C948C0010
:100040000C94700E0C948C000C943E0E0C94180EB4
:100050000C948C000C948C000C948C000C948C00F0
:100060000C94320F0C948C00000000002400270038
:100070002A0000000008000201000003040700003D
:1000800000000000000002000000002300260029FC
:100090000000000000250028002B000404040404D4
:1000A0000404040202020202020303030303030125
:1000B00002040810204080010204081020010204FC
:1000C0000810200051108C1511241FBECFEFD8E06E
:1000D000DEBFCDBF23E0A2E9B1E001C01D92A73E83
:1000E000B207E1F711E0A0E0B1E0E6E8FEE202C00D
:1000F00005900D92A239B107D9F710E0C3E6D0E020
:1001000004C02197FE010E940B16C236D107C9F721
:100110000E94AB100C9436170C94000090E02091D4
:10012000DD03293018F0880F991F862B2091DB03FF
:100130003091DC03232B49F02091DE0330E0322F95
:100140002227330F3064822B932B08958230910540
:1001500038F0880F991F880F991F05970197F1F7BD
:10016000089508950895AF92BF92CF92DF92EF92D3
:10017000FF920F931F93CF93DF936C017B018B0151
:10018000040F151FEB015E01AE18BF08C017D107A1
:1001900059F06991D601ED91FC910190F081E02D2B
:1001A000C6010995892B79F7C501DF91CF911F9180
:1001B0000F91FF90EF90DF90CF90BF90AF90089598
:1001C000FC01538D448D252F30E0842F90E0821B5D
:1001D000930B541710F0CF96089501970895FC01E2
:1001E000918D828D981761F0A28DAE0FBF2FB11D3A
:1001F0005D968C91928D9F5F9F73928F90E0089592
:100200008FEF9FEF0895FC01918D828D981731F04B
:10021000828DE80FF11D858D90E008958FEF9FEF9F
:100220000895FC01918D228D892F90E0805C9F4F75
:10023000821B91098F739927089586EE92E00E94A0
:10024000110121E0892B09F420E0822F089580E03C
:1002500090E0892B29F00E941D0181110C9400006F
:100260000895FC01A48DA80FB92FB11DA35ABF4F4B
:100270002C91848D90E001968F739927848FA689A5
:10028000B7892C93A089B1898C91837080648C93F9
:10029000938D848D981306C00288F389E02D8081A8
:1002A0008F7D80830895EF92FF920F931F93CF93DA
:1002B000DF93EC0181E0888F9B8D8C8D98131AC0A1
:1002C000E889F989808185FF15C09FB7F894EE8988
:1002D000FF896083E889F9898081837080648083E5
:1002E0009FBF81E090E0DF91CF911F910F91FF9030
:1002F000EF900895F62E0B8D10E00F5F1F4F0F73D8
:100300001127E02E8C8D8E110CC00FB607FCFACF92
:10031000E889F989808185FFF5CFCE010E943101FE
:10032000F1CFEB8DEC0FFD2FF11DE35AFF4FF08263
:100330009FB7F8940B8FEA89FB8980818062CFCFC9
:10034000CF93DF93EC01888D8823B9F0AA89BB890C
:10035000E889F9898C9185FD03C0808186FD0DC0F7
:100360000FB607FCF7CF8C9185FFF2CF808185FF18
:10037000EDCFCE010E943101E9CFDF91CF910895F9
:1003800090E0FC01EE58FF4F2491FC01E155FF4F36
:100390003491FC01E556FF4FE491EE23C9F022238E
:1003A00039F0233001F1A8F4213019F1223029F17C
:1003B000F0E0EE0FFF1FEF56FF4FA591B4918FB7FE
:1003C000F894EC91611126C030953E233C938FBF89
:1003D00008952730A9F02830C9F0243049F78091DA
:1003E00080008F7D03C0809180008F778093800094
:1003F000DFCF84B58F7784BDDBCF84B58F7DFBCF16
:100400008091B0008F778093B000D2CF8091B00000
:100410008F7DF9CF3E2BDACF9091000189130BC06D
:10042000E6E8F0E0E4919FEF90930001E13049F0BD
:1004300028F0E23061F060E00C94C00110926E0090
:10044000FACF90916F009D7F90936F00F4CF9091C1
:1004500070009D7F9093700091E09093B000909118
:10046000B100987F94609093B1001092B300E3CFF5
:10047000CF93DF9390E0FC01E155FF4F2491855627
:100480009F4FFC0184918823D1F090E0880F991F41
:10049000FC01E859FF4FA591B491FC01EF56FF4FC5
:1004A000C591D49161110EC09FB7F8948C91E22F41
:1004B000E0958E238C932881E223E8839FBFDF9110
:1004C000CF9108958FB7F894EC91E22BEC938FBF06
:1004D000F6CF0F931F93CF93DF93EC01162F042FCA
:1004E0001B821A8288EE93E0A0E0B0E08C839D83AB
:1004F000AE83BF8383E391E0998388831F8A1E8A3A
:10050000198E188E1B8E1A8E1D8E1C8E6E8D6E7F10
:100510006D7F6E8F6695617081E06827842F0E94E1
:10052000C00161E0802F0E943802802F90E0FC0122
:10053000E155FF4FE491E88BFC01E556FF4FE49154
:10054000F0E0EE0FFF1FEF56FF4F859194919A8BCD
:10055000898B60E0812F0E9438028E8D81FD04C05E
:1005600061E0812F0E94C0011C87812F90E0FC0177
:10057000E155FF4FE491ED87FC01E556FF4FE49113
:10058000F0E0EE0FFF1FE957FF4F859194919F8791
:100590008E87DF91CF911F910F910895CF93809116
:1005A0000001893021F08F3F59F1CF910895E6E89D
:1005B000F0E0C491C7FDF9CF61E089E00E94380204
:1005C000CC2309F48BC0C23009F09FC08091B100E8
:1005D000887F83608093B1008CE58093B3008FEFB8
:1005E0009FEFDC018093840290938502A0938602A2
:1005F000B093870280917000826080937000D5CFA5
:1006000089E080930001E6E8F0E0C491CF3F69F211
:10061000C13021F150F0C23009F43EC0C7FDC5CF52
:1006200061E089E00E943802CECF14BC15BC84B5CD
:10063000826084BD85B5816085BDE4EAF0E0E49127
:10064000F0E0EE0FFF1FEF56FF4F85919491E8EB1E
:10065000F0E0E491E0938302C0E0AECF109280001E
:100660001092810080918100886080938100809148
:100670008100816080938100E4EAF0E0E491F0E0A1
:10068000EE0FFF1FEF56FF4F85919491E8EBF0E0DE
:10069000E491E093820290CF1092B0001092B100EA
:1006A0008091B00082608093B0008091B100816041
:1006B0008093B100E4EAF0E0E491F0E0EE0FFF1F78
:1006C000EF56FF4F85919491909381028093800221
:1006D000E8EBF0E0E491E0937F026ECF85B5887F90
:1006E000836085BD8DE287BD8FEF9FEFDC01809336
:1006F0008C0290938D02A0938E02B0938F02809112
:100700006E00826080936E0050CFC130E9F480911A
:100710008100887F81608093810088EA9BE09093CC
:100720008900809388008FEF9FEFDC01809388021F
:1007300090938902A0938A02B0938B0280916F00FC
:10074000826080936F0031CFC23021F0C1112DCF74
:1007500088EAC9CF88EA41CF3FB7F89480913F0239
:1007600090914002A0914102B091420226B5A89B0F
:1007700005C02F3F19F00196A11DB11D3FBFBA2F33
:10078000A92F982F8827BC01CD01620F711D811DF3
:10079000911D42E0660F771F881F991F4A95D1F778
:1007A00008958F929F92AF92BF92CF92DF92EF9275
:1007B000FF924B015C010E94AC036B017C010E9423
:1007C000AC036C197D098E099F09683E7340810551
:1007D0009105A8F321E0821A9108A108B10888EEDA
:1007E000C80E83E0D81EE11CF11C81149104A10401
:1007F000B10429F7FF90EF90DF90CF90BF90AF90BA
:100800009F908F9008952FB7F89460913B0270915C
:100810003C0280913D0290913E022FBF08952091AD
:100820003802309139022817390771F49091370254
:1008300080913602981741F0E0913702F0E0EA50DB
:10084000FE4F808190E008958FEF9FEF0895089507
:10085000EF92FF920F931F93CF93DF93DC015C968F
:10086000ED90FC905D97E114F10479F481E090E063
:1008700013969C938E93129790E080E0DF91CF9136
:100880001F910F91FF90EF9008955196ED91FC917B
:10089000529750968C915097982F90950FB75E96DF
:1008A0002C915E97122F127021FD6095F894208193
:1008B000112319F1282B2083E7012197F1F728E074
:1008C000462F50E0308160FF1AC0382B3083E7019B
:1008D0002197F1F7BA0175956795215089F7112392
:1008E00081F08081892380830FBF5C968D919C91DC
:1008F0000197F1F781E090E0C1CF2923DCCF3923C4
:10090000E5CF9081892BEFCF2091380230913902C9
:100910002817390771F4809136022091370290E050
:10092000805C9F4F821B910960E470E00E94A215D9
:10093000089590E080E008952091380230913902C6
:1009400028173907B9F49091370280913602981729
:1009500089F0E0913702F0E0EA50FE4F808120916B
:10096000370230E02F5F3F4F2F733327209337023A
:1009700090E008958FEF9FEF08950F931F93CF930B
:10098000DF93EC010E940304688779878A879B873D
:10099000CE010E949C0497FF15C00E9403040885A5
:1009A00019852A853B85601B710B820B930B0C818B
:1009B0001D812E813F81601771078207930740F3E5
:1009C0008FEF9FEFDF91CF911F910F910895E091ED
:1009D0003802F0913902E817F90769F4A389B4895C
:1009E0009C918589809589238C931092390210926D
:1009F000380281E0089580E00895CF93DF93EC0101
:100A00008A8D9B8D892B01F180913802909139025A
:100A10008C179D07C9F0009711F00E94E7048E8D96
:100A20008E7F8E8F1092360210923702D093390249
:100A3000C0933802EB89FC8980819D89892B808352
:100A400081E0DF91CF91089580E0FBCFCF93DF93DA
:100A5000EC019A01AB011B8E1A8E198E188E1F8A1B
:100A60001E8A60E079E08DE390E00E94D815C9010C
:100A700003979D8F8C8F6C85663108F047C0C90144
:100A80009695879543979F8B8E8BC9010597998F74
:100A9000888FC901880F991F280F391F3695279510
:100AA000369527952C5031093B8F2A8F90916800FD
:100AB00084E0683048F021E06E3008F420E081E006
:100AC00001C0880F2A95EAF7892B809368009C85DE
:100AD0002DE630E0983050F02BE630E09E3030F0DC
:100AE0002CE630E0963110F030E020E03C8B2B8B90
:100AF000292F30E0983078F481E001C0880F9A9572
:100B0000EAF78D8B8C8D9D8D0197F1F7CE01DF91EA
:100B1000CF910C94FD049E3040F42850310981E0BF
:100B200001C0880F2A95EAF7ECCF2E503109F7CF94
:100B30000895FC0183858F3F19F061E00C94C0019A
:100B40000895FC0180819181892B39F0A281B381C4
:100B50009C9111968C919CBD8DBD83858F3F19F022
:100B600060E00C94C0010895AF92BF92CF92DF92E3
:100B7000EF92FF920F931F93CF93DF93EC01888145
:100B80009981892B89F06EBD0DB407FEFDCFBEB4EF
:100B90008B2DDF91CF911F910F91FF90EF90DF9000
:100BA000CF90BF90AF9008958885998511E0892BEB
:100BB00009F010E8AA24A394862F812309F0A12C20
:100BC000062F2C813D814E815F8160E271EA87E0D2
:100BD00090E00E94B615F22EB02EE12CC22ED12C40
:100BE000FF2019F0C6010E94A6008A85877F09F0C0
:100BF00042C08D858F3F89F0902F912381E009F4C9
:100C000080E08A1551F0EF85F8898F89992369F181
:100C10009081892B8083AA24A394E989FA89808111
:100C2000998D892B8083FF2019F0C6010E94A600B0
:100C30008E858F3F39F0EB89FC898081988D8923DF
:100C400009F0E12AE989FA899081898D80958923C3
:100C500080838E858F3F09F0BE2C88859985892BEE
:100C6000B9F5110F1111BCCF93CF908180958923D5
:100C70008083A12CD2CFE989FA898081998D892B33
:100C80008083FF2019F0C6010E94A6008D858F3F4A
:100C900049F0EF85F8898F89902F9123A9F09081F1
:100CA000892B8083E989FA899081898D80958923B0
:100CB00080838E858F3F69F2EB89FC898081988DD6
:100CC000892339F2E12AC5CF908180958923E9CF24
:100CD0001695C8CF8F929F92AF92BF92CF92DF921C
:100CE000EF92FF920F931F93CF93DF937C014B0101
:100CF0006A01B22EA32E0E94A105E401C80CD91CE2
:100D0000CC15DD0569F4CB2DDA2D0C0F1D1FC01796
:100D1000D10759F06FEFC7010E94B4058993F7CF4F
:100D20006991C7010E94B405EBCFC7010E949905E4
:100D300081E0DF91CF911F910F91FF90EF90DF90B5
:100D4000CF90BF90AF909F908F9008958F929F9279
:100D5000AF92BF92CF92DF92EF92FF920F931F93C9
:100D6000CF93DF937C01B62EA72E6A0149010E9422
:100D7000A105E401080D191DC017D10761F4CB2DA1
:100D8000DA2DCC0EDD1ECC15DD0551F06991C701C1
:100D90000E94B405F8CF6991C7010E94B405ECCF59
:100DA000C7010E94990581E0DF91CF911F910F91BA
:100DB000FF90EF90DF90CF90BF90AF909F908F907B
:100DC00008952091B301260F3327331F21323105B7
:100DD000ECF42091BC02FC0190E080E0243069F04A
:100DE00082E00895A091B3012191AC014D565E4F70
:100DF000A40FB52FB11D2C930196861798F38091FF
:100E0000B301680F6093B30180E0089581E0089515
:100E10001092BC0281E08093BB021092960261E0C6
:100E200082E10E94C00161E083E10E94C001E9EB20
:100E3000F0E080818E7F808380818D7F808388E455
:100E40008093B80085E48093BC00089510929502C9
:100E5000109294021092C3021092E5020E940807B9
:100E600081EB90E0909393028093920282EB90E06A
:100E700090939102809390020895CF93DF9391E035
:100E8000909392018823B9F0C091B800D091BA0034
:100E90008091BC008A7B8093BC0060E082E10E946C
:100EA000C00160E083E10E94C0010E940807D09366
:100EB000BA00C093B800DF91CF9108958F929F92AE
:100EC000AF92BF92CF92DF92EF92FF920F931F9358
:100ED000CF93DF93D091E502D13208F0D7C0182F1D
:100EE000C091E4020E94AC036B017C018091BC02C2
:100EF00081116BC082E08093BC021093BB028FEF24
:100F00008093BA021092B902D093B802A4ECB2E076
:100F1000E8E9F2E080E0D81391C010929702809146
:100F20009702CC0FC82BC093970280919602813014
:100F300009F088C0109296020E94AC036B017C01FC
:100F4000809197028093BB008091BE029091BF0276
:100F5000A091C002B091C102892B8A2B8B2BA1F0EA
:100F60000E94AC030091BE021091BF022091C0020A
:100F70003091C1026C197D098E099F090617170768
:100F80002807390708F442C08091BC0083FDD8CF00
:100F900085EC8093BC000E94AC036B017C018091C6
:100FA000BC02823009F450C08091BA028F3F09F42C
:100FB0006FC08091BA02803209F46CC08091BA028D
:100FC000803309F469C084E026C08091BE0290910C
:100FD000BF02A091C002B091C102892B8A2B8B2B3A
:100FE00009F484CF0E94AC038090BE029090BF02AF
:100FF000A090C002B090C1026C197D098E099F09B2
:1010000086169706A806B90608F070CF8091BD0233
:101010000E943D0785E01092C3021092E5021092F3
:10102000C202DF91CF911F910F91FF90EF90DF905F
:10103000CF90BF90AF909F908F9008959D91919386
:101040008F5F69CF85EEA5CF8091BE029091BF02E0
:10105000A091C002B091C102892B8A2B8B2B09F47D
:101060009ECF0E94AC030091BE021091BF0220915E
:10107000C0023091C1026C197D098E099F090617C3
:1010800017072807390708F08ACFC0CF81E0C3CF00
:1010900080E0C1CF82E0BFCF83E0BDCF1F93CF936D
:1010A000DF93EA01122FDC0111968D919C91DC01F6
:1010B000ED91FC910280F381E02D0995C817D907C5
:1010C00029F4812F0E945E0791E0811190E0892F21
:1010D000DF91CF911F910895CF93DF93EC018B8126
:1010E0008823A1F0888191E09093C2028093E4026A
:1010F0001092C3021092E50281E00E945E0791E027
:10110000811190E0892FDF91CF9108950E942607E9
:1011100081E08B83CE010E946C08982F8111E2CF71
:10112000F1CFE091950280919402E81730F4F0E05D
:10113000EA52FE4F808190E008958FEF9FEF08956F
:1011400090919502809194022FEF3FEF981748F409
:10115000E92FF0E0EA52FE4F208130E09F5F90934C
:101160009502C90108958091940290919502891B7E
:10117000990B0895CF92DF92EF92FF920F931F93F6
:10118000CF93DF937C01CB018A012091C2022223FD
:1011900089F0EB016B01C40ED51ECC15DD0569F09D
:1011A0006991D701ED91FC910190F081E02DC7018B
:1011B0000995F3CF642F0E94E106C801DF91CF911A
:1011C0001F910F91FF90EF90DF90CF900895CF93F4
:1011D000DF931F92CDB7DEB769832091C20222232D
:1011E000F9F02091E502203258F021E030E0FC01D6
:1011F0003383228390E080E00F90DF91CF910895B8
:101200008091C302E82FF0E0EC53FD4F9981908369
:101210008F5F8093C3028093E50281E090E0ECCF82
:1012200061E0CE0101960E94E106F7CFFC01248126
:1012300031E03093C2022093E4021092C302109274
:10124000E5028385682B83E893E00E94E70881E04C
:101250000C945E0790E080E008950F931F93CF9366
:101260008C01C62F0E9416096C2F6460C8010E9471
:1012700016096C2F6B7FC8010E94160983EC90E061
:101280000197F1F7CF911F910F9108950F931F933D
:10129000CF93DF938C01D62FC42F607F642B0E94E5
:1012A0002D0980E1D89FB00111246C2BC801DF917A
:1012B000CF911F910F910C942D0940E061E08DECCE
:1012C00093E00E9446098BE39FE10197F1F70895AF
:1012D000CF93DF93CDB7DEB728970FB6F894DEBF74
:1012E0000FBECDBF98E0E7E0F1E0DE01119601907E
:1012F0000D929A95E1F79091D503961708F46FEF48
:10130000262F30E0220F331F41E050E04C0F5D1FCD
:10131000240F351FF9016081680F606840E08DEC93
:1013200093E028960FB6F894DEBF0FBECDBFDF91D5
:10133000CF910C94460941E00E94460981E090E07B
:1013400008952F923F924F925F926F927F928F9269
:101350009F92AF92BF92CF92DF92EF92FF920F9344
:101360001F93CF93DF9300D000D01F92CDB7DEB78D
:101370007C01DC0118960C914C01BBE08B0E911C9A
:10138000FC019681878199838A8320803180211492
:10139000310409F424C1418550E0D10114968D91A6
:1013A0009C9115978417950708F46CC18C9191E076
:1013B0009093C2028093E4021092C3021092E5025D
:1013C00020E0BE016F5F7F4FC1010E944E0888235D
:1013D00009F458C1E02FF0E0FC83EB83B12CA12C81
:1013E00001E08B819C81A816B90608F018C1D101D3
:1013F00014968D919C91CB80DC80CA18DB088C15EB
:101400009D0508F46C01F101F081FD830E94AC039D
:101410002B013C018091BC02811172C01C2D113244
:1014200008F010E20093BC0221E08B819C818C19B2
:101430009D09A816B90608F420E02093BB028FEF9F
:101440008093BA021092B902810F8093B802009380
:101450009702909197028D81880F892B8093970234
:1014600080919602813009F091C0109296020E94FC
:10147000AC032B013C01809197028093BB008091CB
:10148000BE029091BF02A091C002B091C102892B0F
:101490008A2B8B2BA1F00E94AC032091BE023091CD
:1014A000BF024091C0025091C102641975098609BA
:1014B0009709261737074807590708F442C0809153
:1014C000BC0083FDD8CF95EC9093BC000E94AC0388
:1014D0002B013C018091BC02813009F45BC08091FA
:1014E000B902811710F41091B902E8E9F2E0A6ED13
:1014F000B1E080E0811751F191919D938F5FFACF18
:101500008091BE029091BF02A091C002B091C10231
:10151000892B8A2B8B2B09F47DCF0E94AC03209161
:10152000BE023091BF024091C0025091C1026419C5
:10153000750986099709261737074807590708F0DC
:1015400069CF8091BD020E943D0710E01092950284
:10155000109394021C151D0409F094C034016A0C08
:101560007B1C2301C201861997098C159D05A0F5E6
:10157000F10181819281DC01ED91FC910284F3857E
:10158000E02D0995F20181932F01ECCFA5EEA093F8
:10159000BC009CCF8091BE029091BF02A091C0027E
:1015A000B091C102892B8A2B8B2B09F493CF0E9417
:1015B000AC032091BE023091BF024091C002509115
:1015C000C102641975098609970926173707480764
:1015D000590708F07FCFB5CFAC0CBD1C02CFD701A7
:1015E0000280F381E02D309709F44CC014962D91C0
:1015F0003C91159710E019964C9150E0233031053D
:1016000061F5816089839A834F5F5F4F9401BE01CA
:101610006F5F7F4FCF010E946A06882399F1F7011F
:10162000408550E030E020E060E070E0CB0124171E
:1016300035075CF5982F872F762F6627D7011A96E6
:10164000EC91E1111AC0FA01E21BF30BEE0DFF1D44
:10165000E2856E2B2F5F3F4FEACF2115310519F43C
:1016600090689983D3CF2230310511F49F77F9CF59
:101670002130310559F6906CF4CFF701E20FF31FDA
:10168000E385E7CF6FEF7FEFCB010F900F900F90C7
:101690000F900F90DF91CF911F910F91FF90EF90DE
:1016A000DF90CF90BF90AF909F908F907F906F9082
:1016B0005F904F903F902F9008951F93CF93DF93AB
:1016C000CDB7DEB763970FB6F894DEBF0FBECDBFC0
:1016D000182F61E0883008F460E089E00E948E00F5
:1016E0004091DB035091DC032091D9033091DA0360
:1016F000188A198A1A8A1B8A5C834B833A83298346
:1017000023E030E03E832D8321E02A8798878F8372
:101710001B862987CE0101960E94A1091770DC0162
:10172000CB0104C0B695A795979587951A95D2F7E2
:10173000817063960FB6F894DEBF0FBECDBFDF9108
:10174000CF911F9108957F928F929F92AF92BF92F7
:10175000CF92DF92EF92FF920F931F93CF93DF937D
:1017600000D0CDB7DEB78C016A017B01DC018D9121
:101770009C910E94A1094B015C01F80120813181FB
:10178000D90118967C90B4E0B71508F473C0828133
:1017900041E050E002C0440F551F8A95E2F74150E6
:1017A0005109052E000C660B770BF381DB01CA0192
:1017B0000F2E04C0880F991FAA1FBB1F0A94D2F7CF
:1017C00080959095A095B09588229922AA22BB2257
:1017D000DB01CA018C219D21AE21BF2104C0880FED
:1017E000991FAA1FBB1FFA95D2F788299929AA2900
:1017F000BB29F9018787908BA18BB28B50E040E029
:10180000E72CF12C4E155F05ACF4F90162856111EE
:101810000AC0E40FF51F8387892F9A2FAB2FBB27B0
:101820004F5F5F4FEFCFF701E41BF50BE20FF31FA4
:101830008287F2CF6901FBE0CF0ED11CD901169649
:101840009C91169717968C91179799838A83AD90E0
:10185000BC901197A114B10409F442C019960C91DF
:1018600010E098012E0D3F1DF501848195818217AE
:10187000930710F480E015C081819281208131E0CE
:101880003093C2022093E4021092C3021092E50248
:1018900001151105B1F421E0A701B601C5010E94AF
:1018A0004E080F900F90DF91CF911F910F91FF90F5
:1018B000EF90DF90CF90BF90AF909F908F907F90F0
:1018C0000895DC01ED91FC910280F381E02DA801E7
:1018D000BE016F5F7F4F09950817190759F6DBCFD7
:1018E0001296ED91FC911397309721F214964D9139
:1018F0005C91159719960C9110E04330510571F4E5
:101900008E7F89839A830F5F1F4F9E012F5F3F4F0A
:10191000A701B601CF010E94A606C3CF411551050C
:1019200019F49F779983F1CF4230510511F49068F3
:10193000F9CF4130510549F79F779064F3CF0F936A
:101940001F93CF93DF93CDB7DEB767970FB6F894A9
:10195000DEBF0FBECDBF182F062F61E0883008F420
:1019600060E089E00E948E004091DB035091DC032F
:101970002091D9033091DA03188A198A1A8A1B8AAE
:101980005C834B833A83298323E030E03E832D83BD
:1019900021E02A8798878F831B862987CE010196AD
:1019A0009D8B8C8B2E8B17701F8B41E050E060E07D
:1019B00070E0011103C040E050E0BA01CE0144964E
:1019C0000E94A30B67960FB6F894DEBF0FBECDBF83
:1019D000DF91CF911F910F9108958F929F92AF92B7
:1019E000BF92CF92DF92EF92FF920F931F93CF930C
:1019F000DF93CDB7DEB7AE970FB6F894DEBF0FBE5C
:101A0000CDBF082FE62EFF24F394883008F4F12C84
:101A10006F2D80E00E948E008090DB039090DC03AD
:101A2000A090D903B090DA031BA21CA21DA21EA293
:101A30009F8A8E8ABD8AAC8A23E0C22ED12CD98E91
:101A4000C88E11E01D8F9B8F8A8F1E8E1C8F6F2D6D
:101A500086E00E948E00188A198A1A8A1B8A9C8244
:101A60008B82BA82A982DE82CD821A8798878F8381
:101A70001B8619870770CE0144969CA78BA71DA7CC
:101A80000EA7439798A78FA319A70AA741E050E094
:101A900060E070E081E0E81203C040E050E0BA018D
:101AA000CE018B960E94A30B41E050E060E070E015
:101AB00082E0E81619F040E050E0BA01CE018796C6
:101AC0000E94A30BAE960FB6F894DEBF0FBECDBF3B
:101AD000DF91CF911F910F91FF90EF90DF90CF900A
:101AE000BF90AF909F908F900895FB0101900020D0
:101AF000E9F73197AF01461B570BDC01ED91FC91E3
:101B00000280F381E02D099485ED8093BC008091E3
:101B1000BE029091BF02A091C002B091C10207968F
:101B2000A11DB11D23E0B695A795979587952A9598
:101B3000D1F72091BC0024FD03C01092BC0208958F
:101B40004091BE025091BF026091C0027091C102EB
:101B5000452B462B472B69F30097A105B10541F0B2
:101B600025E32A95F1F700000197A109B109E1CF1A
:101B70008091BD020C943D071F920F920FB60F92F9
:101B800011242F933F934F935F936F937F938F9382
:101B90009F93AF93BF93EF93FF93809184029091B3
:101BA0008502A0918602B0918702892B8A2B8B2B0C
:101BB000D1F190917F02E0918002F09181028081C9
:101BC000892780838091840290918502A09186026A
:101BD000B0918702181619061A061B069CF480910C
:101BE000840290918502A0918602B09187020197AC
:101BF000A109B1098093840290938502A093860283
:101C0000B0938702FF91EF91BF91AF919F918F9118
:101C10007F916F915F914F913F912F910F900FBEE8
:101C20000F901F901895809100010E940C02EACF3E
:101C30001F920F920FB60F9211242F933F934F9341
:101C40005F936F937F938F939F93AF93BF93EF9324
:101C5000FF9386EE92E00E943101FF91EF91BF91D8
:101C6000AF919F918F917F916F915F914F913F9134
:101C70002F910F900FBE0F901F9018951F920F92EB
:101C80000FB60F9211242F938F939F93EF93FF938F
:101C9000E091F602F091F7028081E091FC02F09170
:101CA000FD0282FD1BC090818091FF028F5F8F73C8
:101CB00020910003821741F0E091FF02F0E0EA5129
:101CC000FD4F958F8093FF02FF91EF919F918F9130
:101CD0002F910F900FBE0F901F9018958081F4CF19
:101CE0001F920F920FB60F9211242F933F938F9351
:101CF0009F93AF93BF9380913B0290913C02A09140
:101D00003D02B0913E0230913A0223E0230F2D377D
:101D100058F50196A11DB11D20933A0280933B0214
:101D200090933C02A0933D02B0933E0280913F020B
:101D300090914002A0914102B09142020196A11DF2
:101D4000B11D80933F0290934002A0934102B09353
:101D50004202BF91AF919F918F913F912F910F9030
:101D60000FBE0F901F90189526E8230F0296A11D15
:101D7000B11DD2CF1F920F920FB60F9211242F9345
:101D80003F934F935F936F937F938F939F93AF9303
:101D9000BF93EF93FF93E0913802F09139023097AF
:101DA00049F0A685B7858585968D91FF14C09C91D5
:101DB0008923A1F4FF91EF91BF91AF919F918F91F2
:101DC0007F916F915F914F913F912F910F900FBE37
:101DD0000F901F9018959C91892361F7A389B4896E
:101DE0009C918589809589238C9386899789019711
:101DF000F1F7608D718DA685B785558538E020E0B7
:101E0000CB010197F1F7822F90E095958795282FC8
:101E10004C91452309F02068315091F7868D81FD62
:101E200020958091360290E001968F73992730912A
:101E30003702381799F0A0913602B0E0AA50BE4F91
:101E40002C9380933602828D938D0197F1F7A389AD
:101E5000B4898C919589892B8C93ACCF868D8160C8
:101E6000868FF1CF1F920F920FB60F9211242F93EE
:101E70003F934F935F936F937F938F939F93AF9312
:101E8000BF93EF93FF938091B900887F803609F468
:101E90004AC0F0F5883209F4A7C018F5803109F47A
:101EA0009BC0B8F4882309F4F9C0883009F494C0C1
:101EB000FF91EF91BF91AF919F918F917F916F9122
:101EC0005F914F913F912F910F900FBE0F901F90F8
:101ED0001895883109F488C0803251F78093BA028E
:101EE00014C0803409F49DC040F48033B9F38833C2
:101EF000F9F68093BA0285ECB0C0803509F485C04C
:101F0000883509F496C0883499F60E94840DD0CFA4
:101F1000883909F48CC038F5883729F050F48836B0
:101F200011F0803729F683E08093BC021092D5012E
:101F300057C0883809F47BC0803919F0803809F01F
:101F4000B7CF8091D501803208F071C0E091D50102
:101F500081E08E0F8093D5018091BB00F0E0EB54BF
:101F6000FE4F80833DC0803B39F0E0F4803A09F4B5
:101F700079C0883A09F09CCF84E08093BC0210922B
:101F8000B4011092B301E0919202F091930209958D
:101F90008091B30181110FC081E08093B301109251
:101FA000930109C0803C09F4A6CF883C09F4A3CF73
:101FB000883B09F07DCFE091B40181E08E0F8093E2
:101FC000B401F0E0ED56FE4F80818093BB0090910C
:101FD000B4018091B30129C0809197028093BB0026
:101FE00085EC8093BC0064CF9091B9028091B802D7
:101FF000981758F5E091B90281E08E0F8093B902ED
:10200000F0E0E856FD4F8081E9CFE091B90281E030
:102010008E0F8093B9028091BB00F0E0E856FD4F2F
:1020200080839091B9028091B8029817C8F285E830
:10203000D8CFE091B90281E08E0F8093B9028091F0
:10204000BB00F0E0E856FD4F80838091BB02811118
:102050005CCF81E08093960284EA8093BC0010926A
:10206000BC0226CF85EC8093BC001092BC0280910C
:10207000D501803230F4E091D501F0E0EB54FE4F11
:1020800010826091D50170E0E0919002F091910290
:1020900085EB91E009951092D5010ACF1092BA0212
:1020A00034CFE6EEF2E01382128288EE93E0A0E0F5
:1020B000B0E084839583A683B78325E431E0318340
:1020C000208325EC30E03587248724EC30E0378707
:1020D000268720EC30E0318B208B21EC30E0338BF5
:1020E000228B22EC30E0358B248B26EC30E0378BD2
:1020F000268B118E128E138E148EE3E8F3E013827A
:10210000128284839583A683B78387E591E09183C8
:102110008083E9EDF3E0118210821382128280E164
:102120008483EDECF3E01382128229E631E03183FF
:10213000208397E29483818782E08287138643E03D
:1021400062E08EEA93E00E94690245E066E08FE873
:1021500093E00C946902CF93DF93CDB7DEB762971B
:102160000FB6F894DEBF0FBECDBF789484B5826001
:1021700084BD84B5816084BD85B5826085BD85B52B
:10218000816085BD80916E00816080936E001092A9
:102190008100809181008260809381008091810024
:1021A00081608093810080918000816080938000B5
:1021B0008091B10084608093B1008091B000816013
:1021C0008093B00080917A00846080937A0080913F
:1021D0007A00826080937A0080917A008160809397
:1021E0007A0080917A00806880937A001092C10012
:1021F00086E090E00E9411168C0180E2D8018C9359
:1022000083E893E012969C938E93119713961C92F9
:10221000139780E290E015969C938E9314971093F9
:10222000DA030093D9030E94260781E0F801838333
:10223000C8010E946C080E9426071092D203809168
:10224000D703823018F098E09093D2038093D5039F
:1022500062E370E080E090E00E94D1036091D803D7
:102260008DEC93E00E94160968EE73E080E090E048
:102270000E94D10360E38DEC93E00E942D090BE4F2
:1022800016E4C8010197F1F760E38DEC93E00E943A
:102290002D09C8010197F1F760E38DEC93E00E94EE
:1022A0002D0983E592E00197F1F760E28DEC93E070
:1022B0000E942D096091D203606240E08DEC93E0B2
:1022C0000E94460984E08093D30340E06CE08DECEB
:1022D00093E00E9446090E945D0912E01093D40326
:1022E00040E066E08DEC93E00E94460940E062E049
:1022F0008DEC93E00E9446098BE39FE10197F1F793
:1023000088E08093D80360E08DEC93E00E9416098A
:1023100060E080E00E94680961E771E08DEC93E085
:102320000E94750D40E855E260E070E08EEA93E0AF
:102330000E94260540EC52E160E070E08FE893E0F7
:102340000E942605E091F602F091F7021083E091D9
:10235000F202F091F3021082E091F402F091F502A2
:102360008FEC80831092FE02E091FA02F091FB0262
:1023700086E08083E091F802F091F902808180612B
:102380008083E091F802F091F90280818860808377
:10239000E091F802F091F902808180688083E091F9
:1023A000F802F091F90280818F7D808361E771E00E
:1023B00086EE92E00E94750D69E771E086EE92E08C
:1023C0000E94750D61E08DE00E94380262E080E0BD
:1023D0000E94ED0C61E081E00E94ED0C62E088E07B
:1023E0000E94ED0C61E089E00E94ED0C62E082E069
:1023F0000E94ED0C61E083E00E94ED0C62E08AE057
:102400000E94ED0C61E08BE00E94ED0C62E084E044
:102410000E94ED0C61E085E00E94ED0C62E08CE032
:102420000E94ED0C61E08DE00E94ED0C6CE771E024
:1024300086EE92E00E94750D69E771E086EE92E00B
:102440000E94750D0E945D098FE893E00E94FD04D3
:1024500010924D0281E080937E0280910F01909155
:102460001001A0911101B09112018F87988BA98B57
:10247000BA8B409013015090140160901501709038
:1024800016019EE7292E92E0392E80901701909038
:102490001801A0901901B0901A0120E0C22E20E08E
:1024A000D22E80917E0281116DC00E945D0B811140
:1024B00020C00E9403040091430210914402209125
:1024C000450230914602601B710B820B930B633304
:1024D00071058105910568F0809147028F5F8093B7
:1024E000470280914C02811199C181E080934C0296
:1024F00097C189E00E940C0288E00E945D0B88234E
:1025000009F4A1C189E00E940C0282E00E945D0BE7
:10251000882309F4D6C189E00E940C028AE00E9457
:102520005D0B882309F422C289E00E940C0284E03A
:102530000E945D0B882309F450C289E00E940C02BE
:102540008CE00E945D0B882309F47EC289E00E9422
:102550000C0260914C0281E00E949F0C60914B0242
:1025600083E00E949F0C60914A028BE00E949F0CC6
:102570006091490285E00E949F0C609148028DE0C5
:102580000E949F0C8FE893E00E948404892BC1F085
:1025900061E08DE00E94C0010BE512E08FE893E05E
:1025A0000E94BD0497FD09C08731910531F0D80123
:1025B0008D938D012A163B0689F781E080935A029C
:1025C0008EEA93E00E948404892B91F00FE412E0DC
:1025D0008EEA93E00E94BD0497FD07C0F801819345
:1025E0008F01F2E009351F0799F781E080934E02D1
:1025F00080914E02882309F44BC00E94CE0264E60B
:1026000070E080E090E00E94D10389E00E940C021B
:102610008FE893E00E94FD0410924D028EE0EBE102
:10262000F1E0DE01119601900D928A95E1F78FE4B9
:10263000E82E82E0F82EFE0133968701D8018D91B5
:102640008D01819389E592E08A179B07B9F70E9473
:102650005D09D7016D917D018DEC93E00E949B098E
:10266000E016F106B1F761E080E00E94680962E8D7
:1026700071E08DEC93E00E94750D4EE050E0BE01DC
:102680006F5F7F4F8FE893E00E94B30010924E027D
:1026900080915A02882309F430C280915C0285300F
:1026A00009F05DC060E081E00E949F0C60E089E07D
:1026B0000E949F0C60E083E00E949F0C60E08BE032
:1026C0000E949F0C60E085E00E949F0C60E08DE01E
:1026D0000E949F0C0E94CE0264E670E080E090E0D1
:1026E0000E94D10389E00E940C0210924C021092C9
:1026F0004B0210924A021092490210924802109224
:10270000470210927E020E945D0910925A021092B6
:102710007E028FE893E00E94FD0410924D028982B0
:102720009A82AB82BC8244E050E0BE016F5F7F4F73
:102730008FE893E00E94B30060E080E00E946809A7
:1027400069E871E08DEC93E00E94750D10925A02D9
:102750008EEA93E00E94FD0481E080934D02809117
:102760005C02823161F58FE893E00E94FD041092D3
:102770004D0286E0E9E2F1E0DE01119601900D9252
:102780008A95E1F780914C02882311F0BFEFBB835B
:1027900080914B02882309F48EC1E1E3EC8346E08B
:1027A00050E0BE016F5F7F4F8FE893E00E94B3005F
:1027B00010927E0210925A0281E080937E028091F4
:1027C0005C02893109F091C10E945D0960E080E0FE
:1027D0000E946809F12C0F2D10E0035A1D4FF801DB
:1027E0008081833009F47FC1FFE0FF1558F461E078
:1027F00080EF8F0D0E946809D8016C918DEC93E0F9
:102800000E949B0960E08F2D0E946809F801608199
:102810008DEC93E00E949B09F394DDCF10924C0263
:102820000E94030460934302709344028093450224
:10283000909346020E94CE0268EC70E080E090E047
:102840000E94D10359CE0E940304009143021091CB
:1028500044022091450230914602601B710B820BAD
:10286000930B633371058105910508F44BCE0E94EB
:10287000CE0261E089E00E949F0C8FE893E00E9405
:10288000FD0449825A826B827C8244E050E0BE01A2
:102890006F5F7F4F8FE893E00E94B30080914D02FD
:1028A000882321F08EEA93E00E94FD0468EC70E03A
:1028B00080E090E00E94D10360E089E00E949F0CDC
:1028C00024CE0E94030400914302109144022091FF
:1028D000450230914602601B710B820B930B6333F0
:1028E00071058105910508F416CE809147028A3062
:1028F000D0F081E080937E02109247028FE893E04F
:102900000E94FD048F859889A989BA8989839A8351
:10291000AB83BC8344E050E0BE016F5F7F4F8FE824
:1029200093E00E94B30080914B028823A9F010929B
:102930004B020E940304609343027093440280930D
:102940004502909346020E94CE0268EC70E080E05F
:1029500090E00E94D103E2CD81E080934B0210927F
:102960004A021092490210924802E3CF0E940304E7
:102970000091430210914402209145023091460299
:10298000601B710B820B930B6333710581059105FD
:1029900008F4CACD80914A028823A9F010924A0215
:1029A0000E940304609343027093440280934502A3
:1029B000909346020E94CE0268EC70E080E090E0C6
:1029C0000E94D103B4CD10924B0281E080934A0261
:1029D0001092490210924802E3CF0E940304009132
:1029E0004302109144022091450230914602601B3F
:1029F000710B820B930B633371058105910508F40C
:102A00009CCD809149028823A9F0109249020E942E
:102A100003046093430270934402809345029093B1
:102A200046020E94CE0268EC70E080E090E00E94D6
:102A3000D10386CD10924B0210924A0281E080931E
:102A4000490210924802E3CF0E940304009143021E
:102A5000109144022091450230914602601B710B97
:102A6000820B930B633371058105910508F46ECDDC
:102A7000809148028823A9F0109248020E94030422
:102A80006093430270934402809345029093460200
:102A90000E94CE0268EC70E080E090E00E94D103DA
:102AA00058CD10924B0210924A021092490281E0D6
:102AB00080934802E3CF80914A02882319F0F2E321
:102AC000FC836DCE80914902882319F083E38C83C7
:102AD00066CE80914802882319F094E39C835FCEF0
:102AE000A0E3AC835CCE10927E0280915C028630C3
:102AF00081F410927E0210925A02C114D10409F49A
:102B0000D0CC0E941D01882309F4CBCC0E94000088
:102B1000C8CC853171F3EFCFCF93DF93C3E3D1E01E
:102B2000D0939003C0938F038FE893E00E94E70453
:102B3000D093AF03C093AE038EEA93E0DF91CF91C1
:102B40000C94E70497FB072E16F4009407D077FD4A
:102B500009D00E94F71507FC05D03EF490958195A9
:102B60009F4F0895709561957F4F0895A1E21A2EA9
:102B7000AA1BBB1BFD010DC0AA1FBB1FEE1FFF1F21
:102B8000A217B307E407F50720F0A21BB30BE40B71
:102B9000F50B661F771F881F991F1A9469F76095B8
:102BA0007095809590959B01AC01BD01CF01089572
:102BB000052E97FB1EF400940E94EF1557FD07D0D9
:102BC0000E94B61507FC03D04EF40C94EF155095F7
:102BD0004095309521953F4F4F4F5F4F0895909509
:102BE0008095709561957F4F8F4F9F4F0895AA1BD9
:102BF000BB1B51E107C0AA1FBB1FA617B70710F0E8
:102C0000A61BB70B881F991F5A95A9F78095909519
:102C1000BC01CD010895EE0FFF1F0590F491E02D4A
:102C200009940F931F93CF93DF938230910510F493
:102C300082E090E0E091E503F091E60330E020E0EF
:102C4000B0E0A0E0309799F42115310509F44AC0AD
:102C5000281B390B24303105D8F58A819B816115F9
:102C6000710589F1FB0193838283FE0111C04081CC
:102C700051810281138148175907E0F0481759071D
:102C800099F4109761F012960C93129713961C9377
:102C90003296CF01DF91CF911F910F91089500934C
:102CA000E5031093E603F4CF2115310551F04217E7
:102CB000530738F0A901DB019A01BD01DF01F801DA
:102CC000C1CFEF01F9CF9093E6038093E503CDCF19
:102CD000FE01E20FF31F8193919322503109398352
:102CE0002883D7CF2091E3033091E403232B41F4D1
:102CF00020910301309104013093E4032093E30316
:102D000020910101309102012115310541F42DB7C7
:102D10003EB74091050150910601241B350BE0910F
:102D2000E303F091E403E217F307A0F42E1B3F0B3B
:102D30002817390778F0AC014E5F5F4F241735072D
:102D400048F04E0F5F1F5093E4034093E3038193D9
:102D500091939FCFF0E0E0E09CCFCF93DF9300977B
:102D6000E9F0FC01329713821282A091E503B09141
:102D7000E603ED0130E020E01097A1F420813181DD
:102D8000820F931F2091E3033091E4032817390742
:102D900009F061C0F093E403E093E303DF91CF9186
:102DA0000895EA01CE17DF07E8F54A815B819E01AD
:102DB00041155105B1F7E901FB83EA834991599126
:102DC000C40FD51FEC17FD0761F480819181029635
:102DD000840F951FE90199838883828193819B8366
:102DE0008A83F0E0E0E012968D919C911397009712
:102DF000B9F52D913C911197CD010296820F931F49
:102E00002091E3033091E4032817390739F630970E
:102E100051F51092E6031092E503B093E403A093FA
:102E2000E303BCCFD383C28340815181840F951FBC
:102E3000C817D90761F44E5F5F4F88819981480FA9
:102E4000591F518340838A819B81938382832115FB
:102E5000310509F0B0CFF093E603E093E5039ECF90
:102E6000FD01DC01C0CF13821282D7CF10E0C3E690
:102E7000D0E004C0FE010E940B162196C436D10793
:062E8000C9F7F894FFCF32
:102E8600FF0000E703800000004000140054000229
:102E96001403170216031702060317021100000097
:102EA60000000000000000031702130000031700D3
:102EB6000000002804B3002A09270484049C040F98
:102EC60004000000005301B300E000A0011101EF6F
:102ED60000030100000000E708BA082A092704B326
:102EE60008A0089108000000009B09B3002A099871
:102EF60005494E49542E2E2E000D0A0052454144D6
:102F060059005441474745440052454144592121FF
:022F1600210098
:00000001FF
