:100000000C94E0000C9408010C9408010C948D14DD
:100010000C948D140C948D140C9408010C9408010C
:100020000C9408010C9408010C9408010C9408012C
:100030000C9408010C9408010C9408010C9408011C
:100040000C9443140C9408010C9411140C94EB13AD
:100050000C9408010C9408010C9408010C940801FC
:100060000C9405150C94080100407A10F35A00A076
:10007000724E18090010A5D4E80000E87648170071
:1000800000E40B54020000CA9A3B000000E1F505B1
:10009000000080969800000040420F000000A086FB
:1000A00001000000102700000000E803000000002D
:1000B0006400000000000A000000000001000000D1
:1000C00000002C76D888DC674F0823DFC1DFAE59EB
:1000D000E1B1B796E5E3E453C63AE651997696E87E
:1000E000E6C28426EB898C9B62ED407C6FFCEFBC02
:1000F0009C9F40F2BAA56FA5F490055A2AF75C932D
:100100006B6CF9676DC11BFCE0E40D47FEF520E662
:10011000B500D0ED902E0300943577050080841E45
:10012000080000204E0A000000C80C333333330FA0
:10013000986E12831141EF8D2114893BE65516CF3D
:10014000FEE6DB18D1844B381BF77C1D901DA4BB49
:10015000E424203284725E228100C9F124ECA1E5FE
:100160003D2700000000240027002A0000000008AE
:10017000000201000003040700000000000000006E
:1001800000000000230026002900000000002500D8
:1001900028002B00040404040404040402020202E4
:1001A000020203030303030301020408102040803A
:1001B0000102040810200102040810202416C918A6
:1001C00011241FBECFEFD8E0DEBFCDBF24E0A6E5EF
:1001D000B2E001C01D92A937B207E1F712E0A0E03A
:1001E000B1E0E2EFFDE302C005900D92A635B10744
:1001F000D9F710E0CFEDD0E004C02197FE010E94B6
:10020000C11DCE3DD107C9F70E9406170C94EC1E04
:100210000C94000090E020916F04293018F0880FB2
:10022000991F862B20916D0430916E04232B49F089
:100230002091700430E0322F2227330F3064822B5C
:10024000932B08958091590490915A04892B59F168
:10025000E0914403F091450384E0EF33F80719F18E
:10026000309739F0A389B4899C9185898095892339
:100270008C9380915D048E7F80935D041092430384
:10028000109242038FE394E09093450380934403DC
:10029000E0915204F0915304808190915404892B91
:1002A000808381E0089580E0089508950895AF92D5
:1002B000BF92CF92DF92EF92FF920F931F93CF9353
:1002C000DF936C017B018B01040F151FEB015E01B5
:1002D000AE18BF08C017D10759F06991D601ED914A
:1002E000FC910190F081E02DC6010995892B79F7E9
:1002F000C501DF91CF911F910F91FF90EF90DF909B
:10030000CF90BF90AF900895FC01538D448D252F61
:1003100030E0842F90E0821B930B541710F0CF969F
:10032000089501970895FC01918D828D981761F0D1
:10033000A28DAE0FBF2FB11D5D968C91928D9F5FE8
:100340009F73928F90E008958FEF9FEF0895FC01C7
:10035000918D828D981731F0828DE80FF11D858D7A
:1003600090E008958FEF9FEF0895FC01918D228D0D
:10037000892F90E0805C9F4F821B91098F73992792
:10038000089586E993E00E94B50121E0892B09F4E4
:1003900020E0822F0895FC01A48DA80FB92FB11D74
:1003A000A35ABF4F2C91848D90E001968F739927AB
:1003B000848FA689B7892C93A089B1898C91837089
:1003C00080648C93938D848D981306C00288F38982
:1003D000E02D80818F7D80830895EF92FF920F93AF
:1003E0001F93CF93DF93EC0181E0888F9B8D8C8DE1
:1003F00098131AC0E889F989808185FF15C09FB7D5
:10040000F894EE89FF896083E889F9898081837097
:10041000806480839FBF81E090E0DF91CF911F9146
:100420000F91FF90EF900895F62E0B8D10E00F5F67
:100430001F4F0F731127E02E8C8D8E110CC00FB63D
:1004400007FCFACFE889F989808185FFF5CFCE01D5
:100450000E94CB01F1CFEB8DEC0FFD2FF11DE35A84
:10046000FF4FF0829FB7F8940B8FEA89FB89808158
:100470008062CFCFCF93DF93EC01888D8823B9F0D2
:10048000AA89BB89E889F9898C9185FD03C080819F
:1004900086FD0DC00FB607FCF7CF8C9185FFF2CF1C
:1004A000808185FFEDCFCE010E94CB01E9CFDF91A6
:1004B000CF910895833081F028F4813099F0823013
:1004C000A9F008958730A9F08830C9F08430B1F4DC
:1004D000809180008F7D03C0809180008F77809312
:1004E0008000089584B58F7784BD089584B58F7D8D
:1004F000FBCF8091B0008F778093B00008958091FA
:10050000B0008F7DF9CFCF93DF93282F30E0F90132
:10051000E459FE4F8491F901E855FE4FD491F90159
:10052000EC56FE4FC491CC23A1F081110E945A02D7
:10053000EC2FF0E0EE0FFF1FE058FE4FA591B491B5
:10054000EC91ED2381E090E009F480E0DF91CF9120
:10055000089580E090E0FACF1F93CF93DF93282F88
:1005600030E0F901E459FE4F8491F901E855FE4F5E
:10057000D491F901EC56FE4FC491CC23A9F0162F6B
:1005800081110E945A02EC2FF0E0EE0FFF1FE65798
:10059000FE4FA591B4918FB7F894EC91111108C05A
:1005A000D095DE23DC938FBFDF91CF911F9108950B
:1005B000DE2BF8CFCF93DF9390E0FC01E855FE4FA0
:1005C00024918C569E4FFC0184918823C9F090E0C1
:1005D000880F991FFC01EE59FE4FA591B491FC01C3
:1005E000E657FE4FC591D49161110DC09FB7F894A5
:1005F0008C91209582238C938881282328839FBF08
:10060000DF91CF910895623051F49FB7F8943C91F7
:10061000822F809583238C93E8812E2BEFCF8FB789
:10062000F894EC912E2B2C938FBFEACF823091055A
:1006300038F0880F991F880F991F05970197F1F7D8
:1006400008953FB7F89480912F0390913003A091C3
:100650003103B091320326B5A89B05C02F3F19F096
:100660000196A11DB11D3FBFBA2FA92F982F882732
:10067000BC01CD01620F711D811D911D42E0660F0D
:10068000771F881F991F4A95D1F708958F929F92DF
:10069000AF92BF92CF92DF92EF92FF926B017C01FB
:1006A0000E9421034B015C01C114D104E104F10457
:1006B000B9F00E942103681979098A099B09683EEB
:1006C00073408105910580F321E0C21AD108E10849
:1006D000F10888EE880E83E0981EA11CB11CE4CFBF
:1006E000FF90EF90DF90CF90BF90AF909F908F9052
:1006F00008952FB7F89460912B0370912C0380918B
:100700002D0390912E032FBF089508952091440347
:10071000309145032817390771F490914203809175
:100720004303981741F0E0914203F0E0E651FD4F9A
:10073000808190E008958FEF9FEF08950895EF92E4
:10074000FF920F931F93CF93DF93DC015C96ED90A4
:10075000FC905D97E114F10479F481E090E0139648
:100760009C938E93129790E080E0DF91CF911F9140
:100770000F91FF90EF9008955196ED91FC91529753
:1007800050968C915097982F90950FB75E962C911C
:100790005E97122F127021FD6095F894208111232D
:1007A00019F1282B2083E7012197F1F728E0462F44
:1007B00050E0308160FF1AC0382B3083E701219769
:1007C000F1F7BA0175956795215089F7112381F0EA
:1007D0008081892380830FBF5C968D919C910197C6
:1007E000F1F781E090E0C1CF2923DCCF3923E5CFB9
:1007F0009081892BEFCF2091440330914503281736
:10080000390771F4809143032091420390E0805CAA
:100810009F4F821B910960E470E00E94581D08956B
:1008200090E080E00895209144033091450328171B
:100830003907B9F49091420380914303981789F0E6
:10084000E0914203F0E0E651FD4F808120914203A8
:1008500030E02F5F3F4F2F7333272093420390E008
:1008600008958FEF9FEF08952091C702260F332739
:10087000331F21323105ECF420916C03FC0190E030
:1008800080E0243069F082E00895A091C7022191B0
:10089000AC0149555D4FA40FB52FB11D2C930196A6
:1008A000861798F38091C702680F6093C70280E0B3
:1008B000089581E0089510926C0381E080936B03AA
:1008C0001092460361E082E10E94AC0261E083E1A4
:1008D0000E94AC02E9EBF0E080818E7F8083808112
:1008E0008D7F808388E48093B80085E48093BC008A
:1008F0000895CF93DF9391E09093A6028823B9F0F7
:10090000C091B800D091BA008091BC008A7B8093DE
:10091000BC0060E082E10E94AC0260E083E10E94E2
:10092000AC020E945B04D093BA00C093B800DF9180
:10093000CF9108958F929F92AF92BF92CF92DF9204
:10094000EF92FF920F931F93CF93DF93D091950374
:10095000D13208F0D7C0182FC09194030E94210310
:100960006B017C0180916C0381116BC082E08093EC
:100970006C0310936B038FEF80936A0310926903EB
:10098000D0936803A4E7B3E0E8E4F3E080E0D81391
:1009900091C01092470380914703CC0FC82BC0939E
:1009A000470380914603813009F088C010924603C6
:1009B0000E9421036B017C01809147038093BB005F
:1009C00080916E0390916F03A0917003B0917103B9
:1009D000892B8A2B8B2BA1F00E94210300916E039F
:1009E00010916F0320917003309171036C197D0990
:1009F0008E099F09061717072807390708F442C010
:100A00008091BC0083FDD8CF85EC8093BC000E9410
:100A100021036B017C0180916C03823009F450C08A
:100A200080916A038F3F09F46FC080916A0380321E
:100A300009F46CC080916A03803309F469C084E0D2
:100A400026C080916E0390916F03A0917003B091C6
:100A50007103892B8A2B8B2B09F484CF0E942103ED
:100A600080906E0390906F03A0907003B09071031C
:100A70006C197D098E099F0986169706A806B90686
:100A800008F070CF80916D030E94790485E0109288
:100A900073031092950310927203DF91CF911F910F
:100AA0000F91FF90EF90DF90CF90BF90AF909F900D
:100AB0008F9008959D9191938F5F69CF85EEA5CF1B
:100AC00080916E0390916F03A0917003B0917103B8
:100AD000892B8A2B8B2B09F49ECF0E942103009136
:100AE0006E0310916F0320917003309171036C19A4
:100AF0007D098E099F09061717072807390708F08F
:100B00008ACFC0CF81E0C3CF80E0C1CF82E0BFCF2A
:100B100083E0BDCFE091380380913703E81730F4CC
:100B2000F0E0EA57FD4F808190E008958FEF9FEF4E
:100B3000089590913803809137032FEF3FEF981776
:100B400048F4E92FF0E0EA57FD4F208130E09F5F45
:100B500090933803C9010895809137039091380329
:100B6000891B990B0895CF92DF92EF92FF920F931A
:100B70001F93CF93DF937C01CB018A0120917203F5
:100B8000222389F0EB016B01C40ED51ECC15DD05C7
:100B900069F06991D701ED91FC910190F081E02D10
:100BA000C7010995F3CF642F0E943404C801DF9177
:100BB000CF911F910F91FF90EF90DF90CF9008950C
:100BC000CF93DF931F92CDB7DEB769832091720375
:100BD0002223F9F020919503203258F021E030E0F3
:100BE000FC013383228390E080E00F90DF91CF916E
:100BF000089580917303E82FF0E0EC58FC4F998141
:100C000090838F5F809373038093950381E090E0DE
:100C1000ECCF61E0CE0101960E943404F7CF90E062
:100C200080E00895FC0183858F3F19F061E00C940A
:100C3000AC020895FC0180819181892B39F0A28159
:100C4000B3819C9111968C919CBD8DBD83858F3F06
:100C500019F060E00C94AC020895AF92BF92CF926D
:100C6000DF92EF92FF920F931F93CF93DF93EC01EC
:100C700088819981892B89F06EBD0DB407FEFDCF67
:100C8000BEB48B2DDF91CF911F910F91FF90EF900C
:100C9000DF90CF90BF90AF9008958885998511E03F
:100CA000892B09F010E8AA24A394862F812309F048
:100CB000A12C062F2C813D814E815F8160E271EA7B
:100CC00087E090E00E946C1DF22EB02EE12CC22E27
:100CD000D12CFF2019F0C6010E9416038A85877F58
:100CE00009F042C08D858F3F89F0902F912381E0DC
:100CF00009F480E08A1551F0EF85F8898F899923EE
:100D000069F19081892B8083AA24A394E989FA89C7
:100D10008081998D892B8083FF2019F0C6010E9464
:100D200016038E858F3F39F0EB89FC898081988D81
:100D3000892309F0E12AE989FA899081898D8095D2
:100D4000892380838E858F3F09F0BE2C8885998505
:100D5000892BB9F5110F1111BCCF93CF90818095DC
:100D600089238083A12CD2CFE989FA898081998D4A
:100D7000892B8083FF2019F0C6010E9416038D8500
:100D80008F3F49F0EF85F8898F89902F9123A9F043
:100D90009081892B8083E989FA899081898D80955A
:100DA000892380838E858F3F69F2EB89FC8980815E
:100DB000988D892339F2E12AC5CF908180958923C6
:100DC000E9CF1695C8CF8F929F92AF92BF92CF92E4
:100DD000DF92EF92FF920F931F93CF93DF937C01EB
:100DE0004B016A01B22EA32E0E941A06E401C80C20
:100DF000D91CCC15DD0569F4CB2DDA2D0C0F1D1F88
:100E0000C017D10759F06FEFC7010E942D068993D3
:100E1000F7CF6991C7010E942D06EBCFC7010E9451
:100E2000120681E0DF91CF911F910F91FF90EF901B
:100E3000DF90CF90BF90AF909F908F9008958F924A
:100E40009F92AF92BF92CF92DF92EF92FF920F9359
:100E50001F93CF93DF937C01B62EA72E6A01490121
:100E60000E941A06E401080D191DC017D10761F48C
:100E7000CB2DDA2DCC0EDD1ECC15DD0551F06991A0
:100E8000C7010E942D06F8CF6991C7010E942D0667
:100E9000ECCFC7010E94120681E0DF91CF911F9134
:100EA0000F91FF90EF90DF90CF90BF90AF909F9009
:100EB0008F9008951F93CF93DF93EA01122FDC01E7
:100EC00011968D919C91DC01ED91FC910280F38152
:100ED000E02D0995C817D90729F4812F0E949A049B
:100EE00091E0811190E0892FDF91CF911F910895BA
:100EF000CF93DF93EC018B818823A1F0888191E06F
:100F0000909372038093940310927303109295034D
:100F100081E00E949A0491E0811190E0892FDF9195
:100F2000CF910895109238031092370310927303F3
:100F3000109295030E945B0485E591E0909336033F
:100F40008093350386E591E09093340380933303D7
:100F500081E08B83CE010E947807982F8111CECF3C
:100F6000DDCFCF92DF92EF92FF920F931F93CF933B
:100F7000DF93C7E6D2E005E812E00E9479036093B0
:100F80009E0370939F038093A0039093A10386E92F
:100F900093E00E94930197FF27C00E947903C090BD
:100FA0009E03D0909F03E090A003F090A1036C19E2
:100FB0007D098E099F09C0909A03D0909B03E09011
:100FC0009C03F0909D036C157D058E059F05F8F23E
:100FD00081E080938502DF91CF911F910F91FF9067
:100FE000EF90DF90CF9008958731910589F3899331
:100FF0000C171D0711F6ECCF0E94C10181110C9452
:10100000B1070895FF920F931F93CF93DF93F82EAC
:10101000062FC7E0D0E010E061E0802F0E94AC0214
:101020008F2D0E9483020C2E01C0880F0A94EAF7CC
:10103000182B60E0802F0E94AC02219768F7812F67
:10104000DF91CF911F910F91FF9008958F929F9202
:10105000AF92BF92CF92DF92EF92FF920F931F93C6
:10106000CF93DF93C82FC12CD12C7601D0E0809193
:1010700061040E948302892B31F060E070E0CB01B3
:101080000E944603F4CF8FB6F8946091600480917B
:1010900061040E940208182F60916004809161042D
:1010A0000E940208982E60916004809161040E9461
:1010B0000208082FB12CA12C809162048A151B0410
:1010C00079F070F061E0809160040E94AC0260E011
:1010D000809160040E94AC028FEFA81AB80AECCF8E
:1010E0008FBE892D90E0B0E0A0E0BA2FA92F982FF5
:1010F0008827A12B802B110F110B412F50E070E09E
:1011000060E0742F662755274427842B952BA62B48
:10111000B72BC80ED91EEA1EFB1E60E070E0CB01A3
:101120000E944603DF5FCD13A2CF2C2F30E050E0AA
:1011300040E0C701B6010E948E1DCA01B901DF91CE
:10114000CF911F910F91FF90EF90DF90CF90BF90C4
:10115000AF909F908F9008950F931F93CF93DF933D
:101160000E942608CEE5D4E00D811E812F813885AE
:10117000601B710B820B930B0E94411B29853A85E2
:101180004B855C850E94AB1CDF91CF911F910F9125
:1011900008958AE00E9426080E94411B0E941D1D9E
:1011A0006093630470936404809365049093660471
:1011B00008952F923F924F925F926F927F928F92FB
:1011C0009F92AF92BF92CF92DF92EF92FF920F93D6
:1011D0001F93CF93DF9300D000D01F92CDB7DEB71F
:1011E0007C01DC0118960C914C01BBE08B0E911C2C
:1011F000FC019681878199838A8320803180211424
:10120000310409F424C1418550E0D10114968D9137
:101210009C9115978417950708F46CC18C9191E007
:10122000909372038093940310927303109295032A
:1012300020E0BE016F5F7F4FC1010E945A078823E3
:1012400009F458C1E02FF0E0FC83EB83B12CA12C12
:1012500001E08B819C81A816B90608F018C1D10164
:1012600014968D919C91CB80DC80CA18DB088C157C
:101270009D0508F46C01F101F081FD830E942103BA
:101280002B013C0180916C03811172C01C2D113225
:1012900008F010E200936C0321E08B819C818C1993
:1012A0009D09A816B90608F420E020936B038FEF80
:1012B00080936A0310926903810F809368030093FF
:1012C0004703909147038D81880F892B80934703B3
:1012D00080914603813009F091C0109246030E942C
:1012E00021032B013C01809147038093BB00809137
:1012F0006E0390916F03A0917003B0917103892BDD
:101300008A2B8B2BA1F00E94210320916E03309138
:101310006F03409170035091710364197509860938
:101320009709261737074807590708F442C08091E4
:10133000BC0083FDD8CF95EC9093BC000E942103A4
:101340002B013C0180916C03813009F45BC08091DA
:101350006903811710F410916903E8E4F3E0A6E84B
:10136000B2E080E0811751F191919D938F5FFACFA8
:1013700080916E0390916F03A0917003B0917103FF
:10138000892B8A2B8B2B09F47DCF0E94210320917E
:101390006E0330916F034091700350917103641993
:1013A000750986099709261737074807590708F06E
:1013B00069CF80916D030E94790410E01092380388
:1013C000109337031C151D0409F094C034016A0CF6
:1013D0007B1C2301C201861997098C159D05A0F578
:1013E000F10181819281DC01ED91FC910284F38510
:1013F000E02D0995F20181932F01ECCFA5EEA0938A
:10140000BC009CCF80916E0390916F03A0917003FC
:10141000B0917103892B8A2B8B2B09F493CF0E94F7
:10142000210320916E0330916F034091700350911E
:101430007103641975098609970926173707480744
:10144000590708F07FCFB5CFAC0CBD1C02CFD70138
:101450000280F381E02D309709F44CC014962D9151
:101460003C91159710E019964C9150E023303105CE
:1014700061F5816089839A834F5F5F4F9401BE015C
:101480006F5F7F4FCF010E94E306882399F1F70138
:10149000408550E030E020E060E070E0CB012417B0
:1014A00035075CF5982F872F762F6627D7011A9678
:1014B000EC91E1111AC0FA01E21BF30BEE0DFF1DD6
:1014C000E2856E2B2F5F3F4FEACF2115310519F4CE
:1014D00090689983D3CF2230310511F49F77F9CFEB
:1014E0002130310559F6906CF4CFF701E20FF31F6C
:1014F000E385E7CF6FEF7FEFCB010F900F900F9059
:101500000F900F90DF91CF911F910F91FF90EF906F
:10151000DF90CF90BF90AF909F908F907F906F9013
:101520005F904F903F902F900895CF93DF93CDB76A
:10153000DEB763970FB6F894DEBF0FBECDBF61E094
:1015400089E00E940A01EBE6F4E0428153812081A8
:101550003181188A198A1A8A1B8A5C834B833A83E1
:10156000298323E030E03E832D8321E02A8798877A
:101570008F831B862987CE0101960E94D908DC0142
:10158000CB0125E0B695A795979587952A95D1F734
:10159000817063960FB6F894DEBF0FBECDBFDF91AA
:1015A000CF9108957F928F929F92AF92BF92CF92E8
:1015B000DF92EF92FF920F931F93CF93DF9300D0B0
:1015C000CDB7DEB78C016A017B01DC018D919C9166
:1015D0000E94D9084B015C01F80120813181D901B9
:1015E00018967C90B4E0B71508F473C0828141E08E
:1015F00050E002C0440F551F8A95E2F7415051094F
:10160000052E000C660B770BF381DB01CA010F2E50
:1016100004C0880F991FAA1FBB1F0A94D2F7809598
:101620009095A095B09588229922AA22BB22DB0131
:10163000CA018C219D21AE21BF2104C0880F991FB2
:10164000AA1FBB1FFA95D2F788299929AA29BB2975
:10165000F9018787908BA18BB28B50E040E0E72C9B
:10166000F12C4E155F05ACF4F901628561110AC0D9
:10167000E40FF51F8387892F9A2FAB2FBB274F5F6E
:101680005F4FEFCFF701E41BF50BE20FF31F8287EB
:10169000F2CF6901FBE0CF0ED11CD90116969C91C7
:1016A000169717968C91179799838A83AD90BC9063
:1016B0001197A114B10409F442C019960C9110E0DD
:1016C00098012E0D3F1DF5018481958182179307A6
:1016D00010F480E015C081819281208131E0309347
:1016E00072032093940310927303109295030115D3
:1016F0001105B1F421E0A701B601C5010E945A0706
:101700000F900F90DF91CF911F910F91FF90EF906D
:10171000DF90CF90BF90AF909F908F907F90089573
:10172000DC01ED91FC910280F381E02DA801BE0166
:101730006F5F7F4F09950817190759F6DBCF12968F
:10174000ED91FC911397309721F214964D915C9195
:10175000159719960C9110E04330510571F48E7F66
:1017600089839A830F5F1F4F9E012F5F3F4FA70111
:10177000B601CF010E941F07C3CF4115510519F4CF
:101780009F779983F1CF4230510511F49068F9CFDA
:101790004130510549F79F779064F3CF0F931F9322
:1017A000CF93DF93CDB7DEB767970FB6F894DEBF60
:1017B0000FBECDBF182F062F61E0883008F460E01F
:1017C00089E00E940A0140916D0450916E042091BD
:1017D0006B0430916C04188A198A1A8A1B8A5C83FC
:1017E0004B833A83298323E030E03E832D8321E03D
:1017F0002A8798878F831B862987CE0101969D8B28
:101800008C8B2E8B17701F8B402F50E070E060E0A8
:1018100043960E94D20A67960FB6F894DEBF0FBEB9
:10182000CDBFDF91CF911F910F9108958F929F921D
:10183000AF92BF92CF92DF92EF92FF920F931F93DE
:10184000CF93DF93CDB7DEB7AE970FB6F894DEBF78
:101850000FBECDBF082FE62EFF24F394883008F486
:10186000F12C6F2D80E00E940A0180906D04909011
:101870006E04A0906B04B0906C041BA21CA21DA26D
:101880001EA29F8A8E8ABD8AAC8A23E0C22ED12CEA
:10189000D98EC88E11E01D8F9B8F8A8F1E8E1C8F54
:1018A0006F2D86E00E940A01188A198A1A8A1B8AFB
:1018B0009C828B82BA82A982DE82CD821A87988727
:1018C0008F831B8619870770CE0144969CA78BA730
:1018D0001DA70EA7439798A78FA319A70AA741E0B2
:1018E00050E060E070E081E0E81203C040E050E0CA
:1018F000BA01CE018B960E94D20A41E050E060E02E
:1019000070E082E0E81619F040E050E0BA01CE0144
:1019100087960E94D20AAE960FB6F894DEBF0FBE2D
:10192000CDBFDF91CF911F910F91FF90EF90DF908E
:10193000CF90BF90AF909F908F9008950C94631EAE
:1019400085ED8093BC0080916E0390916F03A09110
:101950007003B09171030796A11DB11D23E0B695E8
:10196000A795979587952A95D1F72091BC0024FDDE
:1019700003C010926C03089540916E0350916F0361
:101980006091700370917103452B462B472B69F3CF
:101990000097A105B10541F025E32A95F1F7000074
:1019A0000197A109B109E1CF80916D030C947904ED
:1019B0008F929F92AF92BF92EF92FF920F931F93DD
:1019C000CF93DF93CDB7DEB7CC58D1090FB6F894DB
:1019D000DEBF0FBECDBF10E000E0809161040E9429
:1019E0008302892B09F074C082E00E94AC084B018D
:1019F0005C012CEE31E548EB5DE30E94531D78015C
:101A0000EE0CFF1CEE0CFF1C18160CF046C020E07C
:101A100030E040E251E4C501B4010E943A1B87FF67
:101A20003CC0E1E0F0E0EC0FFD1FEE0DFF1D8082F9
:101A30009182A282B3820F5F1F4F0332110569F6B4
:101A40008E010F5F1F4F7E019DE8E90EF11C60E0E3
:101A500070E0CB01F80121913191419151918F01B9
:101A60000E943F1CE016F106A9F720E030E04CE0B0
:101A700052E40E94AB1CC457DF4F0FB6F894DEBF90
:101A80000FBECDBFDF91CF911F910F91FF90EF90CF
:101A9000BF90AF909F908F900895F8013197EE0F0F
:101AA000FF1FEE0FFF1F81E090E08C0F9D1FE80FDE
:101AB000F91F80819181A281B381E1E0F0E0EC0F18
:101AC000FD1FEE0DFF1D80839183A283B383B3CFEF
:101AD00001501109B0CF2F923F924F925F926F92B7
:101AE0007F928F929F92AF92BF92CF92DF92EF92AE
:101AF000FF920F931F93CF93DF93CDB7DEB7C157FC
:101B0000D1090FB6F894DEBF0FBECDBFCDB6DEB69D
:101B1000E296DFAECEAEE2970E94790320913D03BC
:101B2000222391F10091390310913A0320913B0354
:101B300030913C036B017C01C01AD10AE20AF30A1E
:101B400097018601043F114021053105E8F06093BB
:101B5000390370933A0380933B0390933C03809145
:101B6000060190910701A0910801B09109018983B4
:101B70009A83AB83BC8344E050E0BE016F5F7F4F2C
:101B800086E993E00E94570180918502882309F439
:101B900024C280916802863009F042C080913D03E2
:101BA0008823E1F110923D0380913E0390913F0321
:101BB000A0914003B091410380936704909368041F
:101BC000A0936904B0936A040E94C90861E08EE0A2
:101BD0000E94CE0B1092660210926502109264026F
:101BE00010926402109256021092570210925802FC
:101BF000109259028DE0EAE0F1E0DE0111960190C9
:101C00000D928A95E1F70E9422014DE050E0BE015D
:101C10006F5F7F4F8FE394E00E945701109285021F
:101C200080916802813121F5A9E6B2E0EAE5F2E0AF
:101C30008D91819352E0E436F507D1F78091170139
:101C400090911801A0911901B0911A0189839A838A
:101C5000AB83BC8344E050E0BE016F5F7F4F86E9F9
:101C600093E00E94570181E0809366021092850202
:101C700080916802833109F090C0809164028823CA
:101C800009F48BC010926402809169028F3FB1F415
:101C90002AE939E949E95EE36091560270915702F9
:101CA00080915802909159020E943E1C6093560206
:101CB000709357028093580290935902C090560235
:101CC000D0905702E0905802F09059022DEC3CEC75
:101CD0004CE45DE3C701B6010E943A1B87FD0BC0CF
:101CE00020E030E040E251E4C701B6010E94531DFC
:101CF00018160CF079C28DE1EBE1F1E0DE011196EE
:101D000001900D928A95E1F74DE150E0BE016F5FC1
:101D10007F4F86E993E00E94570186E1E8E3F1E016
:101D2000DE01929601900D928A95E1F70E942201C0
:101D300046E150E0BE016E5D7F4F8FE394E00E946C
:101D40005701EAE5F2E0DE01929681918D9382E0FF
:101D5000E436F807D1F78091060190910701A09130
:101D60000801B091090189839A83AB83BC8344E065
:101D700050E0BE016F5F7F4F86E993E00E945701FC
:101D800081E080933D030E9479036093390370934F
:101D90003A0380933B0390933C0380916802843123
:101DA00009F003C181E2EEE4F1E0DE011196019059
:101DB0000D928A95E1F741E250E0BE016F5F7F4FDF
:101DC00086E993E00E94570164EC79E080E090E0BE
:101DD0000E94460380E090E0A0E8BFE380936704A0
:101DE00090936804A0936904B0936A040E94C908A0
:101DF0008CE1EFE6F1E0DE01DE9601900D928A952E
:101E0000E1F78E010C591F4F23E045E065E87BEEBA
:101E100081ED9EE30E94E518A5968FADA597629689
:101E20008FAF6297A6968FADA69763968FAF639795
:101E3000A7968FADA79764968FAF6497A8968FAD3E
:101E4000A89765968FAF6597A9968FADA997669667
:101E50008FAF66974CE150E0BE01625C7F4F86E930
:101E600093E00E94570168E873E180E090E00E94EF
:101E7000460315E322E0D22E39E1E32E43E0F42EAF
:101E800007E1DAA2EBA2FDA20EA31CA345E050E0FD
:101E9000BE016E5D7F4F86E993E00E94570168EEB8
:101EA00073E080E090E00E9446031150103349F740
:101EB0008AE00E94AC0825E83BEE41ED5EE30E941B
:101EC000AB1C60933E0370933F0380934003909359
:101ED00041039EE3E92E93E0F92E10E000E0D701E4
:101EE000DD907D01C8010E94F11BD81621F06D2DF7
:101EF000C8010E94F91B0F5F1F4F0430110579F7CD
:101F000060913E0370913F038091400390914103A3
:101F10008E01065A1F4F21E048E00E94E5188CE12F
:101F2000EBE8F1E0DE01929601900D928A95E1F7DF
:101F3000F801DE01D496C801089621912D93E81787
:101F4000F907D9F74CE150E0BE016E5D7F4F86E99D
:101F500093E00E9457016CED75E080E090E00E94F4
:101F6000460381E080933D03809106019091070133
:101F7000A0910801B091090189839A83AB83BC8346
:101F800044E050E0BE016F5F7F4F86E993E00E941E
:101F90005701109285020E94790360933903709370
:101FA0003A0380933B0390933C038091680286310F
:101FB00091F460E08EE00E94CE0B68EE73E080E06A
:101FC00090E00E9446030E94C90861E08EE00E94F2
:101FD000CE0B1092850210928502809166028823B2
:101FE00009F490C060E08EE00E94CE0B82E1E7EA47
:101FF000F1E0DE01929601900D928A95E1F70AE5F3
:1020000012E0FE01B296D8017F018D91819322E00A
:10201000A436B207D1F70E94220142E150E0B70195
:102020008FE394E00E9457010E9479036B017C01C9
:1020300038E2C30E33E2D31EE11CF11C0E94790387
:102040006C157D058E059F0508F43FC18BE0E9EB1B
:10205000F1E0DE01DE9601900D928A95E1F74BE00A
:1020600050E0BE01625C7F4F86E993E00E94570119
:1020700086E1E8E3F1E0DE01119601900D928A9588
:10208000E1F7FE013196D8018D918D018193B2E087
:1020900004361B07C1F70E94220146E150E0BE0151
:1020A0006F5F7F4F8FE394E00E94570110926602AA
:1020B00081E080933D0368E873E180E090E00E9456
:1020C00046038091060190910701A0910801B0910B
:1020D00009016E968CAF9DAFAEAFBFAF6E9744E077
:1020E00050E0BE01665A7F4F86E993E00E94570197
:1020F0000E9479036093390370933A0380933B0302
:1021000090933C0380916602882309F44AC0809131
:102110006502882309F445C00E94950A81115AC1BD
:1021200087E1E4ECF1E0DE01119601900D928A95D1
:10213000E1F747E150E0BE016F5F7F4F86E993E032
:102140000E9457010E94D80C609356027093570268
:10215000809358029093590220E030E040E85FEB12
:102160000E943A1B882309F4C0C08091DB01909142
:10217000DC01A091DD01B091DE018AA39BA3ACA399
:10218000BDA344E050E0BE016E5D7F4F86E993E061
:102190000E94570181E080936402109266021092BF
:1021A0006502E296CEACDFACE2970FB6F894DEBEE5
:1021B0000FBECDBECF58DF4F0FB6F894DEBF0FBEB7
:1021C000CDBFDF91CF911F910F91FF90EF90DF90E6
:1021D000CF90BF90AF909F908F907F906F905F90C7
:1021E0004F903F902F9008958E01025C1F4F23E087
:1021F00045E0C701B6010E94E5188BE0EFEDF1E084
:10220000DE01929601900D928A95E1F78EAD8CA336
:102210008FAD8DA321968FAD21978EA322968FAD82
:1022200022978FA323968FAD239788A74BE050E08A
:10223000BE016E5D7F4F86E993E00E94570186E103
:10224000EAEEF1E0DE01119601900D928A95E1F738
:10225000EAE5F2E0DE01119681918D9392E0E43699
:10226000F907D1F78EAD8C878FAD8D8721968FAD15
:1022700021978E8722968FAD22978F8723968FADD9
:102280002397888B80916A028C8B0E94220146E101
:1022900050E0BE016F5F7F4F8FE394E00E945701D3
:1022A00061E088E00E94CE0B64E670E080E090E0A0
:1022B0000E94460360E088E00E94CE0B60E47FE16C
:1022C00080E090E00E94460346CD8FE00E94AC087B
:1022D0002DEC3CEC4CEC5DE30E94531D18160CF009
:1022E000ADCE81E0809365020DCF28961FAE1EAE65
:1022F000289782E08EAF89E18FAF85E421968FAF7A
:10230000219782E522968FAF229723968FAF23974E
:102310009FE424969FAF249725968FAF259783E05F
:1023200026968FAF269787E127968FAF27974AE0AB
:1023300050E0BE01625C7F4F86E993E00E94570146
:1023400086E1E8E3F1E0DE01929601900D928A9534
:10235000E1F7EAE5F2E0DE01929684E692E021916F
:102360002D938E179F07D9F70E94220146E150E076
:10237000BE016E5D7F4F8FE394E00E94570168EBD2
:102380007BE080E090E00E94460381E080933D0383
:102390008091060190910701A0910801B091090177
:1023A0006E968CAF9DAFAEAFBFAF6E9744E050E07E
:1023B000BE01665A7F4F86E993E00E9457010E9452
:1023C00079036093390370933A0380933B039093AE
:1023D0003C03E3CE0E94950A813009F0DECE88E10D
:1023E000E0E0F2E0DE01119601900D928A95E1F7AE
:1023F00048E150E0BE016F5F7F4F86E993E00E94A5
:1024000057010E9479039B01AC01205D3A484F4F70
:102410005F4FE0962CAF3DAF4EAF5FAFE0970E94AD
:102420007903E096CCACDDACEEACFFACE0976C157C
:102430007D058E059F0508F00BC12DB63EB62DB764
:102440003EB72C5331090FB6F8943EBF0FBE2DBFD7
:102450000DB71EB70F5F1F4FADB7BEB711961D92D8
:102460001D921D921C921497EDB7FEB735968DB74D
:102470009EB7CD961192119211921192E817F90719
:10248000C9F7EDB7FEB7F8970FB6F894FEBF0FBEC9
:10249000EDBF2DB73EB72F5F3F4F4901ADB7BEB778
:1024A00011961D921D921D921C92149735968DB710
:1024B0009EB7C9961192119211921192E817F907DD
:1024C000C9F77801B4E0EB1AF10868015801E8E3B4
:1024D000AE0EB11C82E00E9426084090630450902A
:1024E0006404609065047090660464197509860937
:1024F00097090E94411B2091670430916804409124
:10250000690450916A040E94AB1C2B013C0120E03D
:1025100030E040E251E40E943A1B87FFD9C02CEE24
:1025200031E548EB5DE3C301B2010E94531D18166B
:102530000CF0CEC0D70114964D925D926D927C92B4
:102540001797F4E0EF0EF11CEA14FB0419F654019E
:10255000AC969FAE8EAEAC97D8016D917D918D916A
:102560009D918D012D913D914D915C910E943E1C5C
:102570002B013C0120E030E0A9010E94531D1816F8
:1025800024F077FA709477F87094AC96EEADFFADC6
:10259000AC974192519261927192AC96FFAFEEAFBF
:1025A000AC97E016F106C1F6F8E38F0E911C10E02F
:1025B00000E0412C512C3201D5016D917D918D911E
:1025C0009D915D0120E030E040E05FE30E943A1B16
:1025D00087FF16C0F6012081318142815381C301FA
:1025E000B2010E943F1CD60114962D913D914D9150
:1025F0005C9117970E943F1C2B013C010F5F1F4FFE
:10260000B4E0CB0ED11C8A149B04B1F60A3011053C
:102610000CF468C0B801660F771F072E000C880BFA
:10262000990B0E94411B9B01AC01C301B2010E94A6
:10263000AB1C6B017C010FB6F8943EBE0FBE2DBEE5
:1026400020E030E040E85FEB0E943A1B811150C06F
:102650000E94D80C609356027093570280935802E0
:102660009093590287E1E4ECF1E0DE01929601904B
:102670000D928A95E1F747E150E0BE016E5D7F4F14
:1026800086E993E00E94570120E030E040E85FEBEC
:1026900060915602709157028091580290915902B0
:1026A0000E943A1B882369F18091DB019091DC0143
:1026B000A091DD01B091DE0122968CAF9DAFAEAF4F
:1026C000BFAF229744E050E0BE01625C7F4F5ECD19
:1026D000F70180819181A281B38184839583A68350
:1026E000B7832FCF0FB6F8943EBE0FBE2DBE97CE48
:1026F000C0925602D0925702E0925802F0925902CC
:1027000034CDA4961FAE1EAEA49782E06B968FAF19
:102710006B9789E16C968FAF6C9785E46D968FAF60
:102720006D9782E56E968FAF6E976F968FAF6F97AE
:102730009FE4A0969FAFA097A1968FAFA19783E04B
:10274000A2968FAFA29787E1A3968FAFA3974AE097
:1027500050E0BE01665A7F4F86E993E00E94570120
:1027600086E1E8E3F1E0DE01DE9601900D928A95C4
:10277000E1F7EAE5F2E0DE01DE9681918D9322E059
:10278000E436F207D1F70E94220146E150E0BE0193
:10279000625C7F4F8FE394E00E94570168EB7BE01F
:1027A00080E090E00E94460381E080933D038091A9
:1027B000060190910701A0910801B0910901A89626
:1027C0008CAF9DAFAEAFBFAFA89744E050E0BE0165
:1027D0006C597F4FF0CD1F920F920FB60F921124BC
:1027E0002F933F934F935F936F937F938F939F9319
:1027F000AF93BF93EF93FF9386E993E00E94CB01E1
:10280000FF91EF91BF91AF919F918F917F916F91C8
:102810005F914F913F912F910F900FBE0F901F909E
:1028200018951F920F920FB60F9211242F938F932A
:102830009F93EF93FF93E091A603F091A70380810C
:10284000E091AC03F091AD0382FD1BC090818091BB
:10285000AF038F5F8F732091B003821741F0E09137
:10286000AF03F0E0EA56FC4F958F8093AF03FF91E2
:10287000EF919F918F912F910F900FBE0F901F900E
:1028800018958081F4CF1F920F920FB60F921124EA
:102890002F933F938F939F93AF93BF9380912B037D
:1028A00090912C03A0912D03B0912E0330912A0317
:1028B00023E0230F2D3758F50196A11DB11D20935C
:1028C0002A0380932B0390932C03A0932D03B093A2
:1028D0002E0380912F0390913003A0913103B0918A
:1028E00032030196A11DB11D80932F0390933003F5
:1028F000A0933103B0933203BF91AF919F918F9119
:102900003F912F910F900FBE0F901F90189526E8C2
:10291000230F0296A11DB11DD2CF1F920F920FB6A9
:102920000F9211242F933F934F935F936F937F9355
:102930008F939F93AF93BF93EF93FF93E0914403E3
:10294000F0914503309749F0A685B7858585968D2A
:1029500091FF14C09C918923A1F4FF91EF91BF9145
:10296000AF919F918F917F916F915F914F913F9127
:102970002F910F900FBE0F901F9018959C91892357
:1029800061F7A389B4899C918589809589238C936B
:10299000868997890197F1F7608D718DA685B78536
:1029A000558538E020E0CB010197F1F7822F90E0C8
:1029B00095958795282F4C91452309F02068315033
:1029C00091F7868D81FD20958091430390E00196DB
:1029D0008F73992730914203381799F0A0914303E0
:1029E000B0E0A651BD4F2C9380934303828D938D0D
:1029F0000197F1F7A389B4898C919589892B8C93E0
:102A0000ACCF868D8160868FF1CF1F920F920FB66B
:102A10000F9211242F933F934F935F936F937F9364
:102A20008F939F93AF93BF93EF93FF938091B900E0
:102A3000887F803609F44AC0F0F5883209F4A7C0CF
:102A400018F5803109F49BC0B8F4882309F4F9C063
:102A5000883009F494C0FF91EF91BF91AF919F919D
:102A60008F917F916F915F914F913F912F910F9037
:102A70000FBE0F901F901895883109F488C08032DE
:102A800051F780936A0314C0803409F49DC040F468
:102A90008033B9F38833F9F680936A0385ECB0C0CC
:102AA000803509F485C0883509F496C0883499F6D4
:102AB0000E94A00CD0CF883909F48CC038F5883733
:102AC00029F050F4883611F0803729F683E080939E
:102AD0006C031092E90257C0883809F47BC0803932
:102AE00019F0803809F0B7CF8091E902803208F000
:102AF00071C0E091E90281E08E0F8093E90280913C
:102B0000BB00F0E0E753FD4F80833DC0803B39F0D0
:102B1000E0F4803A09F479C0883A09F09CCF84E067
:102B200080936C031092C8021092C702E0913503A3
:102B3000F091360309958091C70281110FC081E0A1
:102B40008093C7021092A70209C0803C09F4A6CF67
:102B5000883C09F4A3CF883B09F07DCFE091C802FF
:102B600081E08E0F8093C802F0E0E955FD4F80812F
:102B70008093BB009091C8028091C70229C08091C8
:102B800047038093BB0085EC8093BC0064CF909199
:102B9000690380916803981758F5E091690381E013
:102BA0008E0F80936903F0E0E85BFC4F8081E9CFF2
:102BB000E091690381E08E0F809369038091BB00EF
:102BC000F0E0E85BFC4F808390916903809168039B
:102BD0009817C8F285E8D8CFE091690381E08E0F9D
:102BE000809369038091BB00F0E0E85BFC4F808339
:102BF00080916B0381115CCF81E08093460384EA6E
:102C00008093BC0010926C0326CF85EC8093BC00AF
:102C100010926C038091E902803230F4E091E90275
:102C2000F0E0E753FD4F10826091E90270E0E0911F
:102C30003303F091340389EC92E009951092E90294
:102C40000ACF10926A0334CF10929903109298031E
:102C500088EE93E0A0E0B0E080939A0390939B030A
:102C6000A0939C03B0939D032CE132E03093970333
:102C70002093960325EC30E03093A3032093A20326
:102C800024EC30E03093A5032093A40320EC30E043
:102C90003093A7032093A60321EC30E03093A903DF
:102CA0002093A80322EC30E03093AB032093AA03D7
:102CB00026EC30E03093AD032093AC031092AF03C9
:102CC0001092B0031092B1031092B2031092360426
:102CD000109235048093370490933804A0933904FC
:102CE000B0933A042EE232E030933404209333045C
:102CF00010926C0410926B0410926E0410926D048A
:102D000020E120936F0422E532E030935F042093AA
:102D10005E04109263041092640410926504109291
:102D2000660440E050E060E87FE34093670450931E
:102D300068046093690470936A04109242041092CC
:102D400041048093430490934404A0934504B093BA
:102D5000460480E492E09093400480933F041092F4
:102D60005604109255041092580410925704109271
:102D70005A041092590410925C0410925B04609102
:102D80005D046E7F6D7F60935D046695617081E088
:102D9000682787E00E94AC0261E087E00E94DA02C7
:102DA000EFEAF1E0E491E0934F04EBE9F1E0E49124
:102DB000F0E0EE0FFF1FE657FE4F85919491909340
:102DC00051048093500460E088E00E94DA02809110
:102DD0005D0481FD04C061E088E00E94AC0288E0EF
:102DE00080934B04E0EBF1E0E491E0934C04ECE9D8
:102DF000F1E0E491F0E0EE0FFF1FE058FE4F859107
:102E0000949190934E0480934D040895CF93DF9353
:102E100000D000D0CDB7DEB7789484B5826084BD91
:102E200084B5816084BD85B5826085BD85B58160CE
:102E300085BD80916E00816080936E00109281004C
:102E40008091810082608093810080918100816007
:102E500080938100809180008160809380008091C8
:102E6000B10084608093B1008091B0008160809354
:102E7000B00080917A00846080937A0080917A001B
:102E8000826080937A0080917A00816080937A00DA
:102E900080917A00806880937A001092C10061E08E
:102EA00089E00E94AC0262E370E080E090E00E9462
:102EB000460361E089E00E94DA0286E090E00E9429
:102EC000C71D8C0180E2F801808383E394E0928344
:102ED0008183138280E290E09583848310936C0455
:102EE00000936B041092380310923703109273030F
:102EF000109295030E945B0485E591E09093360360
:102F00008093350386E591E09093340380933303F7
:102F1000FF24F394F801F382C8010E94780761E06E
:102F200080E00E94160C61E081E00E94160C62E0D5
:102F300089E00E94160C62E08AE00E94160C62E0B2
:102F40008BE00E94160C62E08CE00E94160C61E09F
:102F50008EE00E94160C62E08DE00E94160C61E08B
:102F600088E00E94160C62E08FE00E94160C61E07F
:102F700080E00E94CE0BE091A603F091A70382E0CF
:102F80008083E091A203F091A303F082E091A40377
:102F9000F091A50380EA80831092AE03E091AA032A
:102FA000F091AB0386E08083E091A803F091A90340
:102FB000808180618083E091A803F091A9038081E2
:102FC00088608083E091A803F091A90380818068E4
:102FD0008083E091A803F091A90380818F7D808395
:102FE00010925A04109259041092580410925704E7
:102FF00010925604109255048DE991E090935C0470
:1030000080935B0490914B04963108F047C02DEB00
:1030100030E030935604209355042BE931E030938F
:103020005804209357042CE231E030935A04209343
:1030300059042091680084E0983048F031E09E30D7
:1030400008F430E081E001C0880F3A95EAF7822B5E
:10305000809368002DE630E0983050F02BE630E0A9
:103060009E3030F02CE630E0963110F030E020E079
:103070003093530420935204292F30E0983008F005
:103080007BC081E001C0880F9A95EAF780935404D1
:1030900080915B0490915C040197F1F70E942201FA
:1030A00090E080E00E94F11B80933E0381E090E07D
:1030B0000E94F11B80933F0382E090E00E94F11B8D
:1030C0008093400383E090E00E94F11B80934103D2
:1030D00085E08093600484E08093610461E085E092
:1030E0000E94DA0262E0809161040E94DA0211E03B
:1030F0001093620480913E0390913F03A09140039E
:10310000B09141038093670490936804A09369048D
:10311000B0936A040E94C90880910601909107014A
:10312000A0910801B091090189839A83AB83BC8384
:1031300068EB7BE080E090E00E94460344E050E0D2
:10314000BE016F5F7F4F86E993E00E9457011093A5
:103150003D030E9479036093390370933A0380938F
:103160003B0390933C030E946B0D0E94C101882396
:10317000D1F30E94B107F7CF9E3040F428503109B7
:1031800081E001C0880F2A95EAF780CF2E503109DF
:10319000F7CF80E492E09093400480933F048091C5
:1031A0004403909145038F53944071F4E09152048D
:1031B000F0915304908180915404809589238083F9
:1031C00010924503109244030895EF920F931F93BA
:1031D000CF93DF93E80134E047FD34E1042E000C87
:1031E000550B57FF03C0519541955109E32E022F0E
:1031F000242FAE010E940319CE01DF91CF911F91C0
:103200000F91EF900895A9E0B0E0E9E0F9E10C94A6
:103210000D1C6A01F22EB02E102FFBE3AF2EA0166C
:1032200008F41BE31F5F012F27E0AE014F5F5F4FE4
:103230000E94621ABC018981982F9970913009F41B
:103240003FC09BE2E1FC04C09E2D9170E0FC3AC0BF
:103250005E2D5071E82FE87083FF46C084E0911125
:1032600001C083E0EF2DE81B8F1508F0E0E0D601E8
:103270008E2F20E2552351F1992329F0D6019C93FA
:10328000C60101966C0196012D5F3F4FE2FE24C0FE
:103290008EE4D6018C9391E411969C93119712962B
:1032A0008C93D9018E2F90E281111BC0E20FF32F76
:1032B000F11D10828EEF9FEF2996ECE00C94291CF3
:1032C0009DE2C6CF90E2C4CF2D9381508111FCCFF7
:1032D000CE0ED11CE0E0D0CF8EE6D6018C9391E6E5
:1032E000DBCF9D938150E0CF482F447082FF3DC0DB
:1032F00084E0911101C083E08F1510F4EF2DE81BDD
:10330000D6018E2F20E2552309F1992329F0D60109
:103310009C93C60101966C0196012D5F3F4FE2FE22
:103320001BC089E4D6018C938EE411968C9311977F
:1033300086E412968C93D9018E2F90E2882309F4AB
:10334000B5CF9D938150FACF2D9381508111FCCF41
:10335000CE0ED11CE0E0D9CF89E6D6018C938EE663
:1033600011968C93119786E6E4CF9B0177FF02C0FC
:1033700030E020E0A1E0B0E0911102C0B0E0A0E0B8
:10338000F9013196AE0FBF1F8B2C912CBB2009F495
:1033900061C05401EFEFAE1ABE0AAA0DBB1DFA16AA
:1033A0001B0619F014F04F2D4A1B511188C0E3FC85
:1033B00059C07601A42FB0E2A1114FC0C40ED11C98
:1033C000992309F45BC040E0D6011196F601908381
:1033D0006D01552309F448C0012F060F9A81582F1B
:1033E000507184FF03C0913309F4015010160CF0A2
:1033F00047C0093008F008E0EEE2FE2E5B01A01A9B
:10340000B10885019194819491082F3F320729F4E6
:10341000D601FC92F60131966F016217730794F1A1
:10342000021713077CF5DB01A21BB30BAA24A3949C
:10343000B12CAC0EBD1EAA0DBB1D11968C91215056
:103440003109D601119628153905F4F0F60180836B
:103450006D01DBCFB12CA12CA0CFF701B1937F017F
:10346000A150AACF9111B0CFD601942F50E302C042
:103470005D9391509111FCCFC40ED11C40E0ACCFB4
:1034800001E0BACF80E3DBCF6217730731F49633E4
:1034900088F4953311F4552369F0F6018083FD011A
:1034A000842F90E2811108C0A40FB11D1C9290E0FE
:1034B00080E002CF81E3F1CF91938150F3CF91115E
:1034C00083CF8ACF283008F027E03327DA01990F1D
:1034D000311D87FD916000966105710539F43260F8
:1034E0002E5F3D9330E32A95E1F708959F3F30F03A
:1034F00080387105610509F03C5F3C5F3D93913078
:1035000008F08068911DDF93CF931F930F93FF9274
:10351000EF92192F987F9695E92F96959695E90F3A
:10352000FF27EE53FF4F99273327EE24FF24A701EF
:10353000E70105900894079428F4360FE71EF81E5B
:10354000491F511D660F771F881F991F0694A1F709
:103550000590079428F4E70EF81E491F561FC11D59
:10356000770F881F991F661F0694A1F7059007948F
:1035700028F4F80E491F561FC71FD11D880F991F29
:10358000661F771F0694A1F70590079420F4490F52
:10359000561FC71FD81F990F661F771F881F0694D5
:1035A000A9F784911095177041F0D695C795579556
:1035B0004795F794E7941A95C1F7E8E6F0E0689428
:1035C0001590159135916591959105907FE27395D0
:1035D000E118F10A430B560BC90BD009C0F7E10CF7
:1035E000F11E431F561FC91FD01D7EF4703311F406
:1035F0008A95E6CFE894015030F0080F0AF40027CE
:10360000021708F4202F2395022F7A3328F079E34C
:103610007D932A95E9F710C07D932A9589F6069443
:1036200097956795379517951794E118F10A430B0D
:10363000560BC90BD00998F023957E9173957A3378
:1036400008F070E37C932013B8F77E9170617D934E
:1036500030F0839571E37D9370E32A95E1F71124AF
:10366000EF90FF900F911F91CF91DF91992787FDE8
:10367000909508950E947C1B08F481E00895E894D9
:1036800009C097FB3EF490958095709561957F4FAA
:103690008F4F9F4F9923A9F0F92F96E9BB27939558
:1036A000F695879577956795B795F111F8CFFAF468
:1036B000BB0F11F460FF1BC06F5F7F4F8F4F9F4F99
:1036C00016C0882311F096E911C0772321F09EE8F7
:1036D000872F762F05C0662371F096E8862F70E05D
:1036E00060E02AF09A95660F771F881FDAF7880F37
:1036F0009695879597F90895990F0008550FAA0B8D
:10370000E0E8FEEF16161706E807F907C0F01216F4
:103710001306E407F50798F0621B730B840B950BF7
:1037200039F40A2661F0232B242B252B21F408954C
:103730000A2609F4A140A6958FEF811D811D0895E9
:1037400097F99F6780E870E060E008959FEF80EC54
:10375000089500240A9416161706180609060895F7
:1037600000240A9412161306140605060895092E5D
:103770000394000C11F4882352F0BB0F40F4BF2BCC
:1037800011F460FF04C06F5F7F4F8F4F9F4F08950C
:1037900057FD9058440F551F59F05F3F71F0479502
:1037A000880F97FB991F61F09F3F79F087950895E7
:1037B000121613061406551FF2CF4695F1DF08C006
:1037C000161617061806991FF1CF86957105610523
:1037D00008940895E894BB2766277727CB0197F9CB
:1037E0000895F999FECF92BD81BDF89A992780B5C9
:1037F0000895262FF999FECF1FBA92BD81BD20BD35
:103800000FB6F894FA9AF99A0FBE019608952F927E
:103810003F924F925F926F927F928F929F92AF9260
:10382000BF92CF92DF92EF92FF920F931F93CF93AD
:10383000DF93CDB7DEB7CA1BDB0B0FB6F894DEBF44
:103840000FBECDBF09942A88398848885F846E846A
:103850007D848C849B84AA84B984C884DF80EE80B4
:10386000FD800C811B81AA81B981CE0FD11D0FB6BD
:10387000F894DEBF0FBECDBFED0108955058BB27B1
:10388000AA270E94561C0C94B71B0E94A91B38F053
:103890000E94B01B20F039F49F3F19F426F40C94D9
:1038A000A61B0EF4E095E7FB0C94A01BE92F0E94E9
:1038B000C81B58F3BA17620773078407950720F0EF
:1038C00079F4A6F50C94EA1B0EF4E0950B2EBA2FB2
:1038D000A02D0B01B90190010C01CA01A001112416
:1038E000FF27591B99F0593F50F4503E68F11A16C2
:1038F000F040A22F232F342F4427585FF3CF469553
:1039000037952795A795F0405395C9F77EF41F1674
:10391000BA0B620B730B840BBAF09150A1F0FF0F3E
:10392000BB1F661F771F881FC2F70EC0BA0F621F2A
:10393000731F841F48F4879577956795B795F7951A
:103940009E3F08F0B0CF9395880F08F09927EE0FAF
:103950009795879508950E94BF1C0C94B71B0E94F1
:10396000B01B58F00E94A91B40F029F45F3F29F0DA
:103970000C94A01B51110C94EB1B0C94A61B0E94E1
:10398000C81B68F39923B1F3552391F3951B550B8D
:10399000BB27AA2762177307840738F09F5F5F4F22
:1039A000220F331F441FAA1FA9F335D00E2E3AF061
:1039B000E0E832D091505040E695001CCAF72BD079
:1039C000FE2F29D0660F771F881FBB1F26173707CA
:1039D0004807AB07B0E809F0BB0B802DBF01FF27FC
:1039E00093585F4F3AF09E3F510578F00C94A01B1E
:1039F0000C94EB1B5F3FE4F3983ED4F386957795E8
:103A00006795B795F7959F5FC9F7880F911D9695B4
:103A1000879597F90895E1E0660F771F881FBB1F10
:103A2000621773078407BA0720F0621B730B840BBD
:103A3000BA0BEE1F88F7E09508950E94241D689444
:103A4000B1110C94EB1B08950E94D01B88F09F5776
:103A500098F0B92F9927B751B0F0E1F0660F771FB2
:103A6000881F991F1AF0BA95C9F714C0B13091F0A8
:103A70000E94EA1BB1E008950C94EA1B672F782F8F
:103A80008827B85F39F0B93FCCF38695779567956D
:103A9000B395D9F73EF490958095709561957F4FD9
:103AA0008F4F9F4F08950E947C1B08F48FEF08955D
:103AB00097FB072E16F4009407D077FD09D00E94DB
:103AC000AD1D07FC05D03EF4909581959F4F08955C
:103AD000709561957F4F0895A1E21A2EAA1BBB1B1A
:103AE000FD010DC0AA1FBB1FEE1FFF1FA217B307CA
:103AF000E407F50720F0A21BB30BE40BF50B661FE0
:103B0000771F881F991F1A9469F7609570958095A3
:103B100090959B01AC01BD01CF010895052E97FB47
:103B20001EF400940E94A51D57FD07D00E946C1D35
:103B300007FC03D04EF40C94A51D5095409530958C
:103B400021953F4F4F4F5F4F089590958095709509
:103B500061957F4F8F4F9F4F0895AA1BBB1B51E16B
:103B600007C0AA1FBB1FA617B70710F0A61BB70BED
:103B7000881F991F5A95A9F780959095BC01CD0192
:103B80000895EE0FFF1F0590F491E02D09940F9317
:103B90001F93CF93DF938230910510F482E090E081
:103BA000E0917704F091780430E020E0B0E0A0E00C
:103BB000309799F42115310509F44AC0281B390BB7
:103BC00024303105D8F58A819B816115710589F111
:103BD000FB0193838283FE0111C0408151810281E8
:103BE000138148175907E0F04817590799F41097BF
:103BF00061F012960C93129713961C933296CF0194
:103C0000DF91CF911F910F91089500937704109346
:103C10007804F4CF2115310551F04217530738F0DD
:103C2000A901DB019A01BD01DF01F801C1CFEF015C
:103C3000F9CF9093780480937704CDCFFE01E20F03
:103C4000F31F819391932250310939832883D7CF71
:103C50002091750430917604232B41F420910201C8
:103C60003091030130937604209375042091000174
:103C7000309101012115310541F42DB73EB7409136
:103C8000040150910501241B350BE0917504F0915E
:103C90007604E217F307A0F42E1B3F0B2817390711
:103CA00078F0AC014E5F5F4F2417350748F04E0F98
:103CB0005F1F5093760440937504819391939FCF37
:103CC000F0E0E0E09CCFCF93DF930097E9F0FC01B8
:103CD000329713821282A0917704B0917804ED019B
:103CE00030E020E01097A1F420813181820F931FF2
:103CF00020917504309176042817390709F061C0C6
:103D0000F0937604E0937504DF91CF910895EA0172
:103D1000CE17DF07E8F54A815B819E014115510509
:103D2000B1F7E901FB83EA8349915991C40FD51F8B
:103D3000EC17FD0761F4808191810296840F951F35
:103D4000E90199838883828193819B838A83F0E050
:103D5000E0E012968D919C9113970097B9F52D9103
:103D60003C911197CD010296820F931F209175040B
:103D7000309176042817390739F6309751F51092AB
:103D8000780410927704B0937604A0937504BCCFA6
:103D9000D383C28340815181840F951FC817D907EF
:103DA00061F44E5F5F4F88819981480F591F51839D
:103DB00040838A819B81938382832115310509F099
:103DC000B0CFF0937804E09377049ECFFD01DC013F
:103DD000C0CF13821282D7CF10E0CFEDD0E004C065
:103DE000FE010E94C11D2196C03ED107C9F7F8947B
:023DF000FFCF03
:103DF2000000790480000205031752454144597CB2
:103E0200307C307C300D0A020603170219455252EB
:103E12004F52202020202020202020202052414EBE
:103E22004745204F55540317303030303030303052
:103E320030307C302E3030307C317C300D0A02192B
:103E420043414C4C494252415445204D4F44452038
:103E5200444F204E4F5420544F55434821031702DC
:103E620019504C4143452041205745494748542069
:103E7200203D302E3030304B470317021946494E51
:103E8200495348202020202020202020203030307C
:103E92003030302E30031730303030303030303068
:103EA200307C307C307C300D0A021954494D454F2C
:103EB2005554031702194D4541535552494E472057
:103EC2002020202020204156470317021203170208
:103ED20019302E3030304B4703173030303030300D
:103EE200303030307C302E3030307C307C300D0A37
:103EF20002194D4541535552494E4720202020205A
:103F020020205354424C031700000000ED015701DA
:103F120084013A02B5019301A70100000000E00507
:103F2200B3050F069E03AC0599058A050000000043
:103F32009F0357010F069E03FB0313048603000031
:063F4200000085039E0C47
:00000001FF
