:100000000C94E0000C9408010C9408010C94E41387
:100010000C94E4130C94E4130C9408010C94080160
:100020000C9408010C9408010C9408010C9408012C
:100030000C9408010C9408010C9408010C9408011C
:100040000C949A130C9408010C9468130C944213AA
:100050000C9408010C9408010C9408010C940801FC
:100060000C945C140C94080100407A10F35A00A020
:10007000724E18090010A5D4E80000E87648170071
:1000800000E40B54020000CA9A3B000000E1F505B1
:10009000000080969800000040420F000000A086FB
:1000A00001000000102700000000E803000000002D
:1000B0006400000000000A000000000001000000D1
:1000C00000002C76D888DC674F0823DFC1DFAE59EB
:1000D000E1B1B796E5E3E453C63AE651997696E87E
:1000E000E6C28426EB898C9B62ED407C6FFCEFBC02
:1000F0009C9F40F2BAA56FA5F490055A2AF75C932D
:100100006B6CF9676DC11BFCE0E40D47FEF520E662
:10011000B500D0ED902E0300943577050080841E45
:10012000080000204E0A000000C80C333333330FA0
:10013000986E12831141EF8D2114893BE65516CF3D
:10014000FEE6DB18D1844B381BF77C1D901DA4BB49
:10015000E424203284725E228100C9F124ECA1E5FE
:100160003D2700000000240027002A0000000008AE
:10017000000201000003040700000000000000006E
:1001800000000000230026002900000000002500D8
:1001900028002B00040404040404040402020202E4
:1001A000020203030303030301020408102040803A
:1001B0000102040810200102040810207715CF174F
:1001C00011241FBECFEFD8E0DEBFCDBF24E0A4E4F2
:1001D000B2E001C01D92A335B207E1F712E0A0E042
:1001E000B1E0EEEFFBE302C005900D92A434B1073D
:1001F000D9F710E0CFEDD0E004C02197FE010E94B6
:10020000C71CCE3DD107C9F70E9447160C94F21DBA
:100210000C94000090E020914904293018F0880FD8
:10022000991F862B2091470430914804232B49F0D5
:1002300020914A0430E0322F2227330F3064822B82
:10024000932B08958091330490913404892B59F1B4
:10025000E0917A03F0917B0384E0E931F80719F12A
:10026000309739F0A389B4899C9185898095892339
:100270008C93809137048E7F80933704109279039A
:100280001092780389E194E090937B0380937A0342
:10029000E0912C04F0912D04808190912E04892B03
:1002A000808381E0089580E00895AF92BF92CF925D
:1002B000DF92EF92FF920F931F93CF93DF936C0126
:1002C0007B018B01040F151FEB015E01AE18BF0807
:1002D000C017D10759F06991D601ED91FC910190B9
:1002E000F081E02DC6010995892B79F7C501DF91D1
:1002F000CF911F910F91FF90EF90DF90CF90BF9023
:10030000AF900895FC01538D448D252F30E0842F4C
:1003100090E0821B930B541710F0CF96089501972D
:100320000895FC01918D828D981761F0A28DAE0F1A
:10033000BF2FB11D5D968C91928D9F5F9F73928FA1
:1003400090E008958FEF9FEF0895FC01918D828DCD
:10035000981731F0828DE80FF11D858D90E008959A
:100360008FEF9FEF0895FC01918D228D892F90E0F2
:10037000805C9F4F821B91098F73992708958CE7AA
:1003800093E00E94B30121E0892B09F420E0822F41
:100390000895FC01A48DA80FB92FB11DA35ABF4F1A
:1003A0002C91848D90E001968F739927848FA68974
:1003B000B7892C93A089B1898C91837080648C93C8
:1003C000938D848D981306C00288F389E02D808177
:1003D0008F7D80830895EF92FF920F931F93CF93A9
:1003E000DF93EC0181E0888F9B8D8C8D98131AC070
:1003F000E889F989808185FF15C09FB7F894EE8957
:10040000FF896083E889F9898081837080648083B3
:100410009FBF81E090E0DF91CF911F910F91FF90FE
:10042000EF900895F62E0B8D10E00F5F1F4F0F73A6
:100430001127E02E8C8D8E110CC00FB607FCFACF61
:10044000E889F989808185FFF5CFCE010E94C90135
:10045000F1CFEB8DEC0FFD2FF11DE35AFF4FF08232
:100460009FB7F8940B8FEA89FB8980818062CFCF98
:10047000CF93DF93EC01888D8823B9F0AA89BB89DB
:10048000E889F9898C9185FD03C0808186FD0DC0C6
:100490000FB607FCF7CF8C9185FFF2CF808185FFE7
:1004A000EDCFCE010E94C901E9CFDF91CF91089530
:1004B000833081F028F4813099F08230A9F00895DA
:1004C0008730A9F08830C9F08430B1F48091800081
:1004D0008F7D03C0809180008F7780938000089586
:1004E00084B58F7784BD089584B58F7DFBCF8091CF
:1004F000B0008F778093B00008958091B0008F7D19
:10050000F9CFCF93DF93282F30E0F901E459FE4F64
:100510008491F901E855FE4FD491F901EC56FE4F54
:10052000C491CC23A1F081110E945802EC2FF0E07D
:10053000EE0FFF1FE058FE4FA591B491EC91ED2313
:1005400081E090E009F480E0DF91CF91089580E0B0
:1005500090E0FACF1F93CF93DF93282F30E0F9017B
:10056000E459FE4F8491F901E855FE4FD491F90109
:10057000EC56FE4FC491CC23A9F0162F81110E9496
:100580005802EC2FF0E0EE0FFF1FE657FE4FA5914B
:10059000B4918FB7F894EC91111108C0D095DE2377
:1005A000DC938FBFDF91CF911F910895DE2BF8CFA1
:1005B000CF93DF9390E0FC01E855FE4F24918C56D9
:1005C0009E4FFC0184918823C9F090E0880F991F09
:1005D000FC01EE59FE4FA591B491FC01E657FE4F88
:1005E000C591D49161110DC09FB7F8948C9120955D
:1005F00082238C938881282328839FBFDF91CF910A
:100600000895623051F49FB7F8943C91822F809501
:1006100083238C93E8812E2BEFCF8FB7F894EC9146
:100620002E2B2C938FBFEACF8230910538F0880FA4
:10063000991F880F991F05970197F1F708953FB704
:10064000F89480916F0390917003A0917103B09121
:10065000720326B5A89B05C02F3F19F00196A11D76
:10066000B11D3FBFBA2FA92F982F8827BC01CD01FC
:10067000620F711D811D911D42E0660F771F881F5B
:10068000991F4A95D1F708958F929F92AF92BF928A
:10069000CF92DF92EF92FF926B017C010E941F03C9
:1006A0004B015C01C114D104E104F104B9F00E94D2
:1006B0001F03681979098A099B09683E73408105FF
:1006C000910580F321E0C21AD108E108F10888EE13
:1006D000880E83E0981EA11CB11CE4CFFF90EF9020
:1006E000DF90CF90BF90AF909F908F9008952FB7DD
:1006F000F89460916B0370916C0380916D039091FD
:100700006E032FBF0895089520917A0330917B03E3
:100710002817390771F4909178038091790398171D
:1007200041F0E0917803F0E0E65DFC4F808190E0DD
:1007300008958FEF9FEF08950895EF92FF920F9322
:100740001F93CF93DF93DC015C96ED90FC905D9757
:10075000E114F10479F481E090E013969C938E9378
:10076000129790E080E0DF91CF911F910F91FF9061
:10077000EF9008955196ED91FC91529750968C917F
:100780005097982F90950FB75E962C915E97122FE9
:10079000127021FD6095F8942081112319F1282B06
:1007A0002083E7012197F1F728E0462F50E03081C0
:1007B00060FF1AC0382B3083E7012197F1F7BA01A7
:1007C00075956795215089F7112381F080818923E0
:1007D00080830FBF5C968D919C910197F1F781E02A
:1007E00090E0C1CF2923DCCF3923E5CF9081892B3D
:1007F000EFCF20917A0330917B032817390771F4EA
:10080000809179032091780390E0805C9F4F821B58
:10081000910960E470E00E945E1C089590E080E021
:10082000089520917A0330917B0328173907B9F492
:100830009091780380917903981789F0E09178037B
:10084000F0E0E65DFC4F80812091780330E02F5F7F
:100850003F4F2F7333272093780390E008958FEF55
:100860009FEF08951F93CF93DF93C1E0C093BF0222
:10087000882399F1D091B8001091BA008091BC0002
:100880008A7B8093BC0060E082E10E94AA0260E063
:1008900083E10E94AA0210920403C09306031092FF
:1008A000050361E082E10E94AA0261E083E10E9407
:1008B000AA028091B9008E7F8093B9008091B9001F
:1008C0008D7F8093B90088E48093B80085E480939D
:1008D000BC001093BA00D093B800DF91CF911F9164
:1008E00008952091E002260F3327331F213231056E
:1008F000ECF420910403FC0190E080E0243069F0E6
:1009000082E00895A091E0022191AC0140545D4F36
:10091000A40FB52FB11D2C930196861798F38091E3
:10092000E002680F6093E00280E0089581E008959E
:10093000E091B9028091B802E81730F4F0E0E8568F
:10094000FD4F808190E008958FEF9FEF0895909183
:10095000B9028091B8022FEF3FEF981748F4E92FC2
:10096000F0E0E856FD4F208130E09F5F9093B902A0
:10097000C90108958091B8029091B902891B990B21
:100980000895CF92DF92EF92FF920F931F93CF9330
:10099000DF937C01CB018A0120919702222389F009
:1009A000EB016B01C40ED51ECC15DD0569F0699114
:1009B000D701ED91FC910190F081E02DC7010995DF
:1009C000F3CF642F0E947104C801DF91CF911F9172
:1009D0000F91FF90EF90DF90CF900895CF93DF932A
:1009E0001F92CDB7DEB76983209197022223F9F0D9
:1009F00020919602203258F021E030E0FC01338350
:100A0000228390E080E00F90DF91CF910895809154
:100A10009502E82FF0E0EB58FD4F998190838F5FAE
:100A2000809395028093960281E090E0ECCF61E0A4
:100A3000CE0101960E947104F7CF90E080E0089506
:100A4000FC0183858F3F19F061E00C94AA020895A0
:100A5000FC0180819181892B39F0A281B3819C9125
:100A600011968C919CBD8DBD83858F3F19F060E000
:100A70000C94AA020895AF92BF92CF92DF92EF92A8
:100A8000FF920F931F93CF93DF93EC01888199819D
:100A9000892B89F06EBD0DB407FEFDCFBEB48B2D42
:100AA000DF91CF911F910F91FF90EF90DF90CF904A
:100AB000BF90AF9008958885998511E0892B09F042
:100AC00010E8AA24A394862F812309F0A12C062FD5
:100AD0002C813D814E815F8160E271EA87E090E088
:100AE0000E94721CF22EB02EE12CC22ED12CFF20BF
:100AF00019F0C6010E9414038A85877F09F042C05D
:100B00008D858F3F89F0902F912381E009F480E05B
:100B10008A1551F0EF85F8898F89992369F19081C1
:100B2000892B8083AA24A394E989FA898081998DED
:100B3000892B8083FF2019F0C6010E9414038E8543
:100B40008F3F39F0EB89FC898081988D892309F0EA
:100B5000E12AE989FA899081898D809589238083AA
:100B60008E858F3F09F0BE2C88859985892BB9F534
:100B7000110F1111BCCF93CF908180958923808371
:100B8000A12CD2CFE989FA898081998D892B808324
:100B9000FF2019F0C6010E9414038D858F3F49F094
:100BA000EF85F8898F89902F9123A9F09081892B67
:100BB0008083E989FA899081898D80958923808352
:100BC0008E858F3F69F2EB89FC898081988D89231E
:100BD00039F2E12AC5CF908180958923E9CF169516
:100BE000C8CF8F929F92AF92BF92CF92DF92EF9237
:100BF000FF920F931F93CF93DF937C014B016A0108
:100C0000B22EA32E0E942805E401C80CD91CCC15D5
:100C1000DD0569F4CB2DDA2D0C0F1D1FC017D10790
:100C200059F06FEFC7010E943B058993F7CF699197
:100C3000C7010E943B05EBCFC7010E94200581E060
:100C4000DF91CF911F910F91FF90EF90DF90CF90A8
:100C5000BF90AF909F908F9008958F929F92AF9288
:100C6000BF92CF92DF92EF92FF920F931F93CF9399
:100C7000DF937C01B62EA72E6A0149010E94280548
:100C8000E401080D191DC017D10761F4CB2DDA2D31
:100C9000CC0EDD1ECC15DD0551F06991C7010E9417
:100CA0003B05F8CF6991C7010E943B05ECCFC70116
:100CB0000E94200581E0DF91CF911F910F91FF905D
:100CC000EF90DF90CF90BF90AF909F908F9008955E
:100CD0008F929F92AF92BF92CF92DF92EF92FF924C
:100CE0000F931F93CF93DF93EA01122FDC0111962C
:100CF0008D919C91DC01ED91FC910280F381E02DBE
:100D00000995C817D90709F0A9C0D091960291E0BA
:100D1000D13208F09BC0C09174020E941F036B0186
:100D20007C018091040381116BC082E080930403F5
:100D3000109306038FEF8093030310922803D09340
:100D40002703A5E7B2E0E7E0F3E080E0D81394C022
:100D50001092290380912903CC0FC82BC09329033B
:100D600080910503813009F08BC0109205030E9429
:100D70001F036B017C01809129038093BB0080914C
:100D8000BB029091BC02A091BD02B091BE02892B22
:100D90008A2B8B2BA1F00E941F030091BB021091A4
:100DA000BC022091BD023091BE026C197D098E09F2
:100DB0009F09061717072807390708F442C08091D2
:100DC000BC0083FDD8CF85EC8093BC000E941F033C
:100DD0006B017C0180910403823009F453C080913F
:100DE000030390E08F3F91F18091030392E0803202
:100DF00069F18091030394E0803341F593E026C0CC
:100E00008091BB029091BC02A091BD02B091BE0244
:100E1000892B8A2B8B2B09F484CF0E941F0380908F
:100E2000BB029090BC02A090BD02B090BE026C19B3
:100E30007D098E099F0986169706A806B90608F04F
:100E400070CF8091BA020E94320495E01092950210
:100E5000109296021092970281E0911180E0DF914A
:100E6000CF911F910F91FF90EF90DF90CF90BF90A7
:100E7000AF909F908F9008959D9191938F5F66CFD3
:100E800085EEA2CF8091BB029091BC02A091BD02E1
:100E9000B091BE02892B8A2B8B2B09F49BCF0E9429
:100EA0001F030091BB021091BC022091BD02309142
:100EB000BE026C197D098E099F09061717072807BE
:100EC000390708F087CFBDCFCF92DF92EF92FF9224
:100ED0000F931F93CF93DF93C5E5D2E003E712E0B2
:100EE0000E94770360938403709385038093860345
:100EF000909387038CE793E00E94910197FF27C0AE
:100F00000E947703C0908403D0908503E09086030D
:100F1000F09087036C197D098E099F09C0908003AA
:100F2000D0908103E0908203F09083036C157D05DF
:100F30008E059F05F8F281E080937302DF91CF91D7
:100F40001F910F91FF90EF90DF90CF900895873120
:100F5000910589F389930C171D0711F6ECCF0E94B8
:100F6000BF0181110C9464070895FF920F931F93A2
:100F7000CF93DF93F82E062FC7E0D0E010E061E0BA
:100F8000802F0E94AA028F2D0E9481020C2E01C088
:100F9000880F0A94EAF7182B60E0802F0E94AA02BB
:100FA000219768F7812FDF91CF911F910F91FF90CB
:100FB00008958F929F92AF92BF92CF92DF92EF925D
:100FC000FF920F931F93CF93DF93C82FC12CD12C87
:100FD0007601D0E080913B040E948102892B31F0A0
:100FE00060E070E0CB010E944403F4CF8FB6F89428
:100FF00060913A0480913B040E94B507182F6091DC
:101000003A0480913B040E94B507982E60913A04FF
:1010100080913B040E94B507082FB12CA12C809130
:101020003C048A151B0479F070F061E080913A0469
:101030000E94AA0260E080913A040E94AA028FEF07
:10104000A81AB80AECCF8FBE892D90E0B0E0A0E0DE
:10105000BA2FA92F982F8827A12B802B110F110BA6
:10106000412F50E070E060E0742F66275527442739
:10107000842B952BA62BB72BC80ED91EEA1EFB1E60
:1010800060E070E0CB010E944403DF5FCD13A2CF8C
:101090002C2F30E050E040E0C701B6010E94941CC4
:1010A000CA01B901DF91CF911F910F91FF90EF908D
:1010B000DF90CF90BF90AF909F908F9008950F9347
:1010C0001F93CF93DF930E94D907C8E3D4E00D812B
:1010D0001E812F813885601B710B820B930B0E9440
:1010E000471A29853A854B855C850E94B11BDF91A3
:1010F000CF911F910F9108958AE00E94D9070E9415
:10110000471A0E94231C60933D0470933E04809311
:101110003F049093400408952F923F924F925F9224
:101120006F927F928F929F92AF92BF92CF92DF92F7
:10113000EF92FF920F931F93CF93DF9300D000D0D5
:101140001F92CDB7DEB77C01DC0118960C914C01E3
:10115000BBE08B0E911CFC019681878199838A8369
:10116000208031802114310409F424C1418550E0EC
:10117000D10114968D919C9115978417950708F4C9
:101180006CC18C9191E090939702809374021092BD
:1011900095021092960220E0BE016F5F7F4FC10161
:1011A0000E946806882309F458C1E02FF0E0FC8310
:1011B000EB83B12CA12C01E08B819C81A816B90690
:1011C00008F018C1D10114968D919C91CB80DC80E0
:1011D000CA18DB088C159D0508F46C01F101F0813B
:1011E000FD830E941F032B013C01809104038111A8
:1011F00072C01C2D113208F010E20093040321E0AC
:101200008B819C818C199D09A816B90608F420E0F1
:10121000209306038FEF8093030310922803810F1E
:101220008093270300932903909129038D81880FD0
:10123000892B8093290380910503813009F091C0A7
:10124000109205030E941F032B013C01809129038A
:101250008093BB008091BB029091BC02A091BD0223
:10126000B091BE02892B8A2B8B2BA1F00E941F0309
:101270002091BB023091BC024091BD025091BE0250
:10128000641975098609970926173707480759070A
:1012900008F442C08091BC0083FDD8CF95EC9093B8
:1012A000BC000E941F032B013C018091040381308C
:1012B00009F45BC080912803811710F41091280372
:1012C000E7E0F3E0A8E9B2E080E0811751F1919105
:1012D0009D938F5FFACF8091BB029091BC02A09149
:1012E000BD02B091BE02892B8A2B8B2B09F47DCFD6
:1012F0000E941F032091BB023091BC024091BD02AD
:101300005091BE0264197509860997092617370797
:101310004807590708F069CF8091BA020E94320449
:1013200010E01092B9021093B8021C151D0409F0C8
:1013300094C034016A0C7B1C2301C20186199709F1
:101340008C159D05A0F5F10181819281DC01ED9163
:10135000FC910284F385E02D0995F20181932F0120
:10136000ECCFA5EEA093BC009CCF8091BB029091E6
:10137000BC02A091BD02B091BE02892B8A2B8B2B9F
:1013800009F493CF0E941F032091BB023091BC024D
:101390004091BD025091BE026419750986099709F2
:1013A000261737074807590708F07FCFB5CFAC0C91
:1013B000BD1C02CFD7010280F381E02D309709F4E4
:1013C0004CC014962D913C91159710E019964C91B4
:1013D00050E02330310561F5816089839A834F5F46
:1013E0005F4F9401BE016F5F7F4FCF010E94F105F7
:1013F000882399F1F701408550E030E020E060E07B
:1014000070E0CB01241735075CF5982F872F762FD6
:101410006627D7011A96EC91E1111AC0FA01E21B76
:10142000F30BEE0DFF1DE2856E2B2F5F3F4FEACFD2
:101430002115310519F490689983D3CF22303105F5
:1014400011F49F77F9CF2130310559F6906CF4CF24
:10145000F701E20FF31FE385E7CF6FEF7FEFCB01DB
:101460000F900F900F900F900F90DF91CF911F91E1
:101470000F91FF90EF90DF90CF90BF90AF909F9033
:101480008F907F906F905F904F903F902F90089536
:10149000CF93DF93CDB7DEB763970FB6F894DEBF77
:1014A0000FBECDBF61E089E00E940A01E5E4F4E0EF
:1014B0004281538120813181188A198A1A8A1B8AB4
:1014C0005C834B833A83298323E030E03E832D8382
:1014D00021E02A8798878F831B862987CE01019672
:1014E0000E948C08DC01CB0125E0B695A795979565
:1014F00087952A95D1F7817063960FB6F894DEBF71
:101500000FBECDBFDF91CF9108957F928F929F92B2
:10151000AF92BF92CF92DF92EF92FF920F931F9301
:10152000CF93DF9300D0CDB7DEB78C016A017B018A
:10153000DC018D919C910E948C084B015C01F801AB
:1015400020813181D90118967C90B4E0B71508F458
:1015500073C0828141E050E002C0440F551F8A955C
:10156000E2F741505109052E000C660B770BF38111
:10157000DB01CA010F2E04C0880F991FAA1FBB1FD1
:101580000A94D2F780959095A095B09588229922DB
:10159000AA22BB22DB01CA018C219D21AE21BF21E1
:1015A00004C0880F991FAA1FBB1FFA95D2F788297C
:1015B0009929AA29BB29F9018787908BA18BB28B26
:1015C00050E040E0E72CF12C4E155F05ACF4F9013A
:1015D000628561110AC0E40FF51F8387892F9A2F56
:1015E000AB2FBB274F5F5F4FEFCFF701E41BF50B2E
:1015F000E20FF31F8287F2CF6901FBE0CF0ED11C0F
:10160000D90116969C91169717968C9117979983E6
:101610008A83AD90BC901197A114B10409F442C023
:1016200019960C9110E098012E0D3F1DF501848153
:1016300095818217930710F480E015C08181928113
:10164000208131E03093970220937402109295022A
:101650001092960201151105B1F421E0A701B6011F
:10166000C5010E9468060F900F90DF91CF911F91E6
:101670000F91FF90EF90DF90CF90BF90AF909F9031
:101680008F907F900895DC01ED91FC910280F381B1
:10169000E02DA801BE016F5F7F4F0995081719075C
:1016A00059F6DBCF1296ED91FC911397309721F20A
:1016B00014964D915C91159719960C9110E043305A
:1016C000510571F48E7F89839A830F5F1F4F9E01AE
:1016D0002F5F3F4FA701B601CF010E942D06C3CF58
:1016E0004115510519F49F779983F1CF4230510587
:1016F00011F49068F9CF4130510549F79F77906414
:10170000F3CF0F931F93CF93DF93CDB7DEB76797D8
:101710000FB6F894DEBF0FBECDBF182F062F61E0C5
:10172000883008F460E089E00E940A014091470493
:10173000509148042091450430914604188A198A32
:101740001A8A1B8A5C834B833A83298323E030E027
:101750003E832D8321E02A8798878F831B862987E4
:10176000CE0101969D8B8C8B2E8B17701F8B402F7B
:1017700050E070E060E043960E94850A67960FB6DD
:10178000F894DEBF0FBECDBFDF91CF911F910F91B7
:1017900008958F929F92AF92BF92CF92DF92EF9275
:1017A000FF920F931F93CF93DF93CDB7DEB7AE9722
:1017B0000FB6F894DEBF0FBECDBF082FE62EFF2474
:1017C000F394883008F4F12C6F2D80E00E940A0118
:1017D0008090470490904804A0904504B09046043F
:1017E0001BA21CA21DA21EA29F8A8E8ABD8AAC8A41
:1017F00023E0C22ED12CD98EC88E11E01D8F9B8F75
:101800008A8F1E8E1C8F6F2D86E00E940A01188A17
:10181000198A1A8A1B8A9C828B82BA82A982DE82EA
:10182000CD821A8798878F831B8619870770CE0110
:1018300044969CA78BA71DA70EA7439798A78FA395
:1018400019A70AA741E050E060E070E081E0E812EB
:1018500003C040E050E0BA01CE018B960E94850A99
:1018600041E050E060E070E082E0E81619F040E00E
:1018700050E0BA01CE0187960E94850AAE960FB657
:10188000F894DEBF0FBECDBFDF91CF911F910F91B6
:10189000FF90EF90DF90CF90BF90AF909F908F9090
:1018A00008950C94691D85ED8093BC008091BB0266
:1018B0009091BC02A091BD02B091BE020796A11DFD
:1018C000B11D23E0B695A795979587952A95D1F7F1
:1018D0002091BC0024FD03C01092040308954091A0
:1018E000BB025091BC026091BD027091BE02452BBB
:1018F000462B472B69F30097A105B10541F025E37D
:101900002A95F1F700000197A109B109E1CF809173
:10191000BA020C9432048F929F92AF92BF92EF92D0
:10192000FF920F931F93CF93DF93CDB7DEB7CC58C1
:10193000D1090FB6F894DEBF0FBECDBF10E000E0B6
:1019400080913B040E948102892B09F074C082E0DF
:101950000E945F084B015C012CEE31E548EB5DE332
:101960000E94591C7801EE0CFF1CEE0CFF1C18168F
:101970000CF046C020E030E040E251E4C501B40183
:101980000E94401A87FF3CC0E1E0F0E0EC0FFD1F31
:10199000EE0DFF1D80829182A282B3820F5F1F4FE6
:1019A0000332110569F68E010F5F1F4F7E019DE81E
:1019B000E90EF11C60E070E0CB01F801219131915A
:1019C000419151918F010E94451BE016F106A9F744
:1019D00020E030E04CE052E40E94B11BC457DF4FDE
:1019E0000FB6F894DEBF0FBECDBFDF91CF911F9130
:1019F0000F91FF90EF90BF90AF909F908F900895C0
:101A0000F8013197EE0FFF1FEE0FFF1F81E090E00E
:101A10008C0F9D1FE80FF91F80819181A281B381F6
:101A2000E1E0F0E0EC0FFD1FEE0DFF1D80839183E0
:101A3000A283B383B3CF01501109B0CF2F923F924D
:101A40004F925F926F927F928F929F92AF92BF92CE
:101A5000CF92DF92EF92FF920F931F93CF93DF937A
:101A6000CDB7DEB7C157D1090FB6F894DEBF0FBEB0
:101A7000CDBF2DB73EB7E2963FAF2EAFE297809134
:101A80007302882309F410C280915602863009F04F
:101A900042C0809173038823E1F180917403909197
:101AA0007503A0917603B0917703809341049093DE
:101AB0004204A0934304B09344040E947C0861E074
:101AC0008EE00E94810B10927303109254021092C8
:101AD000530210925202109252021092440210923B
:101AE000450210924602109247028DE0E6E0F1E0D6
:101AF000DE01119601900D928A95E1F70E94220174
:101B00004DE050E0BE016F5F7F4F89E194E00E949D
:101B100055011092730280915602813121F5A7E59B
:101B2000B2E0E8E4F2E08D91819332E0E235F30730
:101B3000D1F78091130190911401A0911501B091FA
:101B4000160189839A83AB83BC8344E050E0BE01D5
:101B50006F5F7F4F8CE793E00E94550181E0809397
:101B600054021092730280915602833109F086C0AC
:101B700080915202882309F481C010925202809110
:101B800057028F3FB1F42AE939E949E95EE36091F0
:101B900044027091450280914602909147020E9452
:101BA000441B6093440270934502809346029093D5
:101BB0004702C0904402D0904502E0904602F09067
:101BC00047022DEC3CEC4CE45DE3C701B6010E94FA
:101BD000401A87FD0BC020E030E040E251E4C7012D
:101BE000B6010E94591C18160CF05BC28DE1E7E1AA
:101BF000F1E0DE01119601900D928A95E1F74DE139
:101C000050E0BE016F5F7F4F8CE793E00E9455016B
:101C100086E1E4E3F1E0DE01929601900D928A956F
:101C2000E1F70E94220146E150E0BE016E5D7F4F68
:101C300089E194E00E945501E8E4F2E0DE01929629
:101C400081918D9342E0E235F407D1F780914A010A
:101C500090914B01A0914C01B0914D0189839A83E1
:101C6000AB83BC8344E050E0BE016F5F7F4F8CE7E5
:101C700093E00E94550181E08093730380915602A6
:101C8000843109F0F9C081E2EEE4F1E0DE01119661
:101C900001900D928A95E1F741E250E0BE016F5F3D
:101CA0007F4F8CE793E00E94550164EC79E080E07F
:101CB00090E00E94440380E090E0A0E8BFE38093BE
:101CC000410490934204A0934304B09344040E94BF
:101CD0007C088CE1EFE6F1E0DE01DE9601900D92EA
:101CE0008A95E1F78E010C591F4F23E045E069E723
:101CF00079EE86E29EE30E94EB17A5968FADA5973D
:101D000062968FAF6297A6968FADA69763968FAFB8
:101D10006397A7968FADA79764968FAF6497A896A1
:101D20008FADA89765968FAF6597A9968FADA99748
:101D300066968FAF66974CE150E0BE01625C7F4FC4
:101D40008CE793E00E94550168E873E180E090E041
:101D50000E94440315E322E0D22E39E1E32E43E052
:101D6000F42E07E1DAA2EBA2FDA20EA31CA345E02C
:101D700050E0BE016E5D7F4F8CE793E00E945501FD
:101D800068EE73E080E090E00E944403115010334D
:101D900049F78AE00E945F0829E739EE46E25EE3F0
:101DA0000E94B11B60937403709375038093760354
:101DB0009093770394E7E92E93E0F92E10E000E08A
:101DC000D701DD907D01C8010E94F71AD81621F0D5
:101DD0006D2DC8010E94FF1A0F5F1F4F04301105BF
:101DE00079F76091740370917503809176039091F7
:101DF00077038E01065A1F4F21E048E00E94EB173F
:101E00008CE1EBE8F1E0DE01929601900D928A956B
:101E1000E1F7F801DE01D496C801089621912D93CF
:101E2000E817F907D9F74CE150E0BE016E5D7F4F2E
:101E30008CE793E00E9455016CED75E080E090E046
:101E40000E94440381E08093730380914A01909142
:101E50004B01A0914C01B0914D0189839A83AB83D2
:101E6000BC8344E050E0BE016F5F7F4F8CE793E09E
:101E70000E9455011092730280915602863191F4AE
:101E80000E947C0860E08EE00E94810B68EC70E0AC
:101E900080E090E00E94440361E08EE00E94810BAC
:101EA000109273021092730280915402882309F4F5
:101EB00086C060E08EE00E94810B82E1E7EAF1E0FB
:101EC000DE01929601900D928A95E1F708E412E006
:101ED000FE01B296D8017F018D91819322E0A23557
:101EE000B207D1F70E94220142E150E0B70189E137
:101EF00094E00E9455010E9477036B017C0138E257
:101F0000C30E33E2D31EE11CF11C0E9477036C1553
:101F10007D058E059F0508F439C18BE0E9EBF1E002
:101F2000DE01DE9601900D928A95E1F74BE050E0DC
:101F3000BE01625C7F4F8CE793E00E94550186E111
:101F4000E4E3F1E0DE01119601900D928A95E1F74C
:101F5000FE013196D8018D918D018193B2E0023559
:101F60001B07C1F70E94220146E150E0BE016F5FEE
:101F70007F4F89E194E00E9455011092540281E064
:101F80008093730368E873E180E090E00E9444036B
:101F900080914A0190914B01A0914C01B0914D016B
:101FA0006E968CAF9DAFAEAFBFAF6E9744E050E082
:101FB000BE01665A7F4F8CE793E00E9455018091E5
:101FC0005402882309F44AC080915302882309F4FB
:101FD00045C00E94480A811154C187E1E4ECF1E058
:101FE000DE01119601900D928A95E1F747E150E0EC
:101FF000BE016F5F7F4F8CE793E00E9455010E9406
:102000008B0C609344027093450280934602909338
:10201000470220E030E040E85FEB0E94401A88234E
:1020200009F4C4C08091DB019091DC01A091DD0135
:10203000B091DE018AA39BA3ACA3BDA344E050E012
:10204000BE016E5D7F4F8CE793E00E94550181E0F9
:10205000809352021092540210925302E2964EADB7
:102060005FADE2970FB6F8945EBF0FBE4DBFCF587D
:10207000DF4F0FB6F894DEBF0FBECDBFDF91CF911B
:102080001F910F91FF90EF90DF90CF90BF90AF9096
:102090009F908F907F906F905F904F903F902F9088
:1020A00008958E01025C1F4F23E045E0C701B60191
:1020B0000E94EB178BE0EFEDF1E0DE0192960190CC
:1020C0000D928A95E1F78EAD8CA38FAD8DA32196ED
:1020D0008FAD21978EA322968FAD22978FA3239643
:1020E0008FAD239788A74BE050E0BE016E5D7F4F18
:1020F0008CE793E00E94550186E1EAEEF1E0DE0113
:10210000119601900D928A95E1F7E8E4F2E0DE0184
:10211000119681918D9352E0E235F507D1F78EAD9E
:102120008C878FAD8D8721968FAD21978E872296D4
:102130008FAD22978F8723968FAD2397888B8091C1
:1021400058028C8B0E94220146E150E0BE016F5F75
:102150007F4F89E194E00E94550161E088E00E9490
:10216000810B64E670E080E090E00E94440360E050
:1021700088E00E94810B60E47FE180E090E00E94B3
:10218000440361E088E00E94810B60CD8FE00E94F3
:102190005F082DEC3CEC4CEC5DE30E94591C1816DA
:1021A0000CF0B3CE81E08093530209CF28961FAE86
:1021B0001EAE289782E08EAF89E18FAF85E421962D
:1021C0008FAF219782E522968FAF229723968FAF0C
:1021D00023979FE424969FAF249725968FAF25974A
:1021E00083E026968FAF269787E127968FAF2797B4
:1021F0004AE050E0BE01625C7F4F8CE793E00E94B2
:10220000550186E1E4E3F1E0DE01929601900D9242
:102210008A95E1F7E8E4F2E0DE01929682E592E049
:1022200021912D938E179F07D9F70E94220146E135
:1022300050E0BE016E5D7F4F89E194E00E94550140
:1022400068EB7BE080E090E00E94440381E08093B3
:10225000730380914A0190914B01A0914C01B09180
:102260004D016E968CAF9DAFAEAFBFAF6E9744E0A1
:1022700050E0BE01665A7F4F8CE793E00E94550103
:10228000E9CE0E94480A813009F0E4CE88E1E0E01E
:10229000F2E0DE01119601900D928A95E1F748E196
:1022A00050E0BE016F5F7F4F8CE793E00E945501C5
:1022B0000E9477039B01AC01205D3A484F4F5F4F6E
:1022C000E0962CAF3DAF4EAF5FAFE0970E94770333
:1022D000E0962CAD3DAD4EAD5FADE0976217730754
:1022E0008407950708F00BC12DB63EB64DB75EB713
:1022F0004C5351090FB6F8945EBF0FBE4DBF0DB7DA
:102300001EB70F5F1F4FADB7BEB711961D921D923E
:102310001D921C921497EDB7FEB735968DB79EB7F8
:10232000CD961192119211921192E817F907C9F7FF
:10233000EDB7FEB7F8970FB6F894FEBF0FBEEDBF2E
:102340002DB73EB72F5F3F4F4901ADB7BEB71196CE
:102350001D921D921D921C92149735968DB79EB7B3
:10236000C9961192119211921192E817F907C9F7C3
:102370007801B4E0EB1AF10868015801E8E3AE0E09
:10238000B11C82E00E94D90740903D0450903E0469
:1023900060903F047090400464197509860997099C
:1023A0000E94471A20914104309142044091430415
:1023B000509144040E94B11B2B013C0120E030E00D
:1023C00040E251E40E94401A87FFD9C02CEE31E56B
:1023D00048EB5DE3C301B2010E94591C18160CF0D2
:1023E000CEC0D70114964D925D926D927C92179754
:1023F000F4E0EF0EF11CEA14FB0419F65401AC965C
:102400009FAE8EAEAC97D8016D917D918D919D91CF
:102410008D012D913D914D915C910E94441B2B01AA
:102420003C0120E030E0A9010E94591C181624F05C
:1024300077FA709477F87094AC96EEADFFADAC97E8
:102440004192519261927192AC96FFAFEEAFAC9710
:10245000E016F106C1F6F8E38F0E911C10E000E0E3
:10246000412C512C3201D5016D917D918D919D9121
:102470005D0120E030E040E05FE30E94401A87FF0A
:1024800016C0F6012081318142815381C301B2011E
:102490000E94451BD60114962D913D914D915C9162
:1024A00017970E94451B2B013C010F5F1F4FB4E0A3
:1024B000CB0ED11C8A149B04B1F60A3011050CF422
:1024C00068C0B801660F771F072E000C880B990BA8
:1024D0000E94471A9B01AC01C301B2010E94B11BCB
:1024E0006B017C010FB6F8943EBE0FBE2DBE20E0FE
:1024F00030E040E85FEB0E94401A811150C00E941A
:102500008B0C609344027093450280934602909333
:10251000470287E1E4ECF1E0DE01929601900D9232
:102520008A95E1F747E150E0BE016E5D7F4F8CE791
:1025300093E00E94550120E030E040E85FEB6091BD
:1025400044027091450280914602909147020E9498
:10255000401A882369F18091DB019091DC01A09100
:10256000DD01B091DE0122968CAF9DAFAEAFBFAF63
:10257000229744E050E0BE01625C7F4F64CDF701DA
:1025800080819181A281B38184839583A683B7835F
:102590002FCF0FB6F8943EBE0FBE2DBE97CEC09281
:1025A0004402D0924502E0924602F09247023ACDB0
:1025B000A4961FAE1EAEA49782E06B968FAF6B976A
:1025C00089E16C968FAF6C9785E46D968FAF6D97B0
:1025D00082E56E968FAF6E976F968FAF6F979FE481
:1025E000A0969FAFA097A1968FAFA19783E0A296E8
:1025F0008FAFA29787E1A3968FAFA3974AE050E0F1
:10260000BE01665A7F4F8CE793E00E94550186E138
:10261000E4E3F1E0DE01DE9601900D928A95E1F7A8
:10262000E8E4F2E0DE01DE9681918D9322E0E2356E
:10263000F207D1F70E94220146E150E0BE01625C40
:102640007F4F89E194E00E94550168EB7BE080E0D8
:1026500090E00E94440381E08093730380914A01DB
:1026600090914B01A0914C01B0914D01A8968CAF77
:102670009DAFAEAFBFAFA89744E050E0BE016C592C
:102680007F4FFACD1F920F920FB60F9211242F9306
:102690003F934F935F936F937F938F939F93AF93EA
:1026A000BF93EF93FF938CE793E00E94C901FF91E2
:1026B000EF91BF91AF919F918F917F916F915F91BA
:1026C0004F913F912F910F900FBE0F901F90189533
:1026D0001F920F920FB60F9211242F938F939F93F7
:1026E000EF93FF93E0918C03F0918D038081E09153
:1026F0009203F091930382FD1BC09081809195031A
:102700008F5F8F7320919603821741F0E0919503BC
:10271000F0E0E458FC4F958F80939503FF91EF9183
:102720009F918F912F910F900FBE0F901F90189532
:102730008081F4CF1F920F920FB60F9211242F9326
:102740003F938F939F93AF93BF9380916B0390912F
:102750006C03A0916D03B0916E0330916A0323E086
:10276000230F2D3758F50196A11DB11D20936A0343
:1027700080936B0390936C03A0936D03B0936E03EF
:1027800080916F0390917003A0917103B0917203D7
:102790000196A11DB11D80936F0390937003A093C8
:1027A0007103B0937203BF91AF919F918F913F914D
:1027B0002F910F900FBE0F901F90189526E8230FB2
:1027C0000296A11DB11DD2CF1F920F920FB60F928C
:1027D00011242F933F934F935F936F937F938F9326
:1027E0009F93AF93BF93EF93FF93E0917A03F091A0
:1027F0007B03309749F0A685B7858585968D91FF37
:1028000014C09C918923A1F4FF91EF91BF91AF91E6
:102810009F918F917F916F915F914F913F912F91F8
:102820000F900FBE0F901F9018959C91892361F710
:10283000A389B4899C918589809589238C93868905
:1028400097890197F1F7608D718DA685B7855585BC
:1028500038E020E0CB010197F1F7822F90E09595C9
:102860008795282F4C91452309F02068315091F726
:10287000868D81FD20958091790390E001968F737C
:10288000992730917803381799F0A0917903B0E037
:10289000A65DBC4F2C9380937903828D938D019715
:1028A000F1F7A389B4898C919589892B8C93ACCF4E
:1028B000868D8160868FF1CF1F920F920FB60F9297
:1028C00011242F933F934F935F936F937F938F9335
:1028D0009F93AF93BF93EF93FF938091B900887F4D
:1028E000803609F44AC0F0F5883209F4A5C018F51D
:1028F000803109F499C0B8F4882309F4F5C0883010
:1029000009F492C0FF91EF91BF91AF919F918F9188
:102910007F916F915F914F913F912F910F900FBEDB
:102920000F901F901895883109F486C0803251F7B6
:102930008093030314C0803409F49BC040F48033B7
:10294000B9F38833F9F68093030385ECAEC0803584
:1029500009F483C0883509F494C0883499F60E943C
:10296000530CD0CF883909F48AC038F5883729F05C
:1029700050F4883611F0803729F683E08093040301
:102980001092020355C0883809F479C0803919F0D3
:10299000803809F0B7CF80910203803208F06FC011
:1029A000E091020381E08E0F809302038091BB00CF
:1029B000F0E0EE51FD4F80833BC0803B39F0D0F416
:1029C000803A09F477C0883A09F09CCF84E080937C
:1029D00004031092E1021092E002F0E0E0E00995B9
:1029E0008091E00281110FC081E08093E00210929B
:1029F000C00209C0803C09F4A8CF883C09F4A5CFE7
:102A0000883B09F07FCFE091E10281E08E0F809357
:102A1000E102F0E0E054FD4F80818093BB00909193
:102A2000E1028091E00229C0809129038093BB00DC
:102A300085EC8093BC0066CF90912803809127039A
:102A4000981758F5E091280381E08E0F80932803B2
:102A5000F0E0E95FFC4F8081E9CFE091280381E05D
:102A60008E0F809328038091BB00F0E0E95FFC4F5C
:102A7000808390912803809127039817C8F285E8F6
:102A8000D8CFE091280381E08E0F809328038091B6
:102A9000BB00F0E0E95FFC4F808380910603811169
:102AA0005ECF81E08093050384EA8093BC0010929E
:102AB000040328CF85EC8093BC001092040380911E
:102AC0000203803230F4E0910203F0E0EE51FD4F5A
:102AD00010826091020370E082EE92E0F0E0E0E0AC
:102AE0000995109202030ECF1092030338CF109273
:102AF0007F0310927E0388EE93E0A0E0B0E0809325
:102B0000800390938103A0938203B09383032CE10D
:102B100032E030937D0320937C0325EC30E030934A
:102B200089032093880324EC30E030938B032093B7
:102B30008A0320EC30E030938D0320938C0321EC4A
:102B400030E030938F0320938E0322EC30E03093FB
:102B500091032093900326EC30E03093930320936D
:102B6000920310929503109296031092970310927D
:102B70009803109246041092450410924804109253
:102B8000470420E12093490420E432E030933904E3
:102B90002093380410923D0410923E0410923F049A
:102BA0001092400440E050E060E87FE3409341042D
:102BB00050934204609343047093440410921C04A5
:102BC00010921B0480931D0490931E04A0931F0475
:102BD000B09320048EE292E090931A04809319043B
:102BE0001092300410922F0410923204109231048B
:102BF000109234041092330410923604109235046B
:102C0000609137046E7F6D7F6093370466956170C5
:102C100081E0682787E00E94AA0261E087E00E94C5
:102C2000D802EFEAF1E0E491E0932904EBE9F1E066
:102C3000E491F0E0EE0FFF1FE657FE4F859194916F
:102C400090932B0480932A0460E088E00E94D802CD
:102C50008091370481FD04C061E088E00E94AA02EF
:102C600088E080932504E0EBF1E0E491E093260412
:102C7000ECE9F1E0E491F0E0EE0FFF1FE058FE4FC9
:102C80008591949190932804809327040895CF937D
:102C9000DF9300D000D0CDB7DEB7789484B58260E2
:102CA00084BD84B5816084BD85B5826085BD85B5F0
:102CB000816085BD80916E00816080936E0010926E
:102CC00081008091810082608093810080918100E9
:102CD000816080938100809180008160809380007A
:102CE0008091B10084608093B1008091B0008160D8
:102CF0008093B00080917A00846080937A00809104
:102D00007A00826080937A0080917A00816080935B
:102D10007A0080917A00806880937A001092C100D6
:102D200061E089E00E94AA0262E370E080E090E046
:102D30000E94440361E089E00E94D80261E080E0E3
:102D40000E94C90B61E081E00E94C90B62E089E04A
:102D50000E94C90B62E08AE00E94C90B62E08BE02E
:102D60000E94C90B62E08CE00E94C90B61E08EE01A
:102D70000E94C90B62E08DE00E94C90B61E088E00F
:102D80000E94C90B62E08FE00E94C90B61E080E005
:102D90000E94810BE0918C03F0918D0382E080838F
:102DA000E0918803F091890381E08083E0918A03B8
:102DB000F0918B0380EA808310929403E09190035A
:102DC000F091910386E08083E0918E03F0918F0370
:102DD000808180618083E0918E03F0918F038081F8
:102DE00088608083E0918E03F0918F0380818068FA
:102DF0008083E0918E03F0918F0380818F7D8083AB
:102E00001092340410923304109232041092310460
:102E10001092300410922F048DE991E090933604C3
:102E20008093350490912504963108F047C02DEB2E
:102E300030E03093300420932F042BE931E03093BD
:102E40003204209331042CE231E030933404209397
:102E500033042091680084E0983048F031E09E30DF
:102E600008F430E081E001C0880F3A95EAF7822B40
:102E7000809368002DE630E0983050F02BE630E08B
:102E80009E3030F02CE630E0963110F030E020E05B
:102E900030932D0420932C04292F30E0983008F033
:102EA00071C081E001C0880F9A95EAF780932E04E3
:102EB00080913504909136040197F1F70E94220128
:102EC00090E080E00E94F71A8093740381E090E024
:102ED0000E94F71A8093750382E090E00E94F71A2F
:102EE0008093760383E090E00E94F71A8093770343
:102EF00085E080933A0484E080933B0461E085E0C0
:102F00000E94D80262E080913B040E94D80211E046
:102F100010933C048091740390917503A091760303
:102F2000B09177038093410490934204A0934304AB
:102F3000B09344040E947C0880914A0190914B0117
:102F4000A0914C01B0914D0189839A83AB83BC83DE
:102F500068EB7BE080E090E00E94440344E050E0B6
:102F6000BE016F5F7F4F8CE793E00E945501109385
:102F700073030E941E0D0E94BF018823D1F30E949B
:102F80006407F7CF9E3040F42850310981E001C03A
:102F9000880F2A95EAF78ACF2E503109F7CF8EE2B3
:102FA00092E090931A048093190480917A0390918F
:102FB0007B038951944071F4E0912C04F0912D042D
:102FC000908180912E0480958923808310927B03C9
:102FD00010927A030895EF920F931F93CF93DF938C
:102FE000E80134E047FD34E1042E000C550B57FF97
:102FF00003C0519541955109E32E022F242FAE01B4
:103000000E940918CE01DF91CF911F910F91EF908F
:103010000895A9E0B0E0EFE0F8E10C94131B6A0119
:10302000F22EB02E102FFBE3AF2EA01608F41BE3F8
:103030001F5F012F27E0AE014F5F5F4F0E946819AD
:10304000BC018981982F9970913009F43FC09BE2AF
:10305000E1FC04C09E2D9170E0FC3AC05E2D5071E1
:10306000E82FE87083FF46C084E0911101C083E03F
:10307000EF2DE81B8F1508F0E0E0D6018E2F20E23F
:10308000552351F1992329F0D6019C93C60101964D
:103090006C0196012D5F3F4FE2FE24C08EE4D60105
:1030A0008C9391E411969C93119712968C93D9016D
:1030B0008E2F90E281111BC0E20FF32FF11D1082C1
:1030C0008EEF9FEF2996ECE00C942F1B9DE2C6CF6C
:1030D00090E2C4CF2D9381508111FCCFCE0ED11C34
:1030E000E0E0D0CF8EE6D6018C9391E6DBCF9D93C6
:1030F0008150E0CF482F447082FF3DC084E09111A1
:1031000001C083E08F1510F4EF2DE81BD6018E2F40
:1031100020E2552309F1992329F0D6019C93C60199
:1031200001966C0196012D5F3F4FE2FE1BC089E4C2
:10313000D6018C938EE411968C93119786E41296A7
:103140008C93D9018E2F90E2882309F4B5CF9D93FB
:103150008150FACF2D9381508111FCCFCE0ED11C1E
:10316000E0E0D9CF89E6D6018C938EE611968C9358
:10317000119786E6E4CF9B0177FF02C030E020E0A4
:10318000A1E0B0E0911102C0B0E0A0E0F9013196F9
:10319000AE0FBF1F8B2C912CBB2009F461C05401D2
:1031A000EFEFAE1ABE0AAA0DBB1DFA161B0619F0E8
:1031B00014F04F2D4A1B511188C0E3FC59C0760111
:1031C000A42FB0E2A1114FC0C40ED11C992309F461
:1031D0005BC040E0D6011196F60190836D01552346
:1031E00009F448C0012F060F9A81582F507184FFAF
:1031F00003C0913309F4015010160CF047C0093098
:1032000008F008E0EEE2FE2E5B01A01AB10885018D
:103210009194819491082F3F320729F4D601FC92B2
:10322000F60131966F016217730794F102171307C5
:103230007CF5DB01A21BB30BAA24A394B12CAC0E2A
:10324000BD1EAA0DBB1D11968C9121503109D601CE
:10325000119628153905F4F0F60180836D01DBCF56
:10326000B12CA12CA0CFF701B1937F01A150AACF1F
:103270009111B0CFD601942F50E302C05D939150CD
:103280009111FCCFC40ED11C40E0ACCF01E0BACF0D
:1032900080E3DBCF6217730731F4963388F49533FC
:1032A00011F4552369F0F6018083FD01842F90E22B
:1032B000811108C0A40FB11D1C9290E080E002CFE4
:1032C00081E3F1CF91938150F3CF911183CF8ACFD6
:1032D000283008F027E03327DA01990F311D87FDE8
:1032E000916000966105710539F432602E5F3D935F
:1032F00030E32A95E1F708959F3F30F0803871055B
:10330000610509F03C5F3C5F3D93913008F08068B7
:10331000911DDF93CF931F930F93FF92EF92192F7D
:10332000987F9695E92F96959695E90FFF27EE538E
:10333000FF4F99273327EE24FF24A701E7010590CB
:103340000894079428F4360FE71EF81E491F511DF4
:10335000660F771F881F991F0694A1F705900794A1
:1033600028F4E70EF81E491F561FC11D770F881F4E
:10337000991F661F0694A1F70590079428F4F80E8C
:10338000491F561FC71FD11D880F991F661F771F22
:103390000694A1F70590079420F4490F561FC71F04
:1033A000D81F990F661F771F881F0694A9F784916D
:1033B0001095177041F0D695C79557954795F79496
:1033C000E7941A95C1F7E8E6F0E068941590159136
:1033D00035916591959105907FE27395E118F10A19
:1033E000430B560BC90BD009C0F7E10CF11E431F6C
:1033F000561FC91FD01D7EF4703311F48A95E6CF95
:10340000E894015030F0080F0AF40027021708F47E
:10341000202F2395022F7A3328F079E37D932A9584
:10342000E9F710C07D932A9589F6069497956795DC
:10343000379517951794E118F10A430B560BC90BF2
:10344000D00998F023957E9173957A3308F070E354
:103450007C932013B8F77E9170617D9330F0839553
:1034600071E37D9370E32A95E1F71124EF90FF90CB
:103470000F911F91CF91DF91992787FD9095089526
:103480000E94821A08F481E00895E89409C097FB2D
:103490003EF490958095709561957F4F8F4F9F4F2B
:1034A0009923A9F0F92F96E9BB279395F69587956F
:1034B00077956795B795F111F8CFFAF4BB0F11F432
:1034C00060FF1BC06F5F7F4F8F4F9F4F16C08823D9
:1034D00011F096E911C0772321F09EE8872F762F0F
:1034E00005C0662371F096E8862F70E060E02AF050
:1034F0009A95660F771F881FDAF7880F969587953C
:1035000097F90895990F0008550FAA0BE0E8FEEF10
:1035100016161706E807F907C0F012161306E40797
:10352000F50798F0621B730B840B950B39F40A2690
:1035300061F0232B242B252B21F408950A2609F46E
:10354000A140A6958FEF811D811D089597F99F6772
:1035500080E870E060E008959FEF80EC089500241B
:103560000A941616170618060906089500240A94E8
:1035700012161306140605060895092E0394000C6E
:1035800011F4882352F0BB0F40F4BF2B11F460FFFD
:1035900004C06F5F7F4F8F4F9F4F089557FD905826
:1035A000440F551F59F05F3F71F04795880F97FB07
:1035B000991F61F09F3F79F08795089512161306C1
:1035C0001406551FF2CF4695F1DF08C016161706F0
:1035D0001806991FF1CF8695710561050894089525
:1035E000E894BB2766277727CB0197F90895F999C7
:1035F000FECF92BD81BDF89A992780B50895262FF8
:10360000F999FECF1FBA92BD81BD20BD0FB6F894C7
:10361000FA9AF99A0FBE019608952F923F924F920F
:103620005F926F927F928F929F92AF92BF92CF9252
:10363000DF92EF92FF920F931F93CF93DF93CDB75B
:10364000DEB7CA1BDB0B0FB6F894DEBF0FBECDBFD3
:1036500009942A88398848885F846E847D848C84A4
:103660009B84AA84B984C884DF80EE80FD800C81AD
:103670001B81AA81B981CE0FD11D0FB6F894DEBF90
:103680000FBECDBFED0108955058BB27AA270E9459
:103690005C1B0C94BD1A0E94AF1A38F00E94B61A37
:1036A00020F039F49F3F19F426F40C94AC1A0EF470
:1036B000E095E7FB0C94A61AE92F0E94CE1A58F366
:1036C000BA17620773078407950720F079F4A6F507
:1036D0000C94F01A0EF4E0950B2EBA2FA02D0B01CE
:1036E000B90190010C01CA01A0011124FF27591B47
:1036F00099F0593F50F4503E68F11A16F040A22F4D
:10370000232F342F4427585FF3CF469537952795BD
:10371000A795F0405395C9F77EF41F16BA0B620BBC
:10372000730B840BBAF09150A1F0FF0FBB1F661F03
:10373000771F881FC2F70EC0BA0F621F731F841F46
:1037400048F4879577956795B795F7959E3F08F06C
:10375000B0CF9395880F08F09927EE0F979587952E
:1037600008950E94C51B0C94BD1A0E94B61A58F009
:103770000E94AF1A40F029F45F3F29F00C94A61A7A
:1037800051110C94F11A0C94AC1A0E94CE1A68F3E1
:103790009923B1F3552391F3951B550BBB27AA270A
:1037A00062177307840738F09F5F5F4F220F331F44
:1037B000441FAA1FA9F335D00E2E3AF0E0E832D00C
:1037C00091505040E695001CCAF72BD0FE2F29D00F
:1037D000660F771F881FBB1F261737074807AB07E1
:1037E000B0E809F0BB0B802DBF01FF2793585F4F56
:1037F0003AF09E3F510578F00C94A61A0C94F11AF9
:103800005F3FE4F3983ED4F3869577956795B79537
:10381000F7959F5FC9F7880F911D9695879597F942
:103820000895E1E0660F771F881FBB1F62177307BB
:103830008407BA0720F0621B730B840BBA0BEE1FD0
:1038400088F7E09508950E942A1C6894B1110C94A1
:10385000F11A08950E94D61A88F09F5798F0B92F50
:103860009927B751B0F0E1F0660F771F881F991FB5
:103870001AF0BA95C9F714C0B13091F00E94F01A4D
:10388000B1E008950C94F01A672F782F8827B85F5D
:1038900039F0B93FCCF3869577956795B395D9F70D
:1038A0003EF490958095709561957F4F8F4F9F4F17
:1038B00008950E94821A08F48FEF089597FB072E4F
:1038C00016F4009407D077FD09D00E94B31C07FCC2
:1038D00005D03EF4909581959F4F08957095619520
:1038E0007F4F0895A1E21A2EAA1BBB1BFD010DC03C
:1038F000AA1FBB1FEE1FFF1FA217B307E407F507A0
:1039000020F0A21BB30BE40BF50B661F771F881F7B
:10391000991F1A9469F760957095809590959B0111
:10392000AC01BD01CF010895052E97FB1EF4009454
:103930000E94AB1C57FD07D00E94721C07FC03D0ED
:103940004EF40C94AB1C50954095309521953F4F0B
:103950004F4F5F4F089590958095709561957F4F7B
:103960008F4F9F4F0895AA1BBB1B51E107C0AA1F91
:10397000BB1FA617B70710F0A61BB70B881F991F10
:103980005A95A9F780959095BC01CD010895EE0F49
:10399000FF1F0590F491E02D09940F931F93CF938F
:1039A000DF938230910510F482E090E0E0915104C1
:1039B000F091520430E020E0B0E0A0E0309799F4BC
:1039C0002115310509F44AC0281B390B2430310573
:1039D000D8F58A819B816115710589F1FB0193837B
:1039E0008283FE0111C040815181028113814817F9
:1039F0005907E0F04817590799F4109761F01296AB
:103A00000C93129713961C933296CF01DF91CF91AE
:103A10001F910F9108950093510410935204F4CF15
:103A20002115310551F04217530738F0A901DB0188
:103A30009A01BD01DF01F801C1CFEF01F9CF9093E9
:103A4000520480935104CDCFFE01E20FF31F819306
:103A500091932250310939832883D7CF20914F0485
:103A600030915004232B41F4209102013091030145
:103A70003093500420934F042091000130910101B4
:103A80002115310541F42DB73EB740910401509105
:103A90000501241B350BE0914F04F0915004E2170F
:103AA000F307A0F42E1B3F0B2817390778F0AC0161
:103AB0004E5F5F4F2417350748F04E0F5F1F50933E
:103AC000500440934F04819391939FCFF0E0E0E046
:103AD0009CCFCF93DF930097E9F0FC0132971382DC
:103AE0001282A0915104B0915204ED0130E020E027
:103AF0001097A1F420813181820F931F20914F04F0
:103B0000309150042817390709F061C0F093500430
:103B1000E0934F04DF91CF910895EA01CE17DF07BC
:103B2000E8F54A815B819E0141155105B1F7E90134
:103B3000FB83EA8349915991C40FD51FEC17FD0708
:103B400061F4808191810296840F951FE901998328
:103B50008883828193819B838A83F0E0E0E01296E0
:103B60008D919C9113970097B9F52D913C911197E8
:103B7000CD010296820F931F20914F043091500483
:103B80002817390739F6309751F5109252041092E0
:103B90005104B0935004A0934F04BCCFD383C2838D
:103BA00040815181840F951FC817D90761F44E5F7A
:103BB0005F4F88819981480F591F518340838A81C3
:103BC0009B81938382832115310509F0B0CFF09357
:103BD0005204E09351049ECFFD01DC01C0CF13825B
:103BE0001282D7CF10E0CFEDD0E004C0FE010E94DA
:0E3BF000C71C2196C03ED107C9F7F894FFCF3D
:103BFE0000005304800052454144597C307C307C97
:103C0E00300D0A0206031702194552524F52202058
:103C1E0020202020202020202052414E4745204F9A
:103C2E0055540317303030303030303030307C3037
:103C3E002E3030307C317C300D0A0205031702190C
:103C4E0043414C4C494252415445204D4F4445202E
:103C5E00444F204E4F5420544F55434821031702D2
:103C6E0019504C414345204120574549474854205F
:103C7E00203D302E3030304B470317021946494E47
:103C8E004953482020202020202020202030303072
:103C9E003030302E3003173030303030303030305E
:103CAE00307C307C307C300D0A021954494D454F22
:103CBE005554031702194D4541535552494E47204D
:103CCE0020202020202041564703170212031702FE
:103CDE0019302E3030304B47031730303030303003
:103CEE00303030307C302E3030307C307C300D0A2D
:103CFE0002194D4541535552494E47202020202050
:103D0E0020205354424C031700000000EB015501D4
:103D1E0082013802B3019101A501000000009D034C
:103D2E0055011D059C03F9031104840300000000D6
:043D3E008303510C9E
:00000001FF
